:020000040000fa
:080000000002040000000000f2
:020000040000fa
:100400000f1e2400003f24000001880000000000af
:100410000c00070040242b00010020001100070001
:10042000000020000000e000020032000000020096
:1004300000000000523f0200000000000040da000f
:100440000000fe004440a900e06d21000000e00033
:100450000300320000002000a00188004440a800f2
:100460000000060091018800800078000000eb0089
:1004700015003700e280400032a0b4009101ba00bc
:10048000e280400032a0b4009102ba00e280400055
:1004900032a0b4000002eb00472bde00f507b200eb
:1004a000602ce10004003a000059eb008301e900f0
:1004b000fdff3e00040037006128e100010032002a
:1004c0000082eb00040007001101ba000200e00006
:1004d000e8ff3a00000006003159ba008301e90044
:1004e0000c0032002159ba008301e90008003200f3
:1004f0000400e00003003a00e280400032a0b400b3
:10050000f5ff370011d9ba008301e900faff3a007c
:100510008100e800e180400032a0b4000000060045
:1005200046b40400000000003c9c040000000000f1
:100530009695040000000000b49304000000000041
:10054000f099040000000000fe8404000000000098
:10055000f8840400000000005c9a04000000000021
:10056000368904000000000002840400000000003e
:100570000c840400000000007684040000000000e9
:100580009086040000000000ee3704000000000028
:10059000c4380400000000004a39040000000000d4
:1005a000163904000000000052460400000000005c
:1005b000be460400000000000447040000000000e4
:1005c0006847040000000000ce470400000000005f
:1005d00034480400000000009a48040000000000b5
:1005e0003849040000000000be490400000000007b
:1005f000444a040000000000f04a0400000000002b
:10060000e04b040000000000b44c040000000000b7
:100610002a4d040000000000844d0400000000008a
:10062000de4d040000000000d84e04000000000071
:10063000324f04000000000078b004000000000009
:1006400092b004000000000000360400000000002a
:10065000e83204000000000016340400000000002e
:100660004435040000000000d23504000000000002
:100670009632040000000000ce32040000000000aa
:10068000c433040000000000fc330400000000003c
:10069000f2340400000000002a35040000000000cd
:1006a000f0350400000000003237040000000000b4
:1006b000839f68000100e00002003d006000100020
:1006c000e08018000300e00002003d00600111001e
:1006d000e0811900050007004f00e00002003b0028
:1006e00060001000e0801800000006006022b800e2
:1006f000060220000000d0008180d2000482d200d7
:100700008582d2000000a0000202520083825a00bb
:10071000030031000202420083824a000000a1006f
:100720000603e900f3ff3a0000000600889fbe00c0
:100730008a9fbe008c1f78000205be000004be0028
:100740000006eb00e00f5000e08f5800e00f59006a
:10075000e08f590007003d006000b8006011b8004c
:1007600008045000898458000a0559008b855900f7
:100770001c002000e00f5200e08f5a00e00f5b00e9
:10078000e08f5b0002003d000f0007000c00a2009c
:100790000800be000a01be001d0107000203be00e2
:1007a0000002be000c00e00001003200060007005d
:1007b0000400be000601be004f0678004f05be00d3
:1007c0004f04be00000006006000b8006011b800d1
:1007d000040250008582580006035900878359009f
:1007e00000000600881f7800000478005001be0059
:1007f0004000be000400400085804800060149001a
:1008000087814900009cbe000294be000400e10004
:100810000588e1000690e1000798e1000200310040
:10082000680044001008e8004f047800000006004b
:10083000f4874700889fbe008a9fbe008c9fbe0041
:100840008e1f78000205be000004be00d4b79f00d2
:10085000e5b79f00f6b79f0087bf9f000000eb0041
:10086000c0b79f00b0b79f00a0b79f0090b79f0090
:1008700080b79f000d042000bfb097004fb09700d5
:10088000000140000000e0000f003d004f08de00c6
:1008900000007100c0b79f009e00070001003d00ee
:1008a00012002000a100070001003d0012002000fe
:1008b000a6000700b1000700b60007000f004000c7
:1008c000c8ff0700220037004f08de000006710055
:1008d000ccb79f008f00070001003d0012002000f0
:1008e0009200070001003d00120020009700070061
:1008f000a20007000fb297009fb297002fb3970096
:10090000bfb39700a90007000000520081805a0081
:1009100002015b0083815b0080b79f0091b79f005d
:10092000a2b79f00b3b79f000007eb009f0007002e
:100930000020e10001a8e10002b0e10003b8e100fd
:10094000010031001e0020000e005600c0b79f00bd
:100950004fb297000400e0000700350010002000af
:10096000010020006011b800080470008984700044
:100970000a0571008b8571008d06e900beff3a0003
:100980000400e00003003d00820007000f0040006b
:1009900094ff07004fa897000000e00004003a0011
:1009a0000fb497009fb497002fb59700bfb597007d
:1009b000940007004f0778004f06be004f05be00a9
:1009c0004f04be004f01b10000000600881f7800f0
:1009d00018002000881f780095ff07008f87e90026
:1009e0004f04780000000600801feb0090ff070016
:1009f0008f87e90000000600889fbe008a9fbe0026
:100a00008c1f78006e00070007003d007300070090
:100a1000e00f5b00e08f5b0007003d003200070045
:100a20000006eb00040037003400070002003d0020
:100a30002a0007001c00200072000700e3ff0700e7
:100a40000203be000002be000c00e0000100320004
:100a5000220007000400be000601be004f06780019
:100a60004f05be004f04be0000000600889fbe0078
:100a70008a9fbe008c1f78005100070005003d00d2
:100a800056000700e00f5b00e08f5b0006003d00b2
:100a9000040037001900070003003d006000b800a3
:100aa0006011b8001000070056000700ceff0700d5
:100ab0000203be000002be000c00e0000100320094
:100ac000060007000400be000601be004f067800c5
:100ad0004f05be004f04be00000006006000b800d5
:100ae0006011b800000037000402500085825800f1
:100af0000603590087835900000006000006eb003a
:100b0000e00f5200e08f5a00e00f5b00e08f5b00c7
:100b1000000006000180400090b79f000001eb003c
:100b20008fb097000100e000000006000200700096
:100b300090b79f000180400080b79f000001eb004c
:100b4000ffa897000100e00000000600020070000e
:100b500080b79f00018040006faa9700cf20de0081
:100b600001007000f0af9f00040242002500070062
:100b70004f18de000002720000000600e4af9f0084
:100b80000804440089844c000a054d008b854d0003
:100b9000000006003fb29700cfb297005fb3970006
:100ba000efb3970000fe2f00000006003fb0970053
:100bb000cfb097005fb19700efb19700000006003b
:100bc0000205be000004be00e00f5000e08f580098
:100bd000e00f5900e08f5900000006006000b800e7
:100be0006011b80008045000898458000a055900b3
:100bf0008b8559001c002000e00f5200e08f5a0046
:100c0000000006000800be000a01be000000060049
:100c1000889fbe008a9fbe008c9fbe000404b8005f
:100c20000506b8008904460060854e000606b80037
:100c30000a054600e0854e000706b8008b05460011
:100c4000040eb800890446000a854e00e0854d0078
:100c5000050eb8000a0546008b854e00060eb8004a
:100c60008b0546000416b8000a0546008b854e0029
:100c70000516b8008b054600041eb8008b0546001b
:100c80000800be000a01be004f06be004f05be00b0
:100c90004f04be0000000600800078003004e00031
:100ca000feff3a00010050000000e90000000600cd
:100cb0008001eb000200370061f079008301e80059
:100cc000828f5100fcff3a00000006008001eb001b
:100cd00002003700817178008301e800828f5100a3
:100ce000fcff3a00000006000400fa00e0bf9f008d
:100cf000e4815700812978000002eb000f003700e3
:100d00006fb89700904078007fb897001040780047
:100d10000402e80080cf5000040032008180fb0014
:100d20000080fb0000805000070037006fb897007c
:100d30000000e800e0bf9f009309e800820f520026
:100d4000efff3a000000eb000080fa000000060010
:100d50008001780000017800010037000201e800fe
:100d60001204e000fdff3a0031407800005978009d
:100d70000004e000fcff3a000300780000000600d9
:100d80008002780080017800010037008301e800cc
:100d90001304e000fdff3a000002eb00820f520056
:100da0000600320064c07800805978000402e80030
:100db0000004e00002003200f8ff37008049eb0039
:080dc0000500780000000600a8
:020000040000fa
:0200000401f009
:04000c00f9ff0000f8
:020000040000fa
:0200000401f009
:040010007bff000072
:020000040000fa
:0200000401f009
:040014007fff00006a
:020000040000fa
:0200000401f009
:04001c00dfff000002
:020000040000fa
:0200000401f009
:0400200000000000dc
:020000040000fa
:0200000401f009
:0400240000000000d8
:020000040000fa
:0200000401f009
:0400280000000000d4
:020000040000fa
:0200000401f009
:04002c0004000000cc
:020000040000fa
:1000080076b4000076b4000076b4000076b4000040
:1000180076b4000076b4000076b4000076b4000030
:1000280076b4000076b4000076b400006e300000ac
:10003800f25b000076b4000076b40000983000004f
:10004800c230000076b4000076b4000076b4000038
:1000580076b400008a830000365c000076b40000a5
:1000680076b40000c4ac000076b4000076b400009a
:1000780076b40000c683000076b4000076b40000b1
:100088007a5c000076b4000076b400000431000009
:100098002e31000076b4000076b4000076b400007b
:1000a80076b4000076b4000076b40000cc9b000063
:1000b800be5c000076b4000076b4000076b40000a0
:1000c80076b4000076b4000076b4000076b4000080
:1000d80076b4000076b40000025d000070310000c4
:1000e8009a31000076b4000084ad0000dc310000d5
:1000f8000632000076b4000076b4000076b4000042
:1001080076b40000f272000076b4000076b4000005
:1001180076b40000465d000076b4000076b40000b6
:1001280076b4000076b4000076b4000076b400001f
:100138008a5d0000ce5d000076b4000076b4000051
:1001480076b4000076b4000076b4000076b40000ff
:1001580076b4000076b4000076b4000076b40000ef
:1001680076b4000076b4000076b4000076b40000df
:1001780076b4000076b4000076b4000076b40000cf
:1001880076b4000076b4000076b4000076b40000bf
:1001980076b4000076b4000076b4000076b40000af
:1001a80076b4000076b4000076b4000076b400009f
:1001b80076b4000076b4000076b4000076b400008f
:1001c80076b4000076b4000076b4000076b400007f
:1001d80076b4000076b4000076b4000076b400006f
:1001e80076b4000076b4000076b4000076b400005f
:0801f80076b4000076b40000ab
:020000040000fa
:1002080076b4000076b4000076b4000076b400003e
:1002180076b4000076b4000076b4000076b400002e
:1002280076b4000076b4000076b400006e300000aa
:10023800f25b000076b4000076b40000983000004d
:10024800c230000076b4000076b4000076b4000036
:1002580076b400008a830000365c000076b40000a3
:1002680076b40000c4ac000076b4000076b4000098
:1002780076b40000c683000076b4000076b40000af
:100288007a5c000076b4000076b400000431000007
:100298002e31000076b4000076b4000076b4000079
:1002a80076b4000076b4000076b40000cc9b000061
:1002b800be5c000076b4000076b4000076b400009e
:1002c80076b4000076b4000076b4000076b400007e
:1002d80076b4000076b40000025d000070310000c2
:1002e8009a31000076b4000084ad0000dc310000d3
:1002f8000632000076b4000076b4000076b4000040
:1003080076b40000f272000076b4000076b4000003
:1003180076b40000465d000076b4000076b40000b4
:1003280076b4000076b4000076b4000076b400001d
:100338008a5d0000ce5d000076b4000076b400004f
:1003480076b4000076b4000076b4000076b40000fd
:1003580076b4000076b4000076b4000076b40000ed
:1003680076b4000076b4000076b4000076b40000dd
:1003780076b4000076b4000076b4000076b40000cd
:020000040002f8
:020000040000fa
:100dc8005f73000079730000746500006d2e0000e9
:100dd80072650000626f00006f740000005200002e
:100de800656200006f6f00007420000074680000e6
:100df800652000006d690000637200006f630000e9
:100e08006f6e0000747200006f6c00006c6500006b
:100e1800720000005f7300007973000074650000c1
:100e28006d2e00007365000074740000696e000088
:100e3800677300002e720000656100006400000006
:100e4800526500006164000020610000207300000a
:100e580065740000746900006e670000006100009e
:100e6800646400007265000073730000007600007f
:100e7800616c0000756500000041000064640000ba
:100e88007265000073730000206f00007574000025
:100e9800206f000066200000736500007474000075
:100ea800696e000067730000005f0000737900003e
:100eb80073740000656d00002e73000065740000f7
:100ec800746900006e670000732e000077720000de
:100ed8006974000065000000577200006974000022
:100ee8006520000061200000736500007474000034
:100ef800696e0000670000005f73000079730000ee
:100f0800746500006d2e00007365000074740000a5
:100f1800696e0000677300002e6600006c610000b7
:100f280073680000005700007269000074650000d3
:100f380020740000686500002073000065740000dc
:100f4800746900006e67000073200000696e00007d
:100f5800746f0000206600006c6100007368000078
:100f6800005300006c65000065700000206d0000f3
:100f78006f640000652000006e6f000074200000a0
:100f880073750000707000006f72000074650000d7
:100f980064000000466f00006f740000320000001b
:100fa8005f6900006400000065760000656e00005f
:100fb800742e0000736f00007572000063650000f6
:100fc80000650000766500006e7400002e61000068
:100fd80072670000730000005f660000777600000b
:100fe80065720000736900006f6e0000006d0000fc
:100ff800302e000070690000642e00005f70000051
:1010080065720000696f0000640000006d30000028
:101018002e700000696400002e5f00006b700000f5
:101028005f690000006d0000302e0000706900004c
:10103800642e00005f6b0000695f0000690000001b
:101048006d3000002e700000696400002e5f000003
:1010580073630000616c0000657200005f69000046
:10106800006d0000302e0000707700006d00000059
:101078006d3000002e700000696400002e5f0000d3
:101088007072000065730000636100006c65000009
:10109800725f0000730000006d3000002e700000c9
:1010a800696400002e5f0000637500007272000022
:1010b800656e0000745f00007370000065650000d5
:1010c800645f0000707500006c730000650000002c
:1010d8006d3000002e700000696400002e5f000073
:1010e8007461000072670000657400005f7300009f
:1010f80070650000656400005f700000756c00009a
:1011080073650000006d0000302e0000706900005b
:10111800642e00005f6b0000705f00007300000029
:101128006d3000002e700000696400002e5f000022
:101138006b6900005f730000006d0000302e000036
:1011480070690000642e00005f6b0000645f00009f
:10115800730000006d3000002e700000696400000c
:101168002e5f000073630000616c00006572000070
:101178005f730000006d0000302e000070690000f1
:10118800642e00005f730000706500006564000055
:101198005f6d0000617800005f700000756c0000f2
:1011a80073650000006d0000302e000070690000bb
:1011b800642e00005f6b0000705f0000700000008c
:1011c8006d3000002e700000696400002e5f000082
:1011d8006b6400005f700000006d0000302e00009e
:1011e80070690000642e00005f73000063610000f6
:1011f8006c650000725f0000700000006d30000038
:101208002e700000696400002e5f00007461000009
:1012180072670000657400005f7000006f73000063
:1012280069740000696f00006e5f0000707500004f
:101238006c730000650000006d3000002e70000027
:10124800696400002e63000075720000726500007a
:101258006e7400005f6d000061780000006d000092
:10126800302e000070690000642e000073700000ca
:1012780065650000645f00006d6100007800000093
:101288006d3000002e700000696400002e5f0000c1
:101298006e6f00006d6900006e6100006c5f0000f9
:1012a8006375000072720000656e00007400000033
:1012b8006d3000002e700000696400002e5f000091
:1012c800746900006d6500005f63000073740000be
:1012d800006d0000302e000070690000642e0000d0
:1012e8005f6f00007665000072720000696400009c
:1012f800650000006d3000002e7000006964000079
:101308002e6500006e610000626c00006500000040
:101318006d3000002e6500006e6300002e5f000037
:10132800707500006c730000650000006d300000ef
:101338002e63000075720000726500006e74000074
:10134800006d0000302e000073700000656500001d
:10135800640000006d3000002e7000006f73000004
:1013680069740000696f00006e0000006d300000b5
:101378002e700000696400002e7400006172000085
:1013880067650000745f00006375000072720000fa
:10139800656e0000740000006d3000002e700000c3
:1013a800696400002e740000617200006765000027
:1013b800745f000073700000656500006400000041
:1013c8006d3000002e700000696400002e7400006b
:1013d8006172000067650000745f0000706f0000b4
:1013e80073690000746900006f6e0000006d0000f2
:1013f800302e00005f720000617700005f6300001c
:1014080075720000726500006e740000006d0000c7
:10141800312e000070690000642e00005f7000002b
:1014280065720000696f0000640000006d31000003
:101438002e700000696400002e5f00006b700000d1
:101448005f690000006d0000312e00007069000027
:10145800642e00005f6b0000695f000069000000f7
:101468006d3100002e700000696400002e5f0000de
:1014780073630000616c0000657200005f69000022
:10148800006d0000312e0000707700006d00000034
:101498006d3100002e700000696400002e5f0000ae
:1014a8007072000065730000636100006c650000e5
:1014b800725f0000730000006d3100002e700000a4
:1014c800696400002e5f00006375000072720000fe
:1014d800656e0000745f00007370000065650000b1
:1014e800645f0000707500006c7300006500000008
:1014f8006d3100002e700000696400002e5f00004e
:101508007461000072670000657400005f7300007a
:1015180070650000656400005f700000756c000075
:1015280073650000006d0000312e00007069000036
:10153800642e00005f6b0000705f00007300000005
:101548006d3100002e700000696400002e5f0000fd
:101558006b6900005f730000006d0000312e000011
:1015680070690000642e00005f6b0000645f00007b
:10157800730000006d3100002e70000069640000e7
:101588002e5f000073630000616c0000657200004c
:101598005f730000006d0000312e000070690000cc
:1015a800642e00005f730000706500006564000031
:1015b8005f6d0000617800005f700000756c0000ce
:1015c80073650000006d0000312e00007069000096
:1015d800642e00005f6b0000705f00007000000068
:1015e8006d3100002e700000696400002e5f00005d
:1015f8006b6400005f700000006d0000312e000079
:1016080070690000642e00005f73000063610000d1
:101618006c650000725f0000700000006d31000012
:101628002e700000696400002e5f000074610000e5
:1016380072670000657400005f7000006f7300003f
:1016480069740000696f00006e5f0000707500002b
:101658006c730000650000006d3100002e70000002
:10166800696400002e630000757200007265000056
:101678006e7400005f6d000061780000006d00006e
:10168800312e000070690000642e000073700000a5
:1016980065650000645f00006d610000780000006f
:1016a8006d3100002e700000696400002e5f00009c
:1016b8006e6f00006d6900006e6100006c5f0000d5
:1016c8006375000072720000656e0000740000000f
:1016d8006d3100002e700000696400002e5f00006c
:1016e800746900006d6500005f630000737400009a
:1016f800006d0000312e000070690000642e0000ab
:101708005f6f000076650000727200006964000077
:10171800650000006d3100002e7000006964000053
:101728002e6500006e610000626c0000650000001c
:101738006d3100002e6500006e6300002e5f000012
:10174800707500006c730000650000006d310000ca
:101758002e63000075720000726500006e74000050
:10176800006d0000312e00007370000065650000f8
:10177800640000006d3100002e7000006f730000df
:1017880069740000696f00006e0000006d31000090
:101798002e700000696400002e7400006172000061
:1017a80067650000745f00006375000072720000d6
:1017b800656e0000740000006d3100002e7000009e
:1017c800696400002e740000617200006765000003
:1017d800745f00007370000065650000640000001d
:1017e8006d3100002e700000696400002e74000046
:1017f8006172000067650000745f0000706f000090
:1018080073690000746900006f6e0000006d0000cd
:10181800312e00005f720000617700005f630000f6
:1018280075720000726500006e740000006d0000a3
:10183800322e000070690000642e00005f70000006
:1018480065720000696f0000640000006d320000de
:101858002e700000696400002e5f00006b700000ad
:101868005f690000006d0000322e00007069000002
:10187800642e00005f6b0000695f000069000000d3
:101888006d3200002e700000696400002e5f0000b9
:1018980073630000616c0000657200005f690000fe
:1018a800006d0000322e0000707700006d0000000f
:1018b8006d3200002e700000696400002e5f000089
:1018c8007072000065730000636100006c650000c1
:1018d800725f0000730000006d3200002e7000007f
:1018e800696400002e5f00006375000072720000da
:1018f800656e0000745f000073700000656500008d
:10190800645f0000707500006c73000065000000e3
:101918006d3200002e700000696400002e5f000028
:101928007461000072670000657400005f73000056
:1019380070650000656400005f700000756c000051
:1019480073650000006d0000322e00007069000011
:10195800642e00005f6b0000705f000073000000e1
:101968006d3200002e700000696400002e5f0000d8
:101978006b6900005f730000006d0000322e0000ec
:1019880070690000642e00005f6b0000645f000057
:10199800730000006d3200002e70000069640000c2
:1019a8002e5f000073630000616c00006572000028
:1019b8005f730000006d0000322e000070690000a7
:1019c800642e00005f73000070650000656400000d
:1019d8005f6d0000617800005f700000756c0000aa
:1019e80073650000006d0000322e00007069000071
:1019f800642e00005f6b0000705f00007000000044
:101a08006d3200002e700000696400002e5f000037
:101a18006b6400005f700000006d0000322e000053
:101a280070690000642e00005f73000063610000ad
:101a38006c650000725f0000700000006d320000ed
:101a48002e700000696400002e5f000074610000c1
:101a580072670000657400005f7000006f7300001b
:101a680069740000696f00006e5f00007075000007
:101a78006c730000650000006d3200002e700000dd
:101a8800696400002e630000757200007265000032
:101a98006e7400005f6d000061780000006d00004a
:101aa800322e000070690000642e00007370000080
:101ab80065650000645f00006d610000780000004b
:101ac8006d3200002e700000696400002e5f000077
:101ad8006e6f00006d6900006e6100006c5f0000b1
:101ae8006375000072720000656e000074000000eb
:101af8006d3200002e700000696400002e5f000047
:101b0800746900006d6500005f6300007374000075
:101b1800006d0000322e000070690000642e000085
:101b28005f6f000076650000727200006964000053
:101b3800650000006d3200002e700000696400002e
:101b48002e6500006e610000626c000065000000f8
:101b58006d3200002e6500006e6300002e5f0000ed
:101b6800707500006c730000650000006d320000a5
:101b78002e63000075720000726500006e7400002c
:101b8800006d0000322e00007370000065650000d3
:101b9800640000006d3200002e7000006f730000ba
:101ba80069740000696f00006e0000006d3200006b
:101bb8002e700000696400002e740000617200003d
:101bc80067650000745f00006375000072720000b2
:101bd800656e0000740000006d3200002e70000079
:101be800696400002e7400006172000067650000df
:101bf800745f0000737000006565000064000000f9
:101c08006d3200002e700000696400002e74000020
:101c18006172000067650000745f0000706f00006b
:101c280073690000746900006f6e0000006d0000a9
:101c3800322e00005f720000617700005f630000d1
:101c480075720000726500006e740000006c000080
:101c5800656400000075000073650000725f000095
:101c68007377000069740000636800000062000078
:101c78006174000074650000727900002e6900002c
:101c88006400000062610000747400006572000066
:101c9800792e0000766f00006c7400006167000008
:101ca8006500000062610000747400006572000045
:101cb800792e0000746500006d70000065720000e8
:101cc8006174000075720000650000006861000022
:101cd8006c6c00005f64000000680000616c00002c
:101ce8006c5f000061000000697200002e61000056
:101cf8006d620000696100006e74000000690000f8
:101d0800722e000072650000666c000065630000ba
:101d18007465000064000000697200002e64000011
:101d2800656c00007461000000730000656e0000bf
:101d3800736f0000727300002e700000657200005f
:101d4800696f000064000000616300006300000028
:101d5800ce87000001000000d487000001000000c9
:101d6800d887000020000000e5870000020000007e
:101d7800f087000001000000fb8700000100000060
:101d88000a88000001000000178800000100000018
:101d980024880000010000003588000001000000d0
:101da8003c8800000100000050880000010000008d
:101db8006c88000001000000878800000100000016
:101dc8009488000001000000a188000001000000c4
:101dd800ae88000001000000bf880000010000007c
:101de800d788000001000000e4880000010000001e
:101df800f1880000020000000289000001000000d4
:101e08002089000001000000338900000100000063
:101e180044890000010000005c8900000100000006
:101e28006d890000010000007e89000002000000aa
:101e38008c890000010000009a8900000100000060
:101e4800a589000001000000ae8900000100000023
:101e5800ba89000001000000d089000001000000dc
:101e6800e489000001000000fb8900000100000077
:101e78000b8a0000010000001a8a0000010000001f
:101e8800278a000001000000348a000001000000d9
:101e9800458a0000010000004c8a00000100000093
:101ea800608a0000010000007c8a00000100000038
:101eb800978a000001000000a48a000001000000c9
:101ec800b18a000001000000be8a00000100000085
:101ed800cf8a000001000000e78a0000010000002e
:101ee800f48a000001000000018b000002000000dd
:101ef800128b000001000000308b00000100000080
:101f0800438b000001000000548b0000010000001a
:101f18006c8b0000010000007d8b000001000000b8
:101f28008e8b0000020000009c8b00000100000066
:101f3800aa8b000001000000b58b00000100000022
:101f4800be8b000001000000ca8b000001000000e9
:101f5800e08b000001000000f48b0000010000008d
:101f68000b8c0000010000001b8c00000100000029
:101f78002a8c000001000000378c000001000000de
:101f8800448c000001000000558c00000100000096
:101f98005c8c000001000000708c00000100000053
:101fa8008c8c000001000000a78c000001000000dc
:101fb800b48c000001000000c18c0000010000008a
:101fc800ce8c000001000000df8c00000100000042
:101fd800f78c000001000000048d000001000000e3
:101fe800118d000002000000228d00000100000099
:101ff800408d000001000000538d0000010000002a
:10200800648d0000010000007c8d000001000000cc
:102018008d8d0000010000009e8d00000200000070
:10202800ac8d000001000000ba8d00000100000026
:10203800c58d000001000000ce8d000001000000e9
:10204800da8d000001000000f08d000001000000a2
:10205800048e0000010000001b8e00000400000038
:102068002b8e0000010000002f8e000004000000ed
:102078003b8e000001000000468e000001000000b9
:10208800568e0000030000006a8e00000300000066
:10209800718e000003000000788e0000030000002d
:1020a800838e000003000000908e000001000000f5
:1020b800998e000003000000a88e000000000000b8
:1020c800000000006d3000005f6d00006f740000bc
:1020d8006f720000004d0000302000006d6f00009e
:1020e800746f000072200000746900006d650000c4
:1020f800720000006d3000005f6f00007600000085
:102108004d300000206d00006f7400006f720000f9
:10211800206f000076650000726300007572000091
:10212800726500006e740000006d0000305f0000f2
:102138006f7600005f6300006c650000617200004c
:1021480065640000004d0000302000006d6f000045
:10215800746f0000722000006f7600006572000046
:102168006375000072720000656e00007420000044
:10217800636c000065610000726500006400000087
:102188006d3100005f6d00006f7400006f72000019
:10219800004d0000312000006d6f0000746f0000da
:1021a80072200000746900006d6500007200000074
:1021b8006d3100005f6f0000760000004d310000b7
:1021c800206d00006f7400006f720000206f000027
:1021d8007665000072630000757200007265000089
:1021e8006e740000006d0000315f00006f76000023
:1021f8005f6300006c6500006172000065640000a8
:10220800004d0000312000006d6f0000746f000069
:10221800722000006f760000657200006375000090
:1022280072720000656e000074200000636c00008c
:102238006561000072650000640000006d320000f6
:102248005f6d00006f7400006f720000004d0000a9
:10225800322000006d6f0000746f000072200000d3
:10226800746900006d650000720000006d320000a6
:102278005f6f0000760000004d320000206d000006
:102288006f7400006f720000206f00007665000018
:102298007263000075720000726500006e740000c1
:1022a800006d0000325f00006f7600005f63000081
:1022b8006c6500006172000065640000004d00005c
:1022c800322000006d6f0000746f00007220000063
:1022d8006f7600006572000063750000727200007e
:1022e800656e000074200000636c000065610000ea
:1022f800726500006400000041630000636500002f
:102308006c650000726f00006d6500007465000068
:1023180072200000757000006461000074650000a0
:1023280064000000736500006e7300006f720000a7
:10233800730000004e65000077200000616e000009
:10234800616c00006f67000020730000656e00007c
:10235800736f00007273000020760000616c00004b
:102368007565000000000000669000006f90000096
:102378007e9000008490000099900000a7900000d3
:10238800c4900000cd900000dc900000e2900000b6
:10239800f790000005910000229100002b910000a9
:1023a8003a910000409100005591000063910000af
:1023b800a88e000080910000969100009e91000078
:1023c800000000000000000045720000726f00006d
:1023d800723a0000206d0000696e0000203d000088
:1023e8003d200000307800004646000046460000c8
:1023f8004646000046460000202100000045000037
:10240800727200006f7200003a200000556e0000e2
:10241800616200006c650000207400006f200000fd
:10242800666c00006173000068200000627900009b
:1024380074650000636f00006465000020280000d8
:1024480031290000202100000045000072720000c0
:102458006f7200003a200000556e000061620000b3
:102468006c650000207400006f200000666c00009e
:102478006173000068200000627900007465000044
:10248800636f000064650000202800003229000006
:102498002021000000450000727200006f720000e9
:1024a8003a200000556e0000616200006c65000073
:1024b800207400006f200000666c0000617300004b
:1024c800682000006279000074650000636f0000f6
:1024d8006465000020280000332900002021000046
:1024e800004600006c61000073680000696e00001f
:1024f800672000004f4b000000000000de000000d5
:10250800ad000000ca000000fe000000be00000090
:10251800ef00000004000000020000004d6f000002
:102528006c6f00006c65000020650000727200008e
:102538006f72000020300000780000002069000061
:102548006e200000666900006c6500003a200000fb
:10255800003a0000000000008c020000df020000ca
:102568003003000080030000d103000022040000b3
:1025780073040000c204000014050000b305000045
:1025880054060000f10600008f0700002d08000027
:10259800ca08000063090000fc090000340b0000b1
:1025a8005c0c0000820d0000a40e0000bd0f0000ae
:1025b800d3100000e2110000e7120000ef14000041
:1025c800cc16000092180000401a0000d61b00002c
:1025d800531d0000b51e00000b20000079220000ea
:1025e8008d2400006f2600001428000090290000a8
:1025f800e02a0000112c0000252d0000052f000006
:1026080089300000d3310000ec320000dd330000d7
:10261800ae340000673500000d360000203700009a
:10262800fb370000b23800004a390000cc390000fe
:102638003b3a00009b3a0000f33a0000833b00005d
:10264800f43b0000513c00009f3c0000e13c0000ce
:102658001a3d00004b3d0000783d0000c03d0000e1
:10266800f93d0000283e00004f3e0000703e00008b
:102678008d3e0000a53e0000bc3e0000e03e00008c
:10268800fd3e0000143f0000283f0000383f0000d6
:10269800473f0000533f00005e3f0000703f0000ce
:1026a8007f3f00008a3f0000943f00009c3f0000ed
:1026b800a43f0000aa3f0000af3f0000b83f000061
:1026c800c03f0000c53f0000cb3f0000ce3f0000e8
:1026d800d23f0000d53f0000d83f0000dc3f00009b
:1026e800e03f0000e33f0000e53f0000e83f000056
:1026f800e93f0000eb3f0000ec3f0000ee3f000028
:10270800f13f0000f13f0000f33f0000f43f0000fc
:10271800f53f0000f53f0000f73f0000f73f0000dd
:10272800f93f0000f83f0000fa3f0000fa3f0000c0
:10273800fa3f0000fb3f0000fb3f0000fc3f0000a9
:10274800fc3f0000fc3f0000fe3f0000fd3f000092
:10275800fd3f0000fd3f0000fe3f0000fe3f00007f
:10276800fe3f0000fe3f0000fe3f0000fe3f00006d
:1027780000400000ff3f0000ff3f0000ff3f000057
:10278800ff3f0000ff3f0000ff3f0000ff3f000049
:10279800ff3f0000ff3f0000ff3f0000ff3f000039
:1027a8000040000000400000004000000040000021
:1027b8000040000000400000004000000040000011
:1027c8000040000000400000004000000040000001
:1027d8000040000000400000004000000000000031
:1027e8009301000024030000b7040000480600001d
:1027f800da0700006b090000fc0a00008c0c0000de
:102808001c0e0000ab0f00003b110000c8120000b6
:1028180056140000e31500006e170000f9180000b8
:10282800831a00000c1c0000941d00001a1f0000f1
:10283800a020000024220000a72300002925000072
:10284800a826000027280000a4290000202b00004b
:10285800992c0000122e0000872f0000fc30000089
:102868006f320000df3300004e350000ba3600003a
:10287800253800008d390000f33a0000573c00006d
:10288800b93d0000173f000074400000ce41000031
:10289800264300007b440000cd4500001d47000092
:1028a8006a480000b4490000fc4a0000404c00009f
:1028b800824d0000c04e0000fc4f00003451000063
:1028c800695200009b530000ca540000f6550000ee
:1028d8001e5700004358000064590000835a000046
:1028e8009d5b0000b45c0000c85d0000d75e00007e
:1028f800e45f0000ec600000f1610000f26200009b
:10290800ef630000e9640000de650000d0660000a7
:10291800bd670000a76800008c6900006e6a0000af
:102928004b6b0000246c0000f96c0000ca6d0000bd
:10293800976e00005f6f000023700000e3700000d6
:102948009e7100005572000008730000b673000005
:102958006074000005750000a5750000427600004f
:10296800d97600006c770000fb77000084780000bf
:10297800097900008a790000067a00007d7a000053
:10298800ef7a00005d7b0000c67b00002a7c000017
:10299800897c0000e47c0000397d00008a7d00000d
:1029a800d77d00001d7e0000607e00009d7e000037
:1029b800d67e0000097f0000397f0000627f00009a
:1029c800877f0000a77f0000c27f0000d87f00003b
:1029d800ea7f0000f67f0000fe7f0000ff7f000016
:1029e8006d610000746800002e6300006f700000c5
:1029f80079000000636f00007069000065730000d3
:102a08002073000072630000207400006f20000033
:102a18006465000073740000206500006c650000a8
:102a28006d6500006e7400002062000079200000cf
:102a3800656c0000656d0000656e000074000000a4
:102a48006465000073740000007300007263000086
:102a580000000000f4940000fe940000ffff000056
:102a680024950000ffff00002995000000000000e9
:102a7800000000006d610000746800002e66000010
:102a8800696c00006c000000666900006c6c000056
:102a98007320000064650000737400002077000054
:102aa8006974000068200000636f00006e73000006
:102ab800746100006e74000020760000616c0000f4
:102ac8007565000000760000616c00007565000007
:102ad800000000003e95000048950000ffff000040
:102ae8002495000001000000679500000000000028
:102af800000000006d610000746800002e61000095
:102b08006464000073630000616c0000617200007f
:102b1800006100006464000020730000636100002d
:102b28006c61000072200000746f000020650000d6
:102b38006163000068200000656c0000656d00009e
:102b4800656e0000742000006f66000020730000ae
:102b580072630000206100006e64000020730000b2
:102b6800746f000072650000207200006573000039
:102b7800756c000074200000746f00002064000071
:102b8800657300007400000073630000616c00004e
:102b980061720000000000007e9500008d95000025
:102ba800ffff000024950000ffff000029950000aa
:102bb80001000000c89500000000000000000000af
:102bc8006d610000746800002e61000064640000fc
:102bd800006100006464000073200000737200004c
:102be80063310000206100006e6400002073000063
:102bf8007263000032200000746f0000206400003f
:102c080065730000742c0000206500006c650000ee
:102c18006d6500006e7400002062000079200000dd
:102c2800656c0000656d0000656e000074000000b2
:102c380073720000633100000073000072630000cb
:102c480032000000e4950000ed950000ffff000051
:102c580024950000ffff00001c960000ffff000005
:102c68002196000000000000000000006d610000d7
:102c7800746800002e730000756200000073000085
:102c880075620000737400007261000063740000d4
:102c98007320000073720000633200002066000099
:102ca800726f00006d200000737200006331000035
:102cb800207400006f200000646500007374000039
:102cc8002c200000656c0000656d0000656e00003a
:102cd8007420000062790000206500006c65000027
:102ce8006d6500006e740000000000003a96000058
:102cf80043960000ffff000024950000ffff00003e
:102d08001c960000ffff0000219600000000000054
:102d1800000000006d610000746800002e6d000066
:102d2800756c0000006d0000756c0000746900008f
:102d3800706c000069650000732000007372000069
:102d480063310000206100006e6400002073000001
:102d58007263000032200000746f000020640000dd
:102d680065730000742c0000206500006c6500008d
:102d78006d6500006e74000020620000792000007c
:102d8800656c0000656d0000656e00007400000051
:102d98008e96000097960000ffff00002495000023
:102da800ffff00001c960000ffff000021960000b6
:102db80000000000000000006d6100007468000061
:102dc8002e64000069760000006400006976000047
:102dd80069640000657300002073000072630000de
:102de8003120000062790000207300007263000047
:102df80032200000746f000020640000657300003a
:102e0800742c0000206500006c6500006d650000f2
:102e18006e7400002062000079200000656c0000dc
:102e2800656d0000656e000074000000e09600000b
:102e3800e9960000ffff000024950000ffff000056
:102e48001c960000ffff0000219600000000000013
:102e5800000000006d610000746800002e6d000025
:102e6800696e000000770000726900007465000058
:102e78007320000074680000652000006d69000080
:102e88006e6900006d7500006d2000006f6600001f
:102e9800207300007263000031200000616e0000a2
:102ea8006420000073720000633200002074000088
:102eb8006f20000064650000737400002c2000007f
:102ec800656c0000656d0000656e000074200000f0
:102ed80062790000206500006c6500006d650000e7
:102ee8006e740000000000002e9700003797000065
:102ef800ffff000024950000ffff00001c96000063
:102f0800ffff000021960000000000000000000004
:102f18006d610000746800002e6d0000617800008b
:102f280000770000726900007465000073200000db
:102f380074680000652000006d6100007869000079
:102f48006d7500006d2000006f66000020730000a2
:102f58007263000031200000616e000064200000f0
:102f68007372000063320000207400006f200000bc
:102f780064650000737400002c200000656c00007c
:102f8800656d0000656e0000742000006279000025
:102f9800206500006c6500006d6500006e7400001f
:102fa800000000008c97000095970000ffff0000cc
:102fb80024950000ffff00001c960000ffff0000a2
:102fc8002196000000000000000000006d61000074
:102fd800746800002e6400006f7400000077000021
:102fe80072690000746500007320000074680000b6
:102ff80065200000646f00007420000070720000fb
:103008006f64000075630000742000006f660000a4
:10301800207300007263000031200000616e000020
:103028006420000073720000633200002074000006
:103038006f20000064650000737400002c200000fd
:1030480061660000746500007220000061200000c5
:10305800736800006966000074000000736800006f
:103068006966000074000000ea970000f39700000a
:103078000100000024950000ffff00001c960000de
:10308800ffff0000219600000100000032980000b8
:1030980000000000000000006d610000746800007e
:1030a8002e73000074610000740000007065000059
:1030b800726600006f7200006d73000020730000dc
:1030c8007461000074690000737400006963000093
:1030d800732000006f6e0000207300007263000010
:1030e800006d0000696e0000006d0000617800004e
:1030f800006d0000656100006e000000509800003f
:103108005a980000ffff0000299500000100000008
:103118007598000001000000799800000100000087
:103128007d98000000000000000000006d610000b4
:10313800746800002e6d0000756c00006469000062
:103148007600000070650000726600006f72000073
:103158006d73000020640000657300007420000097
:103168003d200000286100002a620000292f00008d
:1031780063200000696e0000203300003220000048
:103188006269000074730000206500006c6500002f
:103198006d6500006e740000206200007920000058
:1031a800656c0000656d0000656e0000740000002d
:1031b8006100000062000000630000009a980000af
:1031c800a6980000ffff000024950000ffff000004
:1031d800dc980000ffff0000de980000ffff000001
:1031e800e098000000000000000000006d61000091
:1031f800746800002e610000746100006e320000e7
:103208000070000065720000666f0000726d0000bb
:10321800732000006465000073740000203d000006
:1032280020610000746100006e32000028790000ff
:103238002c78000029200000656c0000656d0000f6
:10324800656e0000742000006279000020650000af
:103258006c6500006d6500006e7400000079000068
:103268000078000000000000fa98000005990000ae
:10327800ffff000024950000ffff000033990000c5
:10328800ffff00003599000000000000000000006a
:103298006d610000746800002e730000696e000004
:1032a8000070000065720000666f0000726d00001b
:1032b800732000006465000073740000203d000066
:1032c80020730000696e00002878000029200000a3
:1032d800656c0000656d0000656e000074200000dc
:1032e80062790000206500006c6500006d650000d3
:1032f8006e740000000000004c9900005599000011
:10330800ffff000024950000ffff00003599000032
:1033180000000000000000006d61000074680000fb
:103328002e6300006f7300000070000065720000db
:10333800666f0000726d0000732000006465000075
:1033480073740000203d0000206300006f730000cc
:103358002878000029200000656c0000656d0000d9
:10336800656e00007420000062790000206500008e
:103378006c6500006d6500006e74000000000000c0
:103388009099000099990000ffff00002495000023
:10339800ffff000035990000000000000000000059
:1033a8006d610000746800002e7200006f740000e8
:1033b80032000000726f0000746100007465000044
:1033c80073200000762000006f6600002061000076
:1033d8006e6700006c65000020610000207400002a
:1033e8006f20000064650000737400000076000020
:1033f80000000000d4990000de99000002000000df
:103408002495000002000000fb9900000100000064
:10341800dc98000000000000000000006d61000062
:10342800746800002e7300007172000074000000c0
:1034380070650000726600006f7200006d73000016
:103448002064000065730000742000003d20000027
:1034580073710000727400002878000029200000b1
:10346800656c0000656d0000656e0000742000004a
:1034780062790000206500006c6500006d65000041
:103488006e74000000000000129a00001c9a0000f0
:10349800ffff000024950000ffff000035990000a1
:1034a80000000000000000006d610000746800006a
:1034b8002e6e00007a73000065710000007700002e
:1034c8007269000074650000207400006f2000001d
:1034d80064650000737400002074000068650000d3
:1034e800206d000069640000646c00006520000025
:1034f800696e000064650000782000006f660000b7
:103508002074000068650000206c000061720000f3
:103518006765000073740000207300006571000087
:10352800756500006e630000652000006f6600008e
:10353800206e00006f6e00002d7a0000657200009a
:103548006f200000656c0000656d0000656e00006e
:103558007473000020660000726f00006d20000088
:1035680073720000632c0000202d00003120000041
:1035780069660000206e00006f740000206600007d
:103588006f7500006e640000206f0000722000005c
:1035980069660000207300006d6100006c6c00001b
:1035a8006572000020740000686100006e20000051
:1035b8006d6900006e4c0000656e000067740000c5
:1035c800680000006d6900006e4c0000656e000028
:1035d8006774000068000000589a0000639a0000b1
:1035e8000100000024950000ffff0000299500005d
:1035f80001000000e69a0000000000000000000042
:103608005f73000079730000746500006d2e000080
:10361800747500006e6e0000696e0000672e000071
:103628006f73000063740000756e000000540000a2
:10363800756e0000652000007468000065200000b9
:103648006f73000063740000756e00002072000044
:10365800656700006973000074650000720000006f
:10366800766100006c75000065000000566100007e
:103678006c750000652000006f7500007420000064
:103688006f66000020720000616e00006765000030
:1036980020280000302e00002e36000033290000bc
:1036a80000610000636300002e7300006574000071
:1036b8005f6d00006f640000650000005365000046
:1036c8007420000074680000652000006163000039
:1036d800636500006c650000726f00006d65000096
:1036e80074650000722000006d6f000064650000c2
:1036f800006800007a00000067000000496e0000c2
:10370800766100006c69000064200000687a00009f
:10371800004900006e760000616c000069640000da
:1037280020670000006d00006f7400006f720000d9
:103738002e730000657400005f620000726500006f
:10374800616b00005f6d00006f64000065000000a1
:1037580053650000742000007468000065200000b4
:103768006d6f0000746f000072200000627200002c
:10377800656100006b2000006d6f0000646500004b
:1037880000300000203d0000206400006973000044
:10379800616200006c650000642c000020310000ac
:1037a800203d0000206500006e610000626c000092
:1037b8006564000000620000617400007465000028
:1037c800727900002e7500007064000061740000ba
:1037d800652e0000746500006d70000065720000c1
:1037e80061740000757200006500000055700000eb
:1037f80064610000746500002074000068650000c2
:103808002062000061740000746500007279000095
:1038180020740000656d0000706500007261000092
:103828007475000072650000207300007461000068
:103838007475000073000000626100007474000079
:1038480065720000792e0000757000006461000048
:10385800746500002e7600006f6c00007461000033
:103868006765000000550000706400006174000086
:103878006520000074680000652000006261000097
:10388800747400006572000079200000766f0000f3
:103898006c7400006167000065200000737400000c
:1038a800617400007573000000000000e803000068
:1038b800c100000098030000f401000001000000ae
:1038c800f4070000fa00000003000000fa070000f7
:1038d8006400000009000000fa0700000000000072
:1038e8000000000000000000e8030000c000000025
:1038f800b0050000f401000001000000f804000019
:10390800fa00000002000000fa070000640000004e
:1039180009000000f804000000000000000000009a
:10392800000000005a3a00005c6d00006f6c000057
:103938006f6c0000655c0000636100006e5c000055
:10394800636100006e2e0000630000005a3a000018
:103958005c6d00006f6c00006f6c0000655c00001f
:1039680069320000635c00002f69000032630000c8
:103978005f70000072690000762e00006800000089
:103988005a3a00005c6d00006f6c00006f6c00001c
:10399800655c000069320000635c00006d61000036
:1039a80073740000657200005f700000726f0000a1
:1039b800746f0000636f00006c2e0000630000004d
:1039c8005a3a00005c6d00006f6c00006f6c0000dc
:1039d800655c000069320000635c00002f6900002c
:1039e800326300005f70000072690000762e0000ec
:1039f800680000005a3a00005c6d00006f6c00001f
:103a08006f6c0000655c000069320000635c0000b8
:103a18006d61000073740000657200002e63000081
:103a2800000000005a3a00005c6d00006f6c000056
:103a38006f6c0000655c0000746900006d65000033
:103a4800725c0000746900006d650000722e000051
:103a580063000000010000000000000008000000f2
:103a6800000000004000000000000000000100000d
:103a7800000000005a3a00005c6d00006f6c000006
:103a88006f6c0000655c000069320000635c000038
:103a98002f690000326300005f7000007269000047
:103aa800762e0000680000005a3a00005c6d0000a5
:103ab8006f6c00006f6c0000655c0000666c0000b5
:103ac80061730000685c0000666c000061730000b0
:103ad800682e0000630000005a3a00005c6d000088
:103ae8006f6c00006f6c0000655c00006770000080
:103af800696f00005c670000706900006f2e0000ad
:103b0800630000005a3a00005c6d00006f6c000012
:103b18006f6c0000655c000061640000635c00007d
:103b280061640000632e0000630000005a3a000040
:103b38005c6d00006f6c00006f6c0000655c00003d
:103b4800646d0000615c0000646d0000612e00007f
:103b5800630000005a3a00005c6d00006f6c0000c2
:103b68006f6c0000655c0000707700006d5c000001
:0c3b7800707700006d2e0000630000005c
:020000040000fa
:103b84000400fa00000f7800800020009e0f10004f
:103b940003003c001e007800100798000400370062
:103ba4001e007800000040007100500010079800cb
:103bb4001e0090000080fa00000006000400fa00d5
:103bc400000f78000000eb00100798008000200030
:103bd4009e0f10000200340010002000100798000f
:103be4001e0090000080fa00000006000a00fa009f
:103bf400100798002207980033079800410798009f
:103c04001e0090000000e000030035001e0090003c
:103c1400ec0f5000060034000e80e80080017800ac
:103c240042102000410c200060d129001d4b0700e8
:103c34001e009000d2ff07004200dd008080e800f3
:103c4400c026210000804000100078006140600020
:103c54000004e00006003a000e80e80080017800cd
:103c640022102000810c200060d129000d4b070098
:103c74001e009000c2ff0700000f78001e007800ad
:103c84004200dd008080e800c02621000080400062
:103c94001010a0001e0078004200dd008080e800c3
:103ca400c026210080804000e0ff2f0091086000c2
:103cb4001e009000c1ff07000000e0000e0032006b
:103cc4001e00e8004200dd008080e800c0262100dc
:103cd40080804000e0ff2f00910860001e00780003
:103ce4004200dd008080e800c02621000080400002
:103cf4001020a000070037001e0078004200dd00fd
:103d04008080e800c026210080804000b0ff2f00a2
:103d1400910860001e009000ce0607001e0090006f
:103d2400ce0090002e019000be0190000800070014
:103d34001e0090008000eb00550307001e00900059
:103d44008000eb00f30307000080fa000000060087
:103d54003c00fa00889fbe008a9fbe00201798008e
:103d64003217980043179800511798006000b80064
:103d74006011b8006007980071079800020f98005e
:103d8400130f98006000b8006011b8002007980075
:103d940031079800420798005307980074004700c1
:103da400e1d2290007000900311878000001b100b0
:103db4000000eb00100798002e1090000000e000b7
:103dc400030035002e109000ec0f50000700340063
:103dd400400220000e0040008001780042102000c4
:103de4004110200060d12900ae4a07002e10900037
:103df40063ff07004200dd008080e800c026210048
:103e040000804000100078000000d1006140600094
:103e14000004e00007003a00400220000e004000c9
:103e240080017800321020008110200060d1290028
:103e34009c4a07005e1090000000e0001c00320065
:103e44005e109000e30f5000190032005e109000e5
:103e5400e60f5000160032005e109000e90f50008b
:103e6400130032005e109000e10f40001000320099
:103e74005e109000e20f40000d0032005e109000d2
:103e8400e30f40000a0032005e109000e40f40008f
:103e940007003200a00220000e00400080017800dc
:103ea40052102000d110200060d129007d4a070063
:103eb4005e1090000000e0001d0035003e109000f0
:103ec400ce1090000002be000003eb008003eb0064
:103ed4006407980075079800060f9800170f98005c
:103ee4000000eb00000f78000d0037006e0090001a
:103ef400fe0090000e0990009e099000a40020008e
:103f0400050020006033b80007f20700600798003e
:103f140071079800020f9800130f98001e0fe80015
:103f24005e109000690010009e0f5000efff3c00ef
:103f34002e109000e80f500093003c002e109000cb
:103f44008040eb00030707005e1090000000e000d3
:103f54006c003500224807000002be000003eb009d
:103f64008003eb006e009000fe0090000e099000ac
:103f74009e0990000020e10001a8e10002b0e100e8
:103f840003b8e10014003e00154807000002be001b
:103f94000400be000001eb008001eb0004f02f00e0
:103fa400f50f20006033b800dff107000203be0004
:103fb4000002be006e009000fe0090000e0990000a
:103fc4009e0990000020e10001a8e10002b0e10098
:103fd40003b8e100060031006c004700800178005e
:103fe40012102000f111200060d129002d4a070091
:103ff4000000eb0010079800030037001e0090003b
:104004000000e80010079800f54707000002be0012
:104014000400be000001eb008001eb001e029000d2
:10402400f40247004222dd00050242001404be00ef
:104034000802be000003eb008003eb00baf10700a6
:10404400f4ff2f00050020006033b800b6f107002c
:104054000203be000002be006e009000fe0090004d
:104064000e0990009e0990000020e10001a8e100e3
:1040740002b0e10003b8e100e0ff39006e009000f7
:10408400fe0090000e0990009e099000201f9800e9
:10409400311f9800421f9800531f9800d047070013
:1040a4000002be000400be000001eb008001eb0032
:1040b4001e029000f40247004222dd000502420085
:1040c4001404be000802be000003eb008003eb00f2
:1040d40095f107000203be000002be002e189000f6
:1040e400be1890004e199000de19900036f20700b9
:1040f400200798003107980042079800530798005a
:104104001a0037005e1090000000ea000000e90089
:10411400100798003e119000ce119000f0ff2f0080
:1041240001002000800f5100818f590007003600e4
:10413400600220000e004000800178001210200070
:104144009112200060d12900d64907003e1090004a
:10415400ce10900020079800310798000000eb0073
:10416400400798000000eb00500798002e109000c4
:104174009e009000c8060700ae0090002e1090002c
:104184004d0707008e0037002e10900011c0b300b9
:10419400700607005e1090000000e0007500350016
:1041a4008f4707000002be000003eb008003eb0012
:1041b4006e009000fe0090000e0990009e09900091
:1041c4000020e10001a8e10002b0e10003b8e10031
:1041d40015003e00824707000002be000400be0036
:1041e4000001eb008001eb0004f02f00f5ff2f002d
:1041f400f60f2000070020004bf107000203be0069
:104204000002be006e009000fe0090000e099000b7
:104214009e0990000020e10001a8e10002b0e10045
:1042240003b8e100060031006c004700800178000b
:1042340012102000c113200060d129009949070001
:104244000000eb0010079800030037001e009000e8
:104254000000e800100798006e009000fe00900037
:104264000e0990009e09900060179800711798003d
:10427400021f9800131f9800594707000003be004f
:104284001e009000f40047004200dd0001004000e1
:104294001002be008600780004007800000cb8000c
:1042a40005b0b900090178000001410007a0b90078
:1042b40000014100820478000802be000003eb0004
:1042c4008003eb006e109000fe1090000e19900019
:1042d4009e199000bcf107000203be000002be005c
:1042e400f0ff2f00f1ff2f006011b8000020e10063
:1042f40001a8e10002b0e10003b8e100d3ff3e00f1
:104304006e049000fe0490000e0d90009e0d90002f
:10431400334707000002be000003eb008003eb00fc
:104324000800be000a01be00a7f107000205be0096
:104334000004be001e009000f40047004200dd00af
:10434400010040001000be000002be000003eb00ac
:104354008003eb000800be000a01be009af10700ca
:1043640020079800310798004207980053079800e7
:104374000c0037005e1090000000ea000000e90025
:10438400100798003e109000ce109000200798006f
:10439400310798000000eb00400798000000eb0094
:1043a400500798002e1090009e0090003a060700d7
:1043b4002e019000be0190002e1090000907070006
:1043c4002e1090006011b800d10007004f05be0008
:1043d4004f04be000080fa00000006000400fa004a
:1043e400100798001e0090000000e0000300350054
:1043f4001e009000ec0f5000060034000e80e80010
:1044040080017800421020000116200060d12900ac
:10441400244907001e009000d9fd0700000f780012
:104424001e0078004200dd008080e800c0262100e4
:1044340080804000d0ff2f00910860001e007800ab
:104444004200dd008080e800c0262100008040009a
:104454001000a0001e009000d8fd07000000e0003e
:10446400060032001e00e8004200dd008080e80003
:10447400c0262100008040001000a0000080fa0047
:10448400000006000200fa00000f78001e00780009
:10449400bbfd07004200dd008080e800c02621004b
:1044a4000080400010007800614060000080fb0044
:1044b4000080fa00000006000200fa00000f7800f5
:1044c400110020001e007800090007000080fa0097
:1044d400000006000200fa00000f78008000eb00e4
:1044e4001e007800020007000080fa0000000600a9
:1044f4000800fa00000f7800110798001e007800e9
:104504000000e000030035001e007800ec0f5000ae
:10451400050034008e01780042102000011a2000aa
:1045240060d12900df4807001e00780094fd0700d1
:104534004200dd008080e800c026210000804000a9
:10454400100078000000d100614060000004e00029
:1045540005003a008e01780032102000411a200034
:1045640060d12900cf4807001e0078006101b9001e
:104574002207980033079800c000200001002000a3
:104584002e019000be019000800f5100818f5900d0
:1045940058003e002e009000be0090000060010014
:1045a4000c003700130037001a00370021003700d1
:1045b400280037002f003700360037003d00370051
:1045c400440037000b0037001a0037002900370079
:1045d400380037001e00900061406000c700dd0015
:1045e40005c1bf000074a1000140700005e1b700df
:1045f400450037001e00900061406000c700dd00e8
:1046040011c1bf000074a1000140700011e1b700a6
:104614003d0037001e00900061406000c700dd00cf
:1046240013c1bf000074a1000140700013e1b70082
:10463400350037001e00900061406000c700dd00b7
:104644001fc1bf000074a100014070001fe1b7004a
:104654002d0037001e00900061406000c700dd009f
:1046640021c1bf000074a1000140700021e1b70026
:10467400250037001e00900061406000c700dd0087
:104684002dc1bf000074a100014070002de1b700ee
:104694001d0037001e00900061406000c700dd006f
:1046a4002fc1bf000074a100014070002fe1b700ca
:1046b400150037001e00900061406000c700dd0057
:1046c4003bc1bf000074a100014070003be1b70092
:1046d4000d0037001e00900061406000c700dd003f
:1046e4003dc1bf000074a100014070003de1b7006e
:1046f400050037008e01780042102000711c200054
:1047040060d12900674807000080fa000000060015
:104714000a00fa00000f7800120798002307980097
:104724001e0078006101b900320798004307980021
:10473400c0002000010020003e019000ce01900046
:10474400800f5100818f59004b003e003e009000c5
:10475400ce009000006001000c0037000e0037000e
:10476400180037001a0037002400370026003700ed
:1047740030003700320037003c00370009003700b2
:104784001600370023003700300037001e00900069
:10479400000888003d0037001e00900030088800a3
:1047a4003a0037001e009000ae0090004008de0082
:1047b40001002000400888001e0090003008880096
:1047c400320037001e009000500888002f00370088
:1047d4001e009000a00888002c0037001e009000e6
:1047e400ae0090004008de0001002000b008880000
:1047f4001e009000a0088800240037001e009000ce
:10480400c0088800210037001e00900010098800ad
:104814001e0037001e009000ae0090004008de002d
:1048240001002000200988001e0090001009880063
:10483400160037001e00900030098800130037006e
:104844001e00900080098800100037001e009000b0
:10485400ae0090004008de000100200090098800ae
:104864001e00900080098800080037001e00900098
:10487400a0098800050037008e017800421020004e
:10488400f11e200060d12900064807000080fa00cc
:10489400000006000a00fa00000f78001e007800ed
:1048a4006101b9003207980043079800c000200056
:1048b400010020003e019000ce019000800f5100c5
:1048c400818f590069003e003e009000ce009000a8
:1048d400006001000c003700100037001f00370093
:1048e4002300370032003700360037004500370018
:1048f40049003700580037000d0037002100370009
:104904003500370049003700000880006101b80015
:1049140012079800230798005900370030088000d8
:104924006101b8001207980023079800540037006b
:10493400300880006101b8004008800001002000b8
:10494400c000dd00000020000001710081817100c1
:104954001207980023079800490037005008800088
:104964006101b8001207980023079800440037003b
:10497400a00880006101b80012079800230798007e
:104984003f003700a00880006101b800b008800033
:1049940001002000c000dd000000200000017100c3
:1049a40081817100120798002307980034003700b2
:1049b400c00880006101b80012079800230798001e
:1049c4002f003700100980006101b8001207980019
:1049d400230798002a003700100980006101b800fd
:1049e4002009800001002000c000dd00000020003c
:1049f400000171008181710012079800230798005b
:104a04001f003700300980006101b80012079800c8
:104a1400230798001a003700800980006101b8005c
:104a240012079800230798001500370080098000ba
:104a34006101b8009009800001002000c000dd0081
:104a440000002000000171008181710012079800ac
:104a5400230798000a003700a00980006101b8000c
:104a64001207980023079800050037008e0178008c
:104a7400421020007121200060d1290089470700dd
:104a84001e009000ae0090000080fa0000000600b6
:104a94000800fa00000f7800110798001e0090002b
:104aa4000000e000030035001e009000e10f5000fc
:104ab400060034000e80e8008001780062102000b7
:104ac400b122200060d12900764707001e0078003b
:104ad4006101b9002207980033079800c000200044
:104ae400010020002e019000be019000800f5100b3
:104af400818f590080003e002e009000be0090007f
:104b0400006001000c003700180037002300370054
:104b14002f0037003a0037004600370051003700b5
:104b24005d003700680037000f00370027003700aa
:104b34003f003700570037001e00900061406000be
:104b44006140600000414000411020009140780025
:104b5400d0cfb30000c060000240700004e1b70091
:104b640005a1a9006900370013a1a9001e00900047
:104b7400614060006140600000414000011120007c
:104b840091407800d0cfb30000c0600002407000b4
:104b940010e1b70011a1a9005c0037001e009000cd
:104ba400614060006140600000414000211120002c
:104bb40091407800d0cfb30000c060000240700084
:104bc40012e1b70013a1a9005000370021a1a900e8
:104bd4001e009000614060006140600000414000a0
:104be400e111200091407800d0cfb30000c06000f4
:104bf400024070001ee1b7001fa1a9004300370066
:104c04001e0090006140600061406000004140006f
:104c14000112200091407800d0cfb30000c06000a2
:104c24000240700020e1b70021a1a900370037003d
:104c34002fa1a9001e009000614060006140600047
:104c440000414000c112200091407800d0cfb30051
:104c540000c06000024070002ce1b7002da1a90043
:104c64002a0037001e00900061406000614060002f
:104c740000414000e112200091407800d0cfb30001
:104c840000c06000024070002ee1b7002fa1a9000f
:104c94001e0037003da1a9001e0090006140600085
:104ca4006140600000414000a11320009140780061
:104cb400d0cfb30000c06000024070003ae1b700fa
:104cc4003ba1a900110037001e0090006140600064
:104cd4006140600000414000c11320009140780011
:104ce400d0cfb30000c06000024070003ce1b700c8
:104cf4003da1a900050037008e0178004210200074
:104d04003126200060d12900e64607000080fa0021
:104d1400000006000800fa00000f78001107980050
:104d24001e0078006101b90022079800330798003b
:104d3400c0002000010020002e019000be01900060
:104d4400800f5100818f590073003e002e009000a7
:104d5400be009000006001000c0037001600370010
:104d6400200037002a003700340037003e003700a7
:104d740048003700520037005c0037000e0037004f
:104d840023003700380037004d0037001e00900024
:104d940061406000614060004601dd004110200078
:104da40091407800f0cbb30000c060000240700076
:104db40004e1b7005d0037001e0090006140600010
:104dc400614060004601dd0001112000914078003f
:104dd400f0cbb30000c060000240700010e1b700e7
:104de400520037001e009000614060006140600086
:104df4004601dd002111200091407800f0cbb30082
:104e040000c060000240700012e1b70047003700a4
:104e14001e00900061406000614060004601dd00ba
:104e2400e111200091407800f0cbb30000c0600095
:104e3400024070001ee1b7003c0037001e009000e5
:104e440061406000614060004601dd000112200005
:104e540091407800f0cbb30000c0600002407000c5
:104e640020e1b700310037001e009000614060006f
:104e7400614060004601dd00c112200091407800cd
:104e8400f0cbb30000c06000024070002ce1b7001a
:104e9400260037001e009000614060006140600001
:104ea4004601dd00e112200091407800f0cbb30010
:104eb40000c06000024070002ee1b7001b00370004
:104ec4001e00900061406000614060004601dd000a
:104ed400a113200091407800f0cbb30000c0600023
:104ee400024070003ae1b700100037001e00900045
:104ef40061406000614060004601dd00c113200094
:104f040091407800f0cbb30000c060000240700014
:104f14003ce1b700050037008e0178004210200004
:104f24006129200060d129005e4607000080fa0054
:104f3400000006000a00fa00000f7800110798002c
:104f4400220798001e0078000000e00003003500ee
:104f54001e007800ec0f5000050034008e0178002c
:104f640042102000a12a200060d129004d460700ec
:104f74002e0090000000e000030034002e0090009a
:104f8400e70f5000060034006400470080017800f9
:104f940022002000b12a200060d1290041460700e8
:104fa4001e007800f6fa0700c200dd00c0262100ca
:104fb400008040009e009000010878001e007800e8
:104fc4006101b9003207980043079800c00020002f
:104fd400010020003e019000ce019000800f51009e
:104fe400818f590081003e003e009000ce00900069
:104ff400006001000c00370018003700240037005f
:105004002f0037003b0037004600370052003700be
:105014005d003700690037001d0037003500370098
:105024004d003700650037002e0090006740600097
:10503400674060004401dd00510a2000914078007f
:10504400f0c8b30000c0600002407000a5e0b700e3
:105054008460a9009460a800690037002e009000c5
:1050640067406000674060004401dd00710a200071
:1050740091407800f0c8b30000c0600002407000a6
:10508400a7e0b70084e0a90094e0a8005c00370022
:105094002e0090006740600067416000810a200094
:1050a4009140780080cfb30000c0600002407000df
:1050b400a8e0b7008500a9009500a80050003700bb
:1050c4002e00900067406000674060004401dd00ee
:1050d400110b200091407800f0c8b30000c06000bc
:1050e40002407000b1e0b7008760a9009760a80093
:1050f400430037002e009000674060006741600065
:10510400210b20009140780080cfb30000c06000e4
:1051140002407000b2e0b7008780a9009780a80021
:10512400370037002e009000674060006740600041
:105134004401dd00b10b200091407800f0c8b300b9
:1051440000c0600002407000bbe0b70089e0a90025
:1051540099e0a8002a0037002e0090006740600004
:1051640067416000c10b20009140780080cfb300fc
:1051740000c0600002407000bce0b7008a00a900d3
:105184009a00a8001e0037002e00900067406000bf
:10519400674060004401dd00d10b2000914078009d
:1051a400f0c8b30000c0600002407000bde0b7006a
:1051b4008a60a9009a60a800110037002e009000b0
:1051c4006740600067416000e10b20009140780077
:1051d40080cfb30000c0600002407000bee0b700a2
:1051e4008a80a9009a80a800050037008e01780003
:1051f40042102000f12e200060d12900a9450700ab
:105204000080fa00000006000800fa001007980069
:105214001e0090006101b90022079800330798002e
:10522400c0002000010020002e019000be0190006b
:10523400800f5100818f59005b003e002e009000ca
:10524400be009000006001000c003700140037001d
:105254001b003700210037002900370031003700d8
:10526400380037003e00370046003700140037008e
:1052740023003700330037004200370094c0bf00da
:105284000080fb004300de00614060000080fb0002
:10529400000f78009460a8008460a80048003700dc
:1052a40094c0bf000080fb004700de000080fb00cc
:1052b400000f780094e0a80084e0a80040003700c4
:1052c40095c0bf00614060000080fb00000f7800c3
:1052d4009500a8008500a8003900370097c0bf00da
:1052e4000080fb004300de00614060000080fb00a2
:1052f400000f78009760a8008760a800300037008e
:1053040097c0bf000080fb004400de0061406000e5
:105314000080fb00000f78009780a8008780a80019
:105324002700370099c0bf000080fb004700de0063
:105334000080fb00000f780099e0a80089e0a80035
:105344001f0037009ac0bf00614060000080fb006e
:10535400000f78009a00a8008a00a80018003700ff
:105364009ac0bf000080fb004300de006140600083
:105374000080fb00000f78009a60a8008a60a800f3
:105384000f0037009ac0bf000080fb004400de001d
:10539400614060000080fb00000f78009a80a80044
:1053a4008a80a800060037000e80e800800178009b
:1053b400421020001134200060d129003945070033
:1053c4001e0078000080fa00000006000800fa00c1
:1053d400000f78001e0078006101b90022079800d0
:1053e40033079800c0002000010020002e01900027
:1053f400be019000800f5100818f590049003e008a
:105404002e009000be009000006001000c003700e8
:1054140012003700170037001b0037002100370047
:10542400270037002c0037003000370036003700e3
:10543400100037001b003700270037003200370008
:1054440084c0bf000080fb004300de0061406000b8
:105454000080fb00100798003700370084c0bf00ad
:105464000080fb004700de000080fb00100798006e
:105474003100370085c0bf00614060000080fb0040
:10548400100798002c00370087c0bf000080fb0085
:105494004300de00614060000080fb0010079800bc
:1054a4002500370087c0bf000080fb004400de00f9
:1054b400614060000080fb00100798001e00370068
:1054c40089c0bf000080fb004700de000080fb00b5
:1054d40010079800180037008ac0bf0061406000c0
:1054e4000080fb0010079800130037008ac0bf003b
:1054f4000080fb004300de00614060000080fb0090
:10550400100798000c0037008ac0bf000080fb0021
:105514004400de00614060000080fb00100798003a
:10552400050037008e01780042102000313720003a
:1055340060d12900db4407001e0090000080fa00bf
:10554400000006000c00fa001007980021079800dc
:105554001e0090006101b9004207980053079800ab
:10556400c0002000010020004e019000de019000e8
:10557400800f5100818f5900ad003e004e00900015
:10558400de009000006001000c0037001e003700b0
:105594002c0037003b0037004d0037005f00370018
:1055a4006d0037007c0037008e003700250037007f
:1055b40047003700680037008a00370084c0bf0006
:1055c4000080fb004300de00614060000080fb00bf
:1055d400000f78002e009000614060006140600080
:1055e4004301dd00410820009140780070cfb300f2
:1055f40000c060000240700084e0b7009e007800a4
:10560400310798009000370084c0bf000080fb0081
:105614004700de000080fb00000f78002e009000a1
:1056240061406000c700dd0084c0bf000074a100b9
:105634000140700084e0b7001e0178003207980032
:105644008100370085c0bf00614060000080fb001e
:10565400000f78002e0090006140600061416000fe
:105664005108200091407800e0cfb30000c06000f2
:105674000240700085e0b7009e017800330798006f
:105684007100370087c0bf000080fb004300de00cc
:10569400614060000080fb00000f78002e00900045
:1056a40061406000614060004301dd00710820003a
:1056b4009140780070cfb30000c0600002407000d9
:1056c40087e0b7001e007800300798005e003700be
:1056d40087c0bf000080fb004400de006140600022
:1056e4000080fb00000f78002e00900061406000f5
:1056f400614060004401dd007108200091407800a1
:10570400f0ceb30000c060000240700087e0b70034
:105714009e007800310798004b00370089c0bf0015
:105724000080fb004700de000080fb00000f7800d3
:105734002e00900061406000c700dd0089c0bf00fa
:105744000074a1000140700089e0b7001e017800d8
:10575400320798003c0037008ac0bf0061406000f7
:105764000080fb00000f78002e0090006140600074
:1057740061416000a108200091407800e0cfb300af
:1057840000c06000024070008ae0b7009e0178000b
:10579400330798002c0037008ac0bf000080fb004c
:1057a4004300de00614060000080fb00000f7800d1
:1057b4002e00900061406000614060004301dd0004
:1057c400a10820009140780070cfb30000c06000b1
:1057d400024070008ae0b7001e007800300798008d
:1057e400190037008ac0bf000080fb004400de00bf
:1057f400614060000080fb00000f78002e009000e4
:1058040061406000614060004401dd00a1082000a7
:1058140091407800f0ceb30000c0600002407000f8
:105824008ae0b7009e007800310798000600370030
:105834000e80e8008001780042102000613b2000c7
:1058440060d12900174407003e0090000080fa0050
:10585400000006000600fa00000f78001e00780021
:105864006101b9001207980023079800c0002000c6
:10587400010020001e019000ae019000800f510035
:10588400818f59002b003e001e009000ae00900056
:10589400006001000c0037000e00370010003700d4
:1058a40012003700140037001600370018003700c4
:1058b4001a0037001c003700090037000e003700bb
:1058c40013003700180037009460a9008460a90011
:1058d4001d00370094e0a90084e0a9001a003700f5
:1058e4009500a9008500a900170037009760a9005a
:1058f4008760a900140037009780a9008780a90059
:105904001100370099e0a90089e0a9000e003700d2
:105914009a00a9008a00a9000b0037009a60a90028
:105924008a60a900080037009a80a9008a80a9002b
:10593400050037008e01780042102000913f2000be
:1059440060d12900d74307000080fa000000060058
:105954000a00fa00100798000000eb00000f78001e
:105964001e0090006101b9002207980033079800d7
:10597400c0002000010020002e019000be01900014
:10598400800f5100818f59004f003e002e0090007f
:10599400be009000006001000c00370012003700c8
:1059a400180037001e003700240037002a00370093
:1059b40030003700360037003c0037000a0037005b
:1059c40017003700240037003100370004c1bf003e
:1059d4000080fb004400de00634060000080fb00a8
:1059e400000f78003e00370010c1bf000080fb00ac
:1059f4004400de00634060000080fb00000f78007c
:105a04003700370012c1bf000080fb004400de00f5
:105a1400634060000080fb00000f78003000370016
:105a24001ec1bf000080fb004400de006340600034
:105a34000080fb00000f78002900370020c1bf0060
:105a44000080fb004400de00634060000080fb0037
:105a5400000f7800220037002cc1bf000080fb003b
:105a64004400de00634060000080fb00000f78000b
:105a74001b0037002ec1bf000080fb004400de0085
:105a8400634060000080fb00000f780014003700c2
