:020000040000fa
:080000000002040000000000f2
:020000040000fa
:1000080088030000880300008803000088030000bc
:1000180088030000880300008803000088030000ac
:1000280088030000a271000088030000ba3c0000a9
:1000380002460000cc71000088030000e03c00008c
:10004800063d0000880300008803000088030000c4
:10005800880300000c62000034460000880300009a
:10006800880300002a80000088030000880300003d
:1000780088030000366200009e720000c87200000b
:100088006646000088030000880300003a3d00002f
:10009800603d00008803000088030000880300001a
:1000a80088030000880300008803000058790000d6
:1000b80098460000f6710000207200004a720000a5
:1000c80074720000880300008803000088030000a1
:1000d8008803000088030000ca460000943d000021
:1000e800ba3d000088030000be800000ee3d00001d
:1000f800143e000088030000880300008803000005
:10010800880300003c670000445c0000880300008e
:1001180088030000fc4600008803000088030000f4
:10012800880300008803000088030000880300009b
:100138002e47000060470000880300008803000085
:10014800880300008803000088030000880300007b
:10015800880300008803000088030000880300006b
:10016800880300008803000088030000880300005b
:10017800880300008803000088030000880300004b
:10018800880300008803000088030000880300003b
:10019800880300008803000088030000880300002b
:1001a800880300008803000088030000880300001b
:1001b800880300008803000088030000880300000b
:1001c80088030000880300008803000088030000fb
:1001d80088030000880300008803000088030000eb
:1001e80088030000880300008803000088030000db
:0801f8008803000088030000e9
:020000040000fa
:1002080088030000880300008803000088030000ba
:1002180088030000880300008803000088030000aa
:1002280088030000a271000088030000ba3c0000a7
:1002380002460000cc71000088030000e03c00008a
:10024800063d0000880300008803000088030000c2
:10025800880300000c620000344600008803000098
:10026800880300002a80000088030000880300003b
:1002780088030000366200009e720000c872000009
:100288006646000088030000880300003a3d00002d
:10029800603d000088030000880300008803000018
:1002a80088030000880300008803000058790000d4
:1002b80098460000f6710000207200004a720000a3
:1002c800747200008803000088030000880300009f
:1002d8008803000088030000ca460000943d00001f
:1002e800ba3d000088030000be800000ee3d00001b
:1002f800143e000088030000880300008803000003
:10030800880300003c670000445c0000880300008c
:1003180088030000fc4600008803000088030000f2
:100328008803000088030000880300008803000099
:100338002e47000060470000880300008803000083
:100348008803000088030000880300008803000079
:100358008803000088030000880300008803000069
:100368008803000088030000880300008803000059
:100378008803000088030000880300008803000049
:100388008803000088030000880300008803000039
:100398008803000088030000880300008803000029
:1003a8008803000088030000880300008803000019
:1003b8008803000088030000880300008803000009
:1003c80088030000880300008803000088030000f9
:1003d80088030000880300008803000088030000e9
:1003e80088030000880300008803000088030000d9
:0803f8008803000088030000e7
:020000040000fa
:100400006fcd23000e3f24000e0188000000000085
:1004100000012000200288000c000700e074280082
:100420000100200011000700000020000000e00093
:100430000200320000000200000000007c2c0200dc
:10044000000000000040da000000fe004440a90067
:1004500020a721000000e00003003200000020007f
:10046000a00188004440a800000006009101880017
:10047000800078000000eb0015003700e2804000ab
:1004800032a0b4009101ba00e280400032a0b40072
:100490009102ba00e280400032a0b4000002eb00fa
:1004a000472bde00f507b200602ce10004003a00a3
:1004b0000059eb008301e900fdff3e000400370016
:1004c0006128e100010032000082eb000400070017
:1004d0001101ba000200e000e8ff3a000000060047
:1004e0003159ba008301e9000c0032002159ba00e9
:1004f0008301e900080032000400e00003003a0034
:10050000e280400032a0b400f5ff370011d9ba00f4
:100510008301e900faff3a008100e800e180400031
:1005200032a0b4000000060000000400000000003b
:100530000000040000000000ac7404000000000093
:10054000a2750400000000007667040000000000af
:1005500074670400000000004e79040000000000f1
:1005600010790400000000004e6804000000000044
:1005700070670400000000001e6804000000000016
:10058000ee67040000000000b668040000000000f0
:10059000f826040000000000782704000000000096
:1005a000d827040000000000ae270400000000006f
:1005b00042490400000000007449040000000000eb
:1005c000a449040000000000e44904000000000009
:1005d0002c4a040000000000744a040000000000df
:1005e000ba4a0400000000002e4b04000000000086
:1005f0007a4b040000000000c64b0400000000001d
:10060000264c040000000000a04c04000000000084
:10061000184d0400000000006c4d040000000000b4
:10062000884d040000000000104e0400000000008f
:10063000684e040000000000a44e0400000000000a
:10064000e04e040000000000444f040000000000e1
:100650007650040000000000c28b0400000000007f
:100660005457040000000000be56040000000000c3
:10067000a05804000000000018580400000000000a
:100680009a57040000000000ae880400000000003b
:10069000f688040000000000528104000000000001
:1006a000d822040000000000c02304000000000065
:1006b0002c24040000000000982404000000000026
:1006c000be22040000000000ec2104000000000035
:1006d000fc2104000000000044220400000000008f
:1006e00054220400000000009c22040000000000ce
:1006f000ac22040000000000d22204000000000030
:10070000cc22040000000000c0250400000000000e
:100710000040da000000fe00839f68000100e00056
:1007200002003d0060001000e08018000300e000bf
:1007300002003d0060011100e08119000500070082
:100740004f00e00002003b0060001000e080180055
:10075000000006006022b800060220000000d00061
:100760008180d2000482d2008582d2000000a000e5
:100770000202520083825a0003003100020242004a
:1007800083824a000000a1000603e900f3ff3a005b
:1007900000000600020ab900001bb9000200b80000
:1007a000810042008100430000000600889fbe00d7
:1007b0008a9fbe003004be002005be000404440031
:1007c00085844c0006054d0087854d000898be00c5
:1007d0000a90be000440e10005c8e10006d0e10037
:1007e00007d8e10002003100680040001008e8006e
:1007f0004f05be004f04be00000006001000fa00c6
:10080000889fbe008a9fbe000605be000404be008d
:100810003002be002003be00c4b79f00d5b79f00c2
:10082000e6b79f00f7b79f000802520089825a007e
:100830000a035b008b835b0084bf9f0095bf9f0012
:10084000a6bf9f00b7bf9f000498be000698be00d9
:10085000110020004fb29700dfb297006fb39700ee
:10086000ffb397000820e10009a8e1000ab0e10009
:100870000bb8e100010039008000eb001088100087
:100880004f05be004f04be000080fa0000000600c5
:100890001400fa00889fbe008a9fbe008c9fbe0095
:1008a0003f0007000605be000404be000006eb0082
:1008b000ccb79f00bcb79f00acb79f009cb79f0010
:1008c0008cb79f000d0420004fb39700bfb2970074
:1008d000860343002fb29700e00f530004003d0051
:1008e0003d0007000f004000b0ff07000300370085
:1008f000390007000f004000c0ff0700cfb297008b
:1009000095bf9f00e08f5200090035002b000700c3
:1009100014002000050020006033b80000007200c1
:100920008180720002017300838173001c00070044
:100930000c06e8008d0f5600e3ff3a001fba97003f
:10094000e00f520005003d000802be000a03be0091
:1009500000fe2f000f00400094ff07004faa9700f1
:10096000e00f520008003a000fb497009fb49700c0
:100970002fb59700bfb59700d8b79f00e9b79f0084
:10098000fab79f008bbf9f000c0007004f06be0008
:100990004f05be004f04be000080fa0000000600b4
:1009a000010007000000060090b79f00a1b79f005c
:1009b000b2b79f00c3b79f00000006000100070008
:1009c000000006001fb09700afb097003fb197003e
:1009d000cfb19700000006004f2bde0087037300a5
:1009e000a7b79f004f23de00858242008502730077
:1009f00095b79f00ffaa97004f2bde00040242002c
:100a00000402730084b79f006faa97004f23de0093
:100a10008582420085027300f5af9f00e9ff070061
:100a20004f18de000402420000027200e4af9f0093
:100a3000e4ff0700000040008180480002014900f7
:100a400083814900d8ff07000802be000a03be00e8
:100a500000fe2f0000000600881f7800180020000c
:100a6000881f78008aff07008f87e9004f0478000d
:100a700000000600801feb0085ff07008f87e9005c
:100a800000000600889fbe008a9fbe00e00f500055
:100a9000e08f5800e00f5900e08f59000c003d0036
:100aa0006044b8006055b8000000540081805c00cc
:100ab00002015d0083815d00180020001500070021
:100ac00008003d00180007000004eb000500370097
:100ad0000004eb000f00070002003d0012000700b9
:100ae00018002000dcff0700e00f54000600320071
:100af0006022b8006033b8000000520081805a00c4
:100b000002015b0083815b004f05be004f04be0005
:100b100000000600e00f5200e08f5a00e00f5b007b
:100b2000e08f5b00000006006044b8006055b8002c
:100b30000402540085825c0006035d0087835d002b
:100b400000000600889fbe008a9fbe008c1f7800b0
:100b5000e00f5000e08f5800e00f5900e08f59007f
:100b60000d003d006044b8006055b800000054001e
:100b700081805c0002015d0083815d001c0020001b
:100b80000820e10009a8e1000ab0e1000bb8e1008b
:100b90000d003d00080037000006eb00e00f52009a
:100ba000e08f5a00e00f5b00e08f5b0006003d0025
:100bb0006044b8006055b8000402540085825c00af
:100bc00006035d0087835d00aaff0700e00f560063
:100bd000060032006022b8006033b8000000520006
:100be00081805a0002015b0083815b004f06780020
:100bf0004f05be004f04be0000000600889fbe00e7
:100c00008a9fbe008c1f78000006eb00e00f5000aa
:100c1000e08f5800e00f5900e08f590007003d00b9
:100c20006044b8006055b8000000540081805c004a
:100c300002015d0083815d001c002000e00f520076
:100c4000e08f5a00e00f5b00e08f5b0007003d0083
:100c50006044b8006055b8000402540085825c000e
:100c600006035d0087835d000c00a2000c000700f6
:100c7000e00f5600060032006022b8006033b80072
:100c80000000520081805a0002015b0083815b00fa
:100c90004f0678004f05be004f04be00000006005e
:100ca000889fbe008a9fbe008c9fbe000404b800cf
:100cb0000506b8008904460060854e000606b800a7
:100cc0000a054600e0854e000706b8008b05460081
:100cd000040eb800890446000a854e00e0854d00e8
:100ce000050eb8000a0546008b854e00060eb800ba
:100cf0008b0546000416b8000a0546008b854e0099
:100d00000516b8008b054600041eb8008b0546008a
:100d10000800be000a01be004f06be004f05be001f
:100d20004f04be0000000600e68747008e1f7800d3
:100d3000d0bf9f0066875700012f78000e00370054
:100d40005fbb970016407800efba97001542780015
:100d50000201e900844f5000040032000080fb00d3
:100d60000482fb0004005000060037000603e80080
:100d7000d6bf9f00050fe800e00f5100f0ff3a00da
:100d8000020078004f0778006f00b10000000600f5
:100d90000002780002003700315a78000201e900b1
:100da000e00f5100fcff3a0000000600000278004e
:100db00002003700015a78000201e900e00f5100fb
:100dc000fcff3a0000000600000278008402780070
:100dd000050278000043eb00b44f1300fbff3a001c
:100de00031427800845a7800e04f5200fcff3a000c
:100df0000000060000027800b1427800055a780031
:100e0000e0cf5200fcff3a0000000600000278002c
:100e10008042eb00b4cf1200fdff3a000080ea00f0
:100e20000000420000000600800278000502780001
:100e30000043eb00b54f1300fcff3a000100370000
:100e40000201e900e00f510005003200b1427800d4
:100e5000055a7800e0cf5200f9ff3a000000060082
:080e6000024a780000000600c0
:020000040000fa
:100e68004164000064720000657300007320000094
:100e78006f750000742000006f660000207300008a
:100e880065740000746900006e670000730000005c
:100e98004d6f00006c6f00006c650000206500005d
:100ea800727200006f7200002030000078000000ad
:100eb800206900006e200000666900006c65000073
:100ec8003a200000003a0000005300006c65000062
:100ed80065700000206d00006f6400006520000050
:100ee8006e6f0000742000007375000070700000c1
:100ef8006f72000074650000640000004572000015
:100f0800726f0000723a0000206d0000696e0000e8
:100f1800203d00003d2000003078000046460000db
:100f280046460000464600004646000020210000d4
:100f380000450000727200006f7200003a20000045
:100f4800556e0000616200006c65000020740000ae
:100f58006f200000666c00006173000068200000cc
:100f68006279000074650000636f0000646500002a
:100f78002028000031290000202100000045000041
:100f8800727200006f7200003a200000556e000077
:100f9800616200006c650000207400006f20000092
:100fa800666c000061730000682000006279000030
:100fb80074650000636f000064650000202800006d
:100fc8003229000020210000004500007272000054
:100fd8006f7200003a200000556e00006162000048
:100fe8006c650000207400006f200000666c000033
:100ff80061730000682000006279000074650000d9
:10100800636f000064650000202800003329000099
:1010180020210000004600006c6100007368000099
:10102800696e0000672000004f4b0000005f000061
:101038006964000000650000766500006e740000b9
:101048002e7300006f7500007263000065000000d9
:1010580065760000656e0000742e00006172000065
:1010680067730000005f0000667700007665000087
:1010780072730000696f00006e0000005f7000006e
:10108800726f00006475000063740000496400001a
:10109800006d0000302e000070690000642e000012
:1010a8005f70000065720000696f00006400000056
:1010b8006d3000002e700000696400002e5f000093
:1010c8006b7000005f690000006d0000302e0000aa
:1010d80070690000642e00005f6b0000695f00000b
:1010e800690000006d3000002e7000006964000087
:1010f8002e5f000073630000616c000065720000e1
:101108005f690000006d0000302e0000707700005d
:101118006d0000006d3000002e7000006964000052
:101128002e5f0000707200006573000063610000ac
:101138006c650000725f0000730000006d300000f5
:101148002e700000696400002e5f000063750000c7
:1011580072720000656e0000745f0000737000001a
:1011680065650000645f0000707500006c73000026
:10117800650000006d3000002e70000069640000fa
:101188002e5f000074610000726700006574000043
:101198005f73000070650000656400005f70000008
:1011a800756c000073650000006d0000302e0000b3
:1011b80070690000642e00005f6b0000705f000023
:1011c800730000006d3000002e700000696400009c
:1011d8002e5f00006b6900005f730000006d000067
:1011e800302e000070690000642e00005f6b000064
:1011f800645f0000730000006d3000002e70000076
:10120800696400002e5f000073630000616c0000d9
:10121800657200005f730000006d0000302e000052
:1012280070690000642e00005f73000070650000a4
:10123800656400005f6d0000617800005f70000069
:10124800756c000073650000006d0000302e000012
:1012580070690000642e00005f6b0000705f000082
:10126800700000006d3000002e70000069640000fe
:101278002e5f00006b6400005f700000006d0000ce
:10128800302e000070690000642e00005f730000bb
:10129800636100006c650000725f00007000000070
:1012a8006d3000002e700000696400002e5f0000a1
:1012b8007461000072670000657400005f700000d0
:1012c8006f73000069740000696f00006e5f0000b2
:1012d800707500006c730000650000006d30000040
:1012e8002e700000696400002e6300007572000013
:1012f800726500006e7400005f6d00006178000088
:10130800006d0000302e000070690000642e00009f
:101318007370000065650000645f00006d61000087
:10132800780000006d3000002e7000006964000035
:101338002e5f00006e6f00006d6900006e61000096
:101348006c5f00006375000072720000656e00003b
:10135800740000006d3000002e7000006964000009
:101368002e5f0000746900006d6500005f63000077
:1013780073740000006d0000302e000070690000da
:10138800642e00005f6f0000766500007272000036
:1013980069640000650000006d3000002e700000d8
:1013a800696400002e6500006e610000626c000038
:1013b800650000006d3000002e6500006e630000bf
:1013c8002e5f0000707500006c730000650000005f
:1013d8006d3000002e630000757200007265000019
:1013e8006e740000006d0000302e00007370000065
:1013f80065650000640000006d3000002e7000007c
:101408006f73000069740000696f00006e000000cf
:101418006d3000002e700000696400002e7400001a
:101428006172000067650000745f0000637500006a
:1014380072720000656e0000740000006d300000dc
:101448002e700000696400002e74000061720000b4
:1014580067650000745f0000737000006565000038
:10146800640000006d3000002e7000006964000008
:101478002e7400006172000067650000745f000050
:10148800706f000073690000746900006f6e0000df
:10149800006d0000302e00005f72000061770000d0
:1014a8005f63000075720000726500006e740000d2
:1014b800006d0000312e000070690000642e0000ed
:1014c8005f70000065720000696f00006400000032
:1014d8006d3100002e700000696400002e5f00006e
:1014e8006b7000005f690000006d0000312e000085
:1014f80070690000642e00005f6b0000695f0000e7
:10150800690000006d3100002e7000006964000061
:101518002e5f000073630000616c000065720000bc
:101528005f690000006d0000312e00007077000038
:101538006d0000006d3100002e700000696400002d
:101548002e5f000070720000657300006361000088
:101558006c650000725f0000730000006d310000d0
:101568002e700000696400002e5f000063750000a3
:1015780072720000656e0000745f000073700000f6
:1015880065650000645f0000707500006c73000002
:10159800650000006d3100002e70000069640000d5
:1015a8002e5f00007461000072670000657400001f
:1015b8005f73000070650000656400005f700000e4
:1015c800756c000073650000006d0000312e00008e
:1015d80070690000642e00005f6b0000705f0000ff
:1015e800730000006d3100002e7000006964000077
:1015f8002e5f00006b6900005f730000006d000043
:10160800312e000070690000642e00005f6b00003e
:10161800645f0000730000006d3100002e70000050
:10162800696400002e5f000073630000616c0000b5
:10163800657200005f730000006d0000312e00002d
:1016480070690000642e00005f7300007065000080
:10165800656400005f6d0000617800005f70000045
:10166800756c000073650000006d0000312e0000ed
:1016780070690000642e00005f6b0000705f00005e
:10168800700000006d3100002e70000069640000d9
:101698002e5f00006b6400005f700000006d0000aa
:1016a800312e000070690000642e00005f73000096
:1016b800636100006c650000725f0000700000004c
:1016c8006d3100002e700000696400002e5f00007c
:1016d8007461000072670000657400005f700000ac
:1016e8006f73000069740000696f00006e5f00008e
:1016f800707500006c730000650000006d3100001b
:101708002e700000696400002e63000075720000ee
:10171800726500006e7400005f6d00006178000063
:10172800006d0000312e000070690000642e00007a
:101738007370000065650000645f00006d61000063
:10174800780000006d3100002e7000006964000010
:101758002e5f00006e6f00006d6900006e61000072
:101768006c5f00006375000072720000656e000017
:10177800740000006d3100002e70000069640000e4
:101788002e5f0000746900006d6500005f63000053
:1017980073740000006d0000312e000070690000b5
:1017a800642e00005f6f0000766500007272000012
:1017b80069640000650000006d3100002e700000b3
:1017c800696400002e6500006e610000626c000014
:1017d800650000006d3100002e6500006e6300009a
:1017e8002e5f0000707500006c730000650000003b
:1017f8006d3100002e6300007572000072650000f4
:101808006e740000006d0000312e0000737000003f
:1018180065650000640000006d3100002e70000056
:101828006f73000069740000696f00006e000000ab
:101838006d3100002e700000696400002e740000f5
:101848006172000067650000745f00006375000046
:1018580072720000656e0000740000006d310000b7
:101868002e700000696400002e7400006172000090
:1018780067650000745f0000737000006565000014
:10188800640000006d3100002e70000069640000e3
:101898002e7400006172000067650000745f00002c
:1018a800706f000073690000746900006f6e0000bb
:1018b800006d0000312e00005f72000061770000ab
:1018c8005f63000075720000726500006e740000ae
:1018d800006d0000322e000070690000642e0000c8
:1018e8005f70000065720000696f0000640000000e
:1018f8006d3200002e700000696400002e5f000049
:101908006b7000005f690000006d0000322e00005f
:1019180070690000642e00005f6b0000695f0000c2
:10192800690000006d3200002e700000696400003c
:101938002e5f000073630000616c00006572000098
:101948005f690000006d0000322e00007077000013
:101958006d0000006d3200002e7000006964000008
:101968002e5f000070720000657300006361000064
:101978006c650000725f0000730000006d320000ab
:101988002e700000696400002e5f0000637500007f
:1019980072720000656e0000745f000073700000d2
:1019a80065650000645f0000707500006c730000de
:1019b800650000006d3200002e70000069640000b0
:1019c8002e5f0000746100007267000065740000fb
:1019d8005f73000070650000656400005f700000c0
:1019e800756c000073650000006d0000322e000069
:1019f80070690000642e00005f6b0000705f0000db
:101a0800730000006d3200002e7000006964000051
:101a18002e5f00006b6900005f730000006d00001e
:101a2800322e000070690000642e00005f6b000019
:101a3800645f0000730000006d3200002e7000002b
:101a4800696400002e5f000073630000616c000091
:101a5800657200005f730000006d0000322e000008
:101a680070690000642e00005f730000706500005c
:101a7800656400005f6d0000617800005f70000021
:101a8800756c000073650000006d0000322e0000c8
:101a980070690000642e00005f6b0000705f00003a
:101aa800700000006d3200002e70000069640000b4
:101ab8002e5f00006b6400005f700000006d000086
:101ac800322e000070690000642e00005f73000071
:101ad800636100006c650000725f00007000000028
:101ae8006d3200002e700000696400002e5f000057
:101af8007461000072670000657400005f70000088
:101b08006f73000069740000696f00006e5f000069
:101b1800707500006c730000650000006d320000f5
:101b28002e700000696400002e63000075720000ca
:101b3800726500006e7400005f6d0000617800003f
:101b4800006d0000322e000070690000642e000055
:101b58007370000065650000645f00006d6100003f
:101b6800780000006d3200002e70000069640000eb
:101b78002e5f00006e6f00006d6900006e6100004e
:101b88006c5f00006375000072720000656e0000f3
:101b9800740000006d3200002e70000069640000bf
:101ba8002e5f0000746900006d6500005f6300002f
:101bb80073740000006d0000322e00007069000090
:101bc800642e00005f6f00007665000072720000ee
:101bd80069640000650000006d3200002e7000008e
:101be800696400002e6500006e610000626c0000f0
:101bf800650000006d3200002e6500006e63000075
:101c08002e5f0000707500006c7300006500000016
:101c18006d3200002e6300007572000072650000ce
:101c28006e740000006d0000322e0000737000001a
:101c380065650000640000006d3200002e70000031
:101c48006f73000069740000696f00006e00000087
:101c58006d3200002e700000696400002e740000d0
:101c68006172000067650000745f00006375000022
:101c780072720000656e0000740000006d32000092
:101c88002e700000696400002e740000617200006c
:101c980067650000745f00007370000065650000f0
:101ca800640000006d3200002e70000069640000be
:101cb8002e7400006172000067650000745f000008
:101cc800706f000073690000746900006f6e000097
:101cd800006d0000322e00005f7200006177000086
:101ce8005f63000075720000726500006e7400008a
:101cf800006c00006564000000750000736500005a
:101d0800725f000073770000697400006368000068
:101d180000620000617400007465000072790000c0
:101d28002e69000064000000626100007474000005
:101d380065720000792e0000766f00006c74000058
:101d480061670000650000006261000074740000b3
:101d580065720000792e0000746500006d70000047
:101d68006572000061740000757200006500000073
:101d7800686100006c6c00005f640000006800008f
:101d8800616c00006c5f0000610000006972000077
:101d98002e6100006d620000696100006e74000031
:101da80000690000722e000072650000666c000079
:101db800656300007465000064000000697200003b
:101dc8002e640000656c0000746100000073000060
:101dd800656e0000736f0000727300002e700000c3
:101de80065720000696f0000640000006163000014
:101df80063000000746900006d6500007200000057
:101e0800727000006d5f000032000000726f000009
:101e1800745f0000636f0000756e0000745f00005f
:101e280032000000727000006d5f0000325f000039
:101e38006e65000077000000726f0000745f00009c
:101e4800636f0000756e0000745f0000325f000071
:101e58006e6500007700000002000000010000002d
:101e68001b880000010000001f88000020000000ff
:101e78002c880000020000003788000001000000e4
:101e880042880000010000004d88000001000000a9
:101e98005c88000001000000698800000100000063
:101ea800768800000100000087880000010000001b
:101eb8008e88000001000000a288000001000000d8
:101ec800be88000001000000d98800000100000061
:101ed800e688000001000000f3880000010000000f
:101ee80000890000010000001189000001000000c5
:101ef8002989000001000000368900000100000067
:101f0800438900000200000054890000010000001d
:101f180072890000010000008589000001000000ae
:101f28009689000001000000ae8900000100000051
:101f3800bf89000001000000d089000002000000f5
:101f4800de89000001000000ec89000001000000ab
:101f5800f789000001000000008a0000010000006d
:101f68000c8a000001000000228a00000100000025
:101f7800368a0000010000004d8a000001000000c0
:101f88005d8a0000010000006c8a0000010000006a
:101f9800798a000001000000868a00000100000024
:101fa800978a0000010000009e8a000001000000de
:101fb800b28a000001000000ce8a00000100000083
:101fc800e98a000001000000f68a00000100000014
:101fd800038b000001000000108b000001000000ce
:101fe800218b000001000000398b00000100000077
:101ff800468b000001000000538b00000200000027
:10200800648b000001000000828b000001000000ca
:10201800958b000001000000a68b00000100000065
:10202800be8b000001000000cf8b00000100000003
:10203800e08b000002000000ee8b000001000000b1
:10204800fc8b000001000000078c0000010000006c
:10205800108c0000010000001c8c00000100000032
:10206800328c000001000000468c000001000000d6
:102078005d8c0000010000006d8c00000100000074
:102088007c8c000001000000898c00000100000029
:10209800968c000001000000a78c000001000000e1
:1020a800ae8c000001000000c28c0000010000009e
:1020b800de8c000001000000f98c00000100000027
:1020c800068d000001000000138d000001000000d3
:1020d800208d000001000000318d0000010000008b
:1020e800498d000001000000568d0000010000002d
:1020f800638d000002000000748d000001000000e4
:10210800928d000001000000a58d00000100000074
:10211800b68d000001000000ce8d00000100000017
:10212800df8d000001000000f08d000002000000bb
:10213800fe8d0000010000000c8e00000100000070
:10214800178e000001000000208e00000100000032
:102158002c8e000001000000428e000001000000eb
:10216800568e0000010000006d8e00000400000083
:102178007d8e000001000000818e00000400000038
:102188008d8e000001000000988e00000100000004
:10219800a88e000003000000bc8e000003000000b1
:1021a800c38e000003000000ca8e00000300000078
:1021b800d58e000003000000e28e00000100000040
:1021c800eb8e000003000000fa8e00000100000002
:1021d800fe8e000001000000048f000001000000d6
:1021e8000a8f000001000000168f000001000000a7
:1021f800208f00000000000000000000de0000004a
:10220800ad000000ca000000fe000000be00000093
:10221800ef000000040000000200000070670000ea
:102228001e680000ee670000b6680000f82600008f
:1022380078270000d8270000ae2700004249000098
:1022480074490000a4490000e44900002c4a000039
:10225800744a0000ba4a00002e4b00007a4b000076
:10226800c64b0000264c0000a04c0000184d000092
:102278006c4d0000884d0000104e0000684e0000b4
:10228800a44e0000e04e0000444f000076500000cd
:102298006d3000005f6d00006f7400006f72000009
:1022a800004d0000302000006d6f0000746f0000ca
:1022b80072200000746900006d6500007200000063
:1022c8006d3000005f6f0000760000004d300000a8
:1022d800206d00006f7400006f720000206f000016
:1022e8007665000072630000757200007265000078
:1022f8006e740000006d0000305f00006f76000013
:102308005f6300006c650000617200006564000096
:10231800004d0000302000006d6f0000746f000059
:10232800722000006f76000065720000637500007f
:1023380072720000656e000074200000636c00007b
:102348006561000072650000640000006d310000e6
:102358005f6d00006f7400006f720000004d000098
:10236800312000006d6f0000746f000072200000c3
:10237800746900006d650000720000006d31000096
:102388005f6f0000760000004d310000206d0000f6
:102398006f7400006f720000206f00007665000007
:1023a8007263000075720000726500006e740000b0
:1023b800006d0000315f00006f7600005f63000071
:1023c8006c6500006172000065640000004d00004b
:1023d800312000006d6f0000746f00007220000053
:1023e8006f7600006572000063750000727200006d
:1023f800656e000074200000636c000065610000d9
:1024080072650000640000006d3200005f6d00001e
:102418006f7400006f720000004d00003220000051
:102428006d6f0000746f0000722000007469000076
:102438006d650000720000006d3200005f6f0000e3
:10244800760000004d320000206d00006f7400001f
:102458006f720000206f0000766500007263000054
:1024680075720000726500006e740000006d000057
:10247800325f00006f7600005f6300006c6500004b
:102488006172000065640000004d00003220000009
:102498006d6f0000746f0000722000006f760000fe
:1024a800657200006375000072720000656e0000be
:1024b80074200000636c0000656100007265000014
:1024c8006400000041630000636500006c65000063
:1024d800726f00006d6500007465000072200000d6
:1024e80075700000646100007465000064000000fd
:1024f800746900006d65000072300000007400000f
:10250800696d000065720000203000000073000053
:10251800656e0000736f000072730000004e0000cb
:1025280065770000206100006e6100006c6f00009c
:1025380067200000736500006e7300006f72000072
:1025480073200000766100006c75000065000000d3
:102558004c91000055910000649100006a910000c0
:102568007f9100008d910000aa910000b3910000b6
:10257800c2910000c8910000dd910000eb910000bd
:10258800089200001192000020920000269200009c
:102598003b92000049920000fa8e0000669200000b
:1025a8007c920000839200008b92000093920000be
:1025b80000000000000000005f7300007973000055
:1025c800746500006d2e000072650000626f0000e7
:1025d8006f74000000520000656200006f6f000019
:1025e8007420000074680000652000006d69000018
:1025f800637200006f6300006f6e00007472000069
:102608006f6c00006c650000720000005f730000d2
:1026180079730000746500006d2e0000736500007a
:1026280074740000696e0000677300002e72000069
:1026380065610000640000005265000061640000ec
:1026480020610000207300006574000074690000b8
:102658006e6700000061000064640000726500009d
:102668007373000000760000616c0000756500005f
:10267800005f00007379000073740000656d00004e
:102688002e73000065740000746900006e67000016
:10269800732e000077720000697400006500000066
:1026a8005772000069740000652000006120000076
:1026b8007365000074740000696e00006700000014
:1026c8005f73000079730000746500006d2e0000d0
:1026d8007365000074740000696e00006773000081
:1026e8002e6600006c61000073680000005700004f
:1026f80072690000746500002074000068650000bd
:102708002073000065740000746900006e670000a3
:1027180073200000696e0000746f000020660000de
:102728006c61000073680000000000006d6100002b
:10273800746800002e6300006f70000079000000cc
:10274800636f00007069000065730000207300006b
:1027580072630000207400006f20000064650000b0
:1027680073740000206500006c6500006d65000052
:102778006e7400002062000079200000656c000083
:10278800656d0000656e000074000000646500005f
:102798007374000000730000726300000000000002
:1027a8009a930000a4930000ffff0000ca93000062
:1027b800ffff0000cf9300000000000000000000b1
:1027c8006d610000746800002e660000696c0000ee
:1027d8006c000000666900006c6c0000732000004b
:1027e80064650000737400002077000069740000bd
:1027f80068200000636f00006e73000074610000c1
:102808006e74000020760000616c000075650000a1
:1028180000760000616c0000756500000000000093
:10282800e4930000ee930000ffff0000ca9300004d
:10283800010000000d9400000000000000000000ee
:102848006d610000746800002e610000646400007f
:1028580073630000616c0000617200000061000099
:102868006464000020730000636100006c61000074
:1028780072200000746f0000206500006163000092
:1028880068200000656c0000656d0000656e000042
:10289800742000006f66000020730000726300005f
:1028a800206100006e64000020730000746f000057
:1028b800726500002072000065730000756c0000ee
:1028c80074200000746f000020640000657300002d
:1028d8007400000073630000616c00006172000006
:1028e800000000002494000033940000ffff000063
:1028f800ca930000ffff0000cf9300000100000012
:102908006e94000000000000000000006d610000ef
:10291800746800002e61000064640000006100001b
:1029280064640000732000007372000063310000cb
:10293800206100006e6400002073000072630000d4
:1029480032200000746f00002064000065730000ee
:10295800742c0000206500006c6500006d650000a7
:102968006e7400002062000079200000656c000091
:10297800656d0000656e0000740000007372000051
:102988006331000000730000726300003200000031
:102998008a94000093940000ffff0000ca9300008f
:1029a800ffff0000c2940000ffff0000c794000072
:1029b80000000000000000006d6100007468000065
:1029c8002e7300007562000000730000756200003d
:1029d80073740000726100006374000073200000cb
:1029e800737200006332000020660000726f0000fe
:1029f8006d20000073720000633100002074000035
:102a08006f20000064650000737400002c20000033
:102a1800656c0000656d0000656e000074200000a4
:102a280062790000206500006c6500006d6500009b
:102a38006e74000000000000e0940000e9940000bb
:102a4800ffff0000ca930000ffff0000c2940000cf
:102a5800ffff0000c7940000000000000000000015
:102a68006d610000746800002e6d0000756c000038
:102a7800006d0000756c000074690000706c000047
:102a88006965000073200000737200006331000064
:102a9800206100006e640000207300007263000073
:102aa80032200000746f000020640000657300008d
:102ab800742c0000206500006c6500006d65000046
:102ac8006e7400002062000079200000656c000030
:102ad800656d0000656e000074000000349500000c
:102ae8003d950000ffff0000ca930000ffff0000b3
:102af800c2940000ffff0000c7940000000000001f
:102b0800000000006d610000746800002e64000081
:102b180069760000006400006976000069640000be
:102b2800657300002073000072630000312000000c
:102b380062790000207300007263000032200000f8
:102b4800746f00002064000065730000742c00009e
:102b5800206500006c6500006d6500006e74000063
:102b68002062000079200000656c0000656d00009f
:102b7800656e000074000000869500008f950000c7
:102b8800ffff0000ca930000ffff0000c29400008e
:102b9800ffff0000c79400000000000000000000d4
:102ba8006d610000746800002e6d0000696e000001
:102bb800007700007269000074650000732000004f
:102bc80074680000652000006d6900006e690000ef
:102bd8006d7500006d2000006f6600002073000016
:102be8007263000031200000616e00006420000064
:102bf8007372000063320000207400006f20000030
:102c080064650000737400002c200000656c0000ef
:102c1800656d0000656e0000742000006279000098
:102c2800206500006c6500006d6500006e74000092
:102c380000000000d4950000dd950000ffff0000b3
:102c4800ca930000ffff0000c2940000ffff0000cd
:102c5800c794000000000000000000006d61000043
:102c6800746800002e6d0000617800000077000095
:102c78007269000074650000732000007468000029
:102c8800652000006d610000786900006d75000026
:102c98006d2000006f660000207300007263000062
:102ca80031200000616e0000642000007372000093
:102cb80063320000207400006f200000646500008b
:102cc800737400002c200000656c0000656d000026
:102cd800656e000074200000627900002065000025
:102ce8006c6500006d6500006e7400000000000057
:102cf800329600003b960000ffff0000ca930000d8
:102d0800ffff0000c2940000ffff0000c79400000e
:102d180000000000000000006d6100007468000001
:102d28002e6300006c6100006d70000000630000fd
:102d38006c6100006d700000207300007263000079
:102d4800207400006f2000006c6f0000772f0000d7
:102d58006869000067680000206200006f75000065
:102d68006e64000073200000696e0000746f00003c
:102d78002064000065730000742c000020650000ca
:102d88006c6500006d6500006e7400002062000034
:102d980079200000656c0000656d0000656e00001c
:102da800740000006c6f0000770000006869000084
:102db8006768000000000000909600009b960000e5
:102dc800ffff0000ca930000ffff0000cf93000040
:102dd800ffff0000d6960000ffff0000da96000013
:102de80000000000000000006d6100007468000031
:102df8002e6400006f740000007700007269000004
:102e080074650000732000007468000065200000ed
:102e1800646f000074200000707200006f6400008e
:102e280075630000742000006f66000020730000c6
:102e38007263000031200000616e00006420000011
:102e48007372000063320000207400006f200000dd
:102e580064650000737400002c20000061660000a7
:102e68007465000072200000612000007368000093
:102e7800696600007400000073680000696600005d
:102e880074000000f896000001970000010000009f
:102e9800ca930000ffff0000c2940000ffff00007b
:102ea800c7940000010000004097000000000000e7
:102eb800000000006d610000746800002e730000bf
:102ec8007461000074000000706500007266000004
:102ed8006f7200006d7300002073000074610000c1
:102ee80074690000737400006963000073200000b7
:102ef8006f6e00002073000072630000006d000018
:102f0800696e0000006d000061780000006d00002f
:102f1800656100006e0000005e9700006897000081
:102f2800ffff0000cf93000001000000839700001e
:102f38000100000087970000010000008b97000047
:102f480000000000000000006d61000074680000cf
:102f58002e61000072670000626f0000756e00004d
:102f680064730000006700006574000020740000ae
:102f780068650000206900006e6400006963000055
:102f8800657300002028000061720000676d000072
:102f9800696e00002c20000061720000676d00005f
:102fa80061780000292000006f660000207400008e
:102fb80068650000206c0000696d000069740000fd
:102fc80020760000616c0000756500007320000029
:102fd8006f6600002073000072630000006100004b
:102fe800726700006d6900006e00000061720000e9
:102ff800676d00006178000000000000a8970000dd
:10300800b7970000ffff0000cf9300000100000009
:10301800f397000001000000fa970000000000008c
:10302800000000006d610000746800002e7300004d
:103038006f72000074000000736f0000727400006b
:1030480020610000727200006179000020690000b0
:103058006e200000706c00006163000065000000d5
:10306800617200007261000079000000169800008b
:1030780020980000ffff00003498000000000000c6
:10308800000000006d610000746800002e6d0000f3
:10309800756c00006469000076000000706500002f
:1030a800726600006f7200006d73000020640000fb
:1030b80065730000742000003d20000028610000b6
:1030c8002a620000292f000063200000696e0000ba
:1030d8002033000032200000626900007473000091
:1030e800206500006c6500006d6500006e740000ce
:1030f8002062000079200000656c0000656d00000a
:10310800656e0000740000006100000062000000ad
:10311800630000004698000052980000ffff00007e
:10312800ca930000ffff000088980000ffff00001e
:103138008a980000ffff00008c9800000000000043
:10314800000000006d610000746800002e6100003e
:10315800746100006e3200000070000065720000ab
:10316800666f0000726d0000732000006465000047
:1031780073740000203d00002061000074610000ad
:103188006e320000287900002c7800002920000009
:10319800656c0000656d0000656e0000742000001d
:1031a80062790000206500006c6500006d65000014
:1031b8006e74000000790000007800000000000034
:1031c800a6980000b1980000ffff0000ca93000015
:1031d800ffff0000df980000ffff0000e1980000fb
:1031e80000000000000000006d610000746800002d
:1031f8002e730000696e0000007000006572000008
:10320800666f0000726d00007320000064650000a6
:1032180073740000203d000020730000696e0000f8
:103228002878000029200000656c0000656d00000a
:10323800656e0000742000006279000020650000bf
:103248006c6500006d6500006e74000000000000f1
:10325800f898000001990000ffff0000ca930000e1
:10326800ffff0000e19800000000000000000000df
:103278006d610000746800002e6300006f73000029
:103288000070000065720000666f0000726d00003b
:10329800732000006465000073740000203d000086
:1032a800206300006f7300002878000029200000c8
:1032b800656c0000656d0000656e000074200000fc
:1032c80062790000206500006c6500006d650000f3
:1032d8006e740000000000003c9900004599000051
:1032e800ffff0000ca930000ffff0000e198000004
:1032f80000000000000000006d610000746800001c
:103308002e7200006f74000032000000726f00001f
:1033180074610000746500007320000076200000ce
:103328006f660000206100006e6700006c65000099
:1033380020610000207400006f2000006465000018
:1033480073740000007600000000000080990000ff
:103358008a99000002000000ca93000002000000e1
:10336800a7990000010000008898000000000000f4
:10337800000000006d610000746800002e730000fa
:103388007172000074000000706500007266000031
:103398006f7200006d730000206400006573000008
:1033a800742000003d20000073710000727400005a
:1033b8002878000029200000656c0000656d000079
:1033c800656e00007420000062790000206500002e
:1033d8006c6500006d6500006e7400000000000060
:1033e800be990000c8990000ffff0000ca930000c2
:1033f800ffff0000e198000000000000000000004e
:103408006d610000746800002e6e00007a73000081
:1034180065710000007700007269000074650000a3
:10342800207400006f2000006465000073740000c1
:103438002074000068650000206d000069640000c9
:10344800646c000065200000696e0000646500007f
:10345800782000006f660000207400006865000096
:10346800206c000061720000676500007374000042
:103478002073000065710000756500006e63000030
:10348800652000006f660000206e00006f6e00006f
:103498002d7a0000657200006f200000656c000046
:1034a800656d0000656e0000747300002066000002
:1034b800726f00006d20000073720000632c000022
:1034c800202d00003120000069660000206e0000f9
:1034d8006f740000206600006f7500006e640000c5
:1034e800206f000072200000696600002073000051
:1034f8006d6100006c6c00006572000020740000b3
:10350800686100006e2000006d6900006e4c0000cc
:10351800656e000067740000680000006d690000b7
:103528006e4c0000656e00006774000068000000c3
:10353800049a00000f9a000001000000ca930000de
:10354800ffff0000cf93000001000000929a0000e6
:1035580000000000000000006d61000074680000b9
:103568002e720000616e00006400000066690000b1
:103578006c6c00002061000072720000617900002c
:103588002077000069740000682000007261000064
:103598006e6400006f6d000020760000616c000012
:1035a8007565000073000000b09a0000ba9a000028
:1035b800ffff0000ca9300000000000000000000a8
:1035c800000000009301000024030000b70400007d
:1035d80048060000da0700006b090000fc0a00003a
:1035e8008c0c00001c0e0000ab0f00003b1100000b
:1035f800c812000056140000e31500006e17000002
:10360800f9180000831a00000c1c0000941d00002b
:103618001a1f0000a020000024220000a723000099
:1036280029250000a826000027280000a42900005a
:10363800202b0000992c0000122e0000872f00007c
:10364800fc3000006f320000df3300004e35000010
:10365800ba360000253800008d390000f33a000022
:10366800573c0000b93d0000173f000074400000bf
:10367800ce410000264300007b440000cd450000f9
:103688001d4700006a480000b4490000fc4a0000d9
:10369800404c0000824d0000c04e0000fc4f00006e
:1036a80034510000695200009b530000ca540000c6
:1036b800f65500001e5700004358000064590000ea
:1036c800835a00009d5b0000b45c0000c85d0000e8
:1036d800d75e0000e45f0000ec600000f1610000cc
:1036e800f2620000ef630000e9640000de6500009c
:1036f800d0660000bd670000a76800008c69000064
:103708006e6a00004b6b0000246c0000f96c00002e
:10371800ca6d0000976e00005f6f00002370000004
:10372800e37000009e7100005572000008730000ed
:10373800b67300006074000005750000a5750000f0
:1037480042760000d97600006c770000fb77000015
:1037580084780000097900008a790000067a000060
:103768007d7a0000ef7a00005d7b0000c67b0000d8
:103778002a7c0000897c0000e47c0000397d000080
:103788008a7d0000d77d00001d7e0000607e00005d
:103798009d7e0000d67e0000097f0000397f000072
:1037a800627f0000877f0000a77f0000c27f0000c3
:1037b800d87f0000ea7f0000f67f0000fe7f00004f
:1037c800ff7f00008c020000df02000030030000d1
:1037d80080030000d10300002204000073040000ed
:1037e800c204000014050000b305000054060000e0
:1037f800f10600008f0700002d080000ca0800002d
:1038080063090000fc090000340b00005c0c000098
:10381800820d0000a40e0000bd0f0000d3100000b0
:10382800e2110000e7120000ef140000cc160000bf
:1038380092180000401a0000d61b0000531d00001b
:10384800b51e00000b200000792200008d24000026
:103858006f2600001428000090290000e02a0000cc
:10386800112c0000252d0000052f000089300000d4
:10387800d3310000ec320000dd330000ae3400002c
:10388800673500000d36000020370000fb370000c8
:10389800b23800004a390000cc3900003b3a000039
:1038a8009b3a0000f33a0000833b0000f43b000021
:1038b800513c00009f3c0000e13c00001a3d000024
:1038c8004b3d0000783d0000c03d0000f93d000080
:1038d800283e00004f3e0000703e00008d3e000074
:1038e800a53e0000bc3e0000e03e0000fd3e00009a
:1038f800143f0000283f0000383f0000473f000009
:10390800533f00005e3f0000703f00007f3f000013
:103918008a3f0000943f00009c3f0000a43f000045
:10392800aa3f0000af3f0000b83f0000c03f0000c2
:10393800c53f0000cb3f0000ce3f0000d23f000053
:10394800d53f0000d83f0000dc3f0000e03f00000a
:10395800e33f0000e53f0000e83f0000e93f0000ca
:10396800eb3f0000ec3f0000ee3f0000f13f00009d
:10397800f13f0000f33f0000f43f0000f53f000076
:10398800f53f0000f73f0000f73f0000f93f000057
:10399800f83f0000fa3f0000fa3f0000fa3f00003d
:1039a800fb3f0000fb3f0000fc3f0000fc3f000025
:1039b800fc3f0000fe3f0000fd3f0000fd3f00000f
:1039c800fd3f0000fe3f0000fe3f0000fe3f0000fc
:1039d800fe3f0000fe3f0000fe3f000000400000e8
:1039e800ff3f0000ff3f0000ff3f0000ff3f0000d7
:1039f800ff3f0000ff3f0000ff3f0000ff3f0000c7
:103a0800ff3f0000ff3f0000ff3f000000400000b4
:103a1800004000000040000000400000004000009e
:103a2800004000000040000000400000004000008e
:103a3800004000000040000000400000004000007e
:103a48000040000000400000566100006c75000056
:103a5800652000006f750000742000006f6600008c
:103a680020720000616e00006765000020280000d9
:103a7800302e00002e3600003329000000490000d7
:103a88006e760000616c0000696400002068000028
:103a98007a000000496e0000766100006c69000041
:103aa8006420000067000000577200006f6e00007d
:103ab80067200000746900006d6500007220000036
:103ac800766100006c750000650000005f730000ff
:103ad80079730000746500006d2e00007475000095
:103ae8006e6e0000696e0000672e00006f730000a4
:103af80063740000756e000000540000756e0000cd
:103b08006520000074680000652000006f730000e5
:103b180063740000756e0000207200006567000085
:103b2800697300007465000072000000766100008f
:103b38006c7500006500000061630000632e0000e2
:103b480073650000745f00006d6f0000646500001d
:103b580000530000657400002074000068650000d0
:103b68002061000063630000656c0000657200005e
:103b78006f6d00006574000065720000206d000024
:103b88006f64000065000000687a000000670000ac
:103b9800006d00006f7400006f7200002e7300004b
:103ba800657400005f62000072650000616b0000d0
:103bb8005f6d00006f640000650000005365000041
:103bc8007420000074680000652000006d6f00001c
:103bd800746f0000722000006272000065610000ce
:103be8006b2000006d6f000064650000003000006d
:103bf800203d00002064000069730000616200003d
:103c08006c650000642c000020310000203d00009d
:103c1800206500006e610000626c000065640000b1
:103c28000062000061740000746500007279000091
:103c38002e7500007064000061740000652e00009d
:103c4800746500006d70000065720000617400000a
:103c58007572000065000000557000006461000086
:103c68007465000020740000686500002062000090
:103c7800617400007465000072790000207400000f
:103c8800656d0000706500007261000074750000c9
:103c980072650000207300007461000074750000f4
:103ca8007300000062610000747400006572000017
:103cb800792e0000757000006461000074650000d2
:103cc8002e7600006f6c00007461000067650000cc
:103cd8000055000070640000617400006520000059
:103ce80074680000652000006261000074740000c0
:103cf8006572000079200000766f00006c74000087
:103d080061670000652000007374000061740000a2
:103d180075730000000000002e2e00002f2e0000fa
:103d28002e2f00002e2e00002f2e00002e2f000018
:103d38004453000050330000335f00006365000007
:103d48006c6c0000756c00006f5f00007669000005
:103d5800622f00006d6f00006c6f00006c65000042
:103d68002f690000326300002f69000032630000f1
:103d78005f70000072690000762e00006800000085
:103d88002e2e00002f2e00002e2f00002e2e0000b9
:103d98002f2e00002e2f0000445300005033000047
:103da800335f0000636500006c6c0000756c0000f8
:103db8006f5f000076690000622f00006d6f0000e1
:103dc8006c6f00006c6500002f6900003263000012
:103dd8002f6d00006173000074650000725f0000c1
:103de800707200006f7400006f6300006f6c000059
:103df8002e630000000000002e2e00002f2e000071
:103e08002e2f00002e2e00002f2e00002e2f000037
:103e18004453000050330000335f00006365000026
:103e28006c6c0000756c00006f5f00007669000024
:103e3800622f00006d6f00006c6f00006c65000061
:103e48002f630000616e00002f630000616e0000a8
:103e58002e63000000000000e8030000c10000001d
:103e680098030000f401000001000000f4070000be
:103e7800fa00000003000000fa07000064000000d8
:103e880009000000fa070000000000000000000020
:103e980000000000e8030000c0000000b0050000ba
:103ea800f401000001000000f8040000fa0000001e
:103eb80002000000fa07000064000000090000008a
:103ec800f8040000000000000000000000000000ee
:103ed8002e2e00002f2e00002e2f00002e2e000068
:103ee8002f2e00002e2f00004453000050330000f6
:103ef800335f0000636500006c6c0000756c0000a7
:103f08006f5f000076690000622f00006d6f00008f
:103f18006c6f00006c6500002f69000032630000c0
:103f28002f690000326300005f70000072690000b2
:103f3800762e0000680000002e2e00002f2e0000b4
:103f48002e2f00002e2e00002f2e00002e2f0000f6
:103f58004453000050330000335f000063650000e5
:103f68006c6c0000756c00006f5f000076690000e3
:103f7800622f00006d6f00006c6f00006c65000020
:103f88002f690000326300002f6d0000617300008c
:103f980074650000722e0000630000002e2e0000e1
:103fa8002f2e00002e2f00002e2e00002f2e000096
:103fb8002e2f00004453000050330000335f0000f0
:103fc800636500006c6c0000756c00006f5f00009a
:103fd80076690000622f00006d6f00006c6f0000b2
:103fe8006c6500002f740000696d000065720000a8
:103ff8002f740000696d0000657200002e630000d8
:10400800000000000100000000000000080000009f
:104018000000000040000000000000000001000057
:10402800000000002e2e00002f2e00002e2f000072
:104038002e2e00002f2e00002e2f000044530000cb
:1040480050330000335f0000636500006c6c0000b3
:10405800756c00006f5f000076690000622f000039
:104068006d6f00006c6f00006c6500002f6500002c
:104078006e6300006f640000657200002f65000029
:104088006e6300006f640000657200002e6300001c
:10409800000000002e2e00002f2e00002e2f000002
:1040a8002e2e00002f2e00002e2f0000445300005b
:1040b80050330000335f0000636500006c6c000043
:1040c800756c00006f5f000076690000622f0000c9
:1040d8006d6f00006c6f00006c6500002f690000b8
:1040e800326300002f690000326300005f70000037
:1040f80072690000762e0000680000002e2e000075
:104108002f2e00002e2f00002e2e00002f2e000034
:104118002e2f00004453000050330000335f00008e
:10412800636500006c6c0000756c00006f5f000038
:1041380076690000622f00006d6f00006c6f000050
:104148006c6500002f6600006c6100007368000059
:104158002f6600006c610000736800002e63000089
:10416800000000002e2e00002f2e00002e2f000031
:104178002e2e00002f2e00002e2f0000445300008a
:1041880050330000335f0000636500006c6c000072
:10419800756c00006f5f000076690000622f0000f8
:1041a8006d6f00006c6f00006c6500002f670000e9
:1041b800706900006f2f000067700000696f0000d1
:1041c8002e630000000000002e2e00002f2e00009d
:1041d8002e2f00002e2e00002f2e00002e2f000064
:1041e8004453000050330000335f00006365000053
:1041f8006c6c0000756c00006f5f00007669000051
:10420800622f00006d6f00006c6f00006c6500008d
:104218002f6400006d6100002f6400006d610000d4
:104228002e630000000000002e2e00002f2e00003c
:104238002e2f00002e2e00002f2e00002e2f000003
:104248004453000050330000335f000063650000f2
:104258006c6c0000756c00006f5f000076690000f0
:10426800622f00006d6f00006c6f00006c6500002d
:104278002f610000646300002f6100006463000088
:104288002e630000000000002e2e00002f2e0000dc
:104298002e2f00002e2e00002f2e00002e2f0000a3
:1042a8004453000050330000335f00006365000092
:1042b8006c6c0000756c00006f5f00007669000090
:1042c800622f00006d6f00006c6f00006c650000cd
:1042d8002f700000776d00002f700000776d0000d0
:1042e8002e630000000000002e2e00002f2e00007c
:1042f8002e2f00002e2e00002f2e00002e2f000043
:104308004453000050330000335f00006365000031
:104318006c6c0000756c00006f5f0000766900002f
:10432800622f00006d6f00006c6f00006c6500006c
:104338002f690000632f0000696300002e630000ee
:044348000000000071
:020000040000fa
:10434c00100a90006003900084024200e6827a001a
:10435c000402e9001408980005007800000006002b
:10436c0094242100840f500003003c0074db2e00c9
:10437c00840f500001003d00040078006700b90074
:10438c00f4002000110009000400d8000000060011
:10439c0080027800c4cc2000848f520003003c00c3
:1043ac0044332f00848f520001003d0084027800ba
:1043bc006a2bb90094002000110009000403d800f6
:1043cc0000027800050042000000060015002000e5
:1043dc00c4162100148a720000000600cf80de0093
:1043ec00000006000000060000000600c4162100b4
:1043fc00e00f500003003a0025002000148a7200e0
:10440c000000060045002000148a7200000006001f
:10441c0094242100840f500003003c0074db2e0018
:10442c00840f500001003d00040078006700b900c3
:10443c00f4002000110009000400d8000000060060
:10444c0080027800c4cc2000848f520003003c0012
:10445c0044332f00848f520001003d008402780009
:10446c006a2bb90094002000110009000403d80045
:10447c0000027800050042000000060085002000c4
:10448c00c4162100148a720000000600cf80de00e2
:10449c00000006000000060000000600c416210003
:1044ac00e00f500003003a0005012000148a72004e
:1044bc000000060005022000148a720000000600ad
:1044cc0094242100840f500003003c0074db2e0068
:1044dc00840f500001003d00040078006700b90013
:1044ec00f4002000110009000400d80000000600b0
:1044fc0080027800c4cc2000848f520003003c0062
:10450c0044332f00848f520001003d008402780058
:10451c006a2bb90094002000110009000403d80094
:10452c00000278000500420000000600050420008f
:10453c00c4162100148a720000000600cf80de0031
:10454c00000006000000060000000600c416210052
:10455c00e00f500003003a0005082000148a720096
:10456c000000060005102000148a720000000600ee
:10457c00304a8800414a8800524a880005202000b1
:10458c00c4162100148a7200000006008630ef0069
:10459c0080002000b01e37001e08070040848000f9
:1045ac00ad1e3700881f7800010478003484800029
:1045bc00cfa2de00e50f5200e08f5a006a003e00e9
:1045cc00046001000500370013003700230037009a
:1045dc0030003700410037005200370098498800fe
:1045ec00b00020009c1e07001800200038848800b2
:1045fc0084002000448488006011b8006000200012
:10460c0008080700e02d20004400dd000020a00079
:10461c00880078003f003700eb0f500002003a0092
:10462c006849880050003700e02d20004400dd0070
:10463c000020a0008000eb0082310700c8498800f0
:10464c009449800004045400f84988002400200098
:10465c0034848800900020001e003700a849880090
:10466c00c00020007c1e0700340020003484880029
:10467c0094002000448488006011b8006000200081
:10468c00e8070700e02d20004400dd005000b300d7
:10469c001f003700ec0f500002003a0078498800e8
:1046ac0031003700e02d20004400dd005000b30045
:1046bc008000eb0063310700d8498800a4498000d2
:1046cc0004045400084a8800440020003484880004
:1046dc00a0002000601e070023003700b8498800a6
:1046ec00d00020005c1e0700540020003484880099
:1046fc00a4002000448488006011b80060002000f1
:10470c00c8070700402e20004400dd006000b30005
:10471c00110020004b31070060002000bf0707008c
:10472c0011003700ed0f500002003a008849880054
:10473c000d003700402e20004400dd006000b30067
:10474c008000eb003f310700e8498800b449800045
:10475c0004045400184a88008630ef0005802000bd
:10476c00c4162100148a72004f0478000000060061
:10477c0000000600889fbe008a1f78000460240099
:10478c009402ea00680242009482520068034200dc
:10479c009682520070034200968252004400200020
:1047ac00110009008402d800869180000602500096
:1047bc005444880054428000e00f52001c00340026
:1047cc00e0f52000e2230700817b80000000eb0075
:1047dc00b81f070098918000aa9180008a0f54009e
:1047ec0016003200b9438000e08f540013003a00e9
:1047fc00d0438000e1438000ddff07008a0f5000aa
:10480c0002003d00697b88000200370074a82f006d
:10481c00647b8800880f5000020034006e2fef007c
:10482c000600370094572000747b88000300370083
:10483c0015002000c4162100148a72004f05780060
:10484c004f04be000000060000000600889fbe005a
:10485c008a1f7800246024009402ea006802420057
:10486c009482520068034200968252007003420008
:10487c009682520044002000110009008402d800e6
:10488c00b6928000060250006446880064448000a2
:10489c00e00f52001c00340080fb2000ac2307000a
:1048ac00517e800010002000821f0700c8928000fb
:1048bc00da9280008a0f540016003200c94580003d
:1048cc00e08f540013003a00e0458000f145800071
:1048dc00ddff07008a0f500002003d00397e880082
:1048ec000200370074a82f00347e8800880f500017
:1048fc0002003400c82fef00060037009457200048
:10490c00447e88000300370085002000c416210077
:10491c00148a72004f0578004f04be000000060098
:10492c0000000600889fbe008a1f780044602400a7
:10493c009402ea006802420094825200680342002a
:10494c00968252007003420096825200440020006e
:10495c00110009008402d800e69380000602500082
:10496c007448880074468000e00f52001c0034002c
:10497c0020012100762307002181800020002000e7
:10498c004c1f0700f89380000a9480008a0f540093
:10499c0016003200d9478000e08f540013003a0013
:1049ac00f047800001488000ddff07008a0f5000af
:1049bc0002003d00098188000200370074a82f0016
:1049cc0004818800880f5000020034002230ef0070
:1049dc00060037009457200014818800030037002c
:1049ec0005042000c4162100148a72004f057800bb
:1049fc004f04be0000000600881f780000047800f9
:104a0c000b000900001ceb008801b100402e2000b7
:104a1c004400dd009000b300a4300700100498009f
:104a2c004f04780000000600869480009794800064
:104a3c00149480004022dd00050020000602520084
:104a4c0087825a004928dd004722de0004027000ec
:104a5c00c7aade000402430085824b0084948800c0
:104a6c0095948800060028000700200004024300eb
:104a7c0085824b001594880000000600100b9000f6
:104a8c00a00b9000000a90004022dd0005002000e1
:104a9c000602520087825a008100e90003003300ad
:104aac008502d1000482d300fbff370004024300cf
:104abc0085824b00140898002508980006002800f1
:104acc00070020000402430085824b000508980073
:104adc0000000600881f780038948000e00f540016
:104aec000f003200610464000d003a008832ec00c3
:104afc00624a8000cf91de0000242400f1002000e7
:104b0c0002ef070024948000110009000480d800f3
:104b1c00c50320000580b9001094880028948800f3
:104b2c004f0478000000060000017800320290006b
:104b3c00e00f52000e003200610262000c003a00dd
:104b4c00b20a90008502e8003509980066412300fe
:104b5c00a2029000110009000583d8000003780020
:104b6c00c703200007b3b900060998002401980078
:104b7c0000000600402e20004400dd009000b30031
:104b8c004a30070050498800659480008502500027
:104b9c0005f0a7008502ea00759488006083880000
:104bac00748380000400500000f0a7000000ea00ad
:104bbc00a083880054948000e00f52000b003a0050
:104bcc0014948800249488003494880044948800b9
:104bdc009032ef009232ef00e08f5200170032005b
:104bec00140020005494880014003700e10f520088
:104bfc0012003a0024948000c6822600860f5200d0
:104c0c00010036008a32ef00b6ff2700379480008f
:104c1c00868f5300010036008632ef000402e80054
:104c2c00e08f5200040032008632ec00249488009d
:104c3c00a8ff07000100370024948800b58380008a
:104c4c00a4838000e18f520009003a007830ef0015
:104c5c007a30ef007c30ef007030ef007230ef00f4
:104c6c008230ef007e30ef008030ef001100370013
:104c7c00e10f52000f003a0084838000c5822600a9
:104c8c00850f5200010036007630ef00b5ff27008b
:104c9c0096838000850f5300010036007230ef00c0
:104cac007230ec000402e80084838800c006210006
:104cbc009dff07002a09f8008c12f9006c10f8000f
:104ccc006e10f9008212f8004e09f9008812f800f3
:104cdc005009f9007c10f8005209f9008210f80014
:104cec005409f90005402000c4162100148a7200f2
:104cfc0000000600889fbe0000047800c8049000e5
:104d0c00080078008efd070000004000e9027800e2
:104d1c00f4032000848f52000400360081d2290055
:104d2c0008007800991607002c003700a60920000f
:104d3c008003eb00840720003074200004487800c6
:104d4c000648780007487800247420001442780044
:104d5c000404a0000482fb007705200066042000f8
:104d6c002074200006487800074878000448780032
:104d7c00000037004207ab00feff3a00453a8800be
:104d8c00a50920001600200084072000377420009d
:104d9c00844b7800854b7800864b78002474200077
:104dac00144278000404a0000482fb007605200065
:104dbc006504200027742000854b7800864b780012
:104dcc00844b78000000370042a7ab00feff320096
:104ddc00000037004207ab00feff3a004f04be0054
:104dec0000000600889fbe008a1f780080047800af
:104dfc00490490000900780051fd070000004000b4
:104e0c006804780049059000090078004cfd070003
:104e1c0000004000ea0078006142b900e90f52003e
:104e2c00e08f5a001b003e00046001001c0037009c
:104e3c001a00370007003700080037000900370058
:104e4c000a0037000b0037000c0037000d0037004c
:104e5c000e003700c80020001100370008012000a8
:104e6c000f003700480120000d003700880120009a
:104e7c000b003700480020000900370058002000c4
:104e8c00070037006800200005003700780020007c
:104e9c000300370031d429000a00370088002000b5
:104eac00e08f500006003500e18f50000800340000
:104ebc00e28f500002003a0031002000040037005d
:104ecc00e1d42900090078003016070002003700f1
:104edc0008007800f43007004f0578004f04be003e
:104eec0000000600881f78004004900014fd0700a5
:104efc000000400068047800e00f54000900320004
:104f0c00e10f540010003a006000b8009f1f07002a
:104f1c008000eb00080078009c1f07008000eb006d
:104f2c00070037001100200008007800971f0700c9
:104f3c001100200010002000941f07001100200019
:104f4c0020002000911f07004f047800000006008d
:104f5c00881f780024848000e00f52000f0032007c
:104f6c00d80980004f44de003be1a9000000eb00b3
:104f7c00142c0700e00f5000fcff3a00452b0700f3
:104f8c00204988000884fb004f44dd00d4098000d0
:104f9c0004f0a10008027200d40988004f047800c4
:104fac0000000600881f780024848000e00f520067
:104fbc000f003200d80980004f44de003be1a9000d
:104fcc000000eb00ff2b0700e00f5000fcff3a0045
:104fdc001e2b0700104988000884fb004f44dd009d
:104fec00d409800004f0a10008027200d4098800e2
:104ffc004f0478000000060054428000e00f52007d
:10500c0005003400c4438000e00f5200020032005f
:10501c00700ff8005208f900c47c8000e00f5200b9
:10502c0003003200007b8000cdfc07002044880088
:10503c00347d8000e00f520004003200507c800070
:10504c00c0428800e7fc070030448800b042800072
:10505c00e4fc070000448800d0438000e14380005a
:10506c00c3fd07001044880064448000e00f520028
:10507c0005003400d4458000e00f520002003200dd
:10508c00ca0ff8009408f900947f8000e00f5200da
:10509c0003003200d07d8000ddfc07003046880024
:1050ac0004808000e00f520004003200207f80005a
:1050bc00d0448800f7fc070040468800c0448000bc
:1050cc00f4fc070010468800e0458000f1458000a4
:1050dc00ddfd07002046880074468000e00f52007a
:1050ec0005003400e4478000e00f5200020032005b
:1050fc002410f800d608f90064828000e00f5200fa
:10510c0003003200a0808000edfc070040488800be
:10511c00d4828000e00f520004003200f081800045
:10512c00e046880007fd070050488800d046800004
:10513c0004fd070020488800f047800001488000eb
:10514c00f7fd0700304888005044800084fc0700bd
:10515c00f043880060468000adfc070000468800e4
:10516c0070488000d6fc070010488800202d2000d5
:10517c004400dd00b000b300cc2e070000f0a70007
:10518c000000ea000000e9004f00de00c048880083
:10519c0000000600881f780058428000c44380003d
:1051ac00a5848000850f540003003a00958480008c
:1051bc00848f520053003200a884880094848800a5
:1051cc00e00f54004b003200e00f52004900320057
:1051dc0008f0a7000804ea0005192000850f540008
:1051ec000100340005047800e10f52000400320085
:1051fc0015002000e20f520006003a0002003700b2
:10520c00982fef0001003700c57c8800a62fef0017
:10521c0002003700c57c8800357d88005a08f800ec
:10522c008c0ff9005e08f800900ff9005c08f8008c
:10523c008e0ff9005008f800660ff9005408f800ba
:10524c00840ff9004c08f800620ff9004e08f800c2
:10525c00640ff9006008f800920ff90054428000c6
:10526c00e00f520013003400a0438000cf80de001a
:10527c0006f8270006a3b900860f5000878f580048
:10528c000500340076efef0005f8270005a2b90001
:10529c00a443880007003700cfa2de004729dd00b9
:1052ac00c921de00830171004721dd0017ed0700e5
:1052bc0076efb7009043800035fc0700c07b880078
:1052cc006808f800a40ff9006408f800a00ff900b2
:1052dc006608f800a20ff9006141b9003100200006
:1052ec00100020000005070010002000cb04070070
:1052fc000400370010002000c60407006000b8004e
:10530c00ec1c0700784380000800780020fc0700a4
:10531c00907b88000800ea001dfc0700a07b880039
:10532c008043800030fc070010438800407d8800db
:10533c000000ea00507d8800c47c8000e00f520021
:10534c0003003a002044800011fc0700007b880019
:10535c00347d8000e00f520004003a00304480009d
:10536c0021fc0700c0428800507c8800404480002b
:10537c001afc0700504388006143880054428000a7
:10538c00e00f520003003c00914280000000eb0053
:10539c00c81c070068448000d445800085848000c8
:1053ac00850f540003003a0075848000848f5200ee
:1053bc00540032008884880074848800e00f540004
:1053cc004b003200e00f52004900320008f0a700f9
:1053dc000804ea0005192000850f54000100340070
:1053ec0005047800e10f5200040032001500200083
:1053fc00e20f520006003a0002003700f22fef00d5
:10540c0001003700957f88000030ef000200370064
:10541c00957f8800058088009c08f800e60ff9004d
:10542c00a008f800ea0ff9009e08f800e80ff90050
:10543c009208f800c00ff9009608f800de0ff9008a
:10544c008e08f800bc0ff9009008f800be0ff900a8
:10545c00a208f800ec0ff90064448000e00f520041
:10546c0013003400b0458000cf80de0006f8270022
:10547c0006a3b900860f5000878f58000500340032
:10548c00d0efef0005f8270005a2b900b44588005d
:10549c0007003700cfa2de004729dd00c921de005e
:1054ac00830171004721dd0098ec0700d0efb700b5
:1054bc00a0458000e2fb0700907e8800aa08f80057
:1054cc00fe0ff900a608f800fa0ff900a808f8007a
:1054dc00fc0ff9006141b9003100200020002000d0
:1054ec0081040700200020004c0407000500370051
:1054fc0020002000470407008000eb001000200073
:10550c006c1c07008845800008007800ccfb070065
:10551c00607e88000800ea00c9fb0700707e8800e6
:10552c0090458000dcfb0700204588001080880037
:10553c000000ea0020808800947f8000e00f520079
:10554c0003003a0030468000bdfb0700d07d880088
:10555c0004808000e00f520004003a0040468000b6
:10556c00cdfb0700d0448800207f88005046800087
:10557c00c6fb0700604588007145880064448000c4
:10558c00e00f520003003c00a144800010002000fa
:10559c00481c070078468000e44780006584800042
:1055ac00850f540003003a0055848000848f52000c
:1055bc00540032006884880054848800e00f540042
:1055cc004b003200e00f52004900320008f0a700f7
:1055dc000804ea0005192000850f5400010034006e
:1055ec0005047800e10f5200040032001500200081
:1055fc00e20f520006003a00020037004c30ef0078
:10560c0001003700658288005a30ef000200370035
:10561c0065828800d5828800de08f8004010f90009
:10562c00e208f8004410f900e008f8004210f90014
:10563c00d408f8001a10f900d808f8003810f9004e
:10564c00d008f8001610f900d208f8001810f9006c
:10565c00e408f8004610f90074468000e00f520090
:10566c0013003400c0478000cf80de0006f827000e
:10567c0006a3b900860f5000878f58000500340030
:10568c002af0ef0005f8270005a2b900c4478800ee
:10569c0007003700cfa2de004729dd00c921de005c
:1056ac00830171004721dd0018ec07002af0b700d8
:1056bc00b04780008efb070060818800ec08f80082
:1056cc005810f900e808f8005410f900ea08f8003e
:1056dc005610f9006141b900310020004000200053
:1056ec000104070040002000cc0307000500370030
:1056fc0040002000c70307008000eb0020002000c2
:10570c00ec1b0700984780000800780078fb070026
:10571c00308188000800ea0075fb07004081880092
:10572c00a047800088fb070030478800e082880093
:10573c000000ea00f082880064828000e00f5200d2
:10574c0003003a004048800069fb0700a0808800f5
:10575c00d4828000e00f520004003a0050488000d0
:10576c0079fb0700e0468800f081880060488000e3
:10577c0072fb0700704788008147880074468000e0
:10578c00e00f520003003c00b146800020002000d6
:10579c00c81b07008148800001f0a7008100ea00c7
:1057ac008100ea00cf08de00282d20004444dd00f3
:1057bc0008007800232d07009148800001f0a70015
:1057cc008100ea008100ea00cf08de0008007800c2
:1057dc000000a0001b2d0700a148800001f0a700cd
:1057ec008100ea008100ea00cf08de0008007800a2
:1057fc000010a000132d0700b148800001f0a70095
:10580c008100ea008100ea00cf08de000800780081
:10581c003000b3000b2d0700284a8000c4848000a0
:10582c00840f540015003200c8848800e00f540027
:10583c001000320008f0a7000804ea005000200015
:10584c00740307000801780004192000840f51002c
:10585c000100340004017800cf91de0031002000fb
:10586c0050002000a0030700500020006b0307002d
:10587c00020037005000200066030700644a8000d5
:10588c00b5848000848f520016003200b4848800e6
:10589c00e00f520005003d0081d52900e0162100e3
:1058ac00ba1307009630ef004c29ef00b08480004b
:1058bc00e00f50000a0032000000eb005503070017
:1058cc00b2848000cf91de00610020000000eb006c
:1058dc00850307000000eb005003070001003700b0
:1058ec004c0307004f04780000000600889fbe00a0
:1058fc008a9fbe008c9fbe008e1f78002b2f070046
:10590c00682c20004444dd00f800b3001100200096
:10591c0008007800cb2c07008000eb000800780012
:10592c00af2c0700282d20004444dd008000eb0044
:10593c0008007800c32c0700080678000c00a000b3
:10594c008000eb000c007800be2c07008805780066
:10595c000b10a0008000eb000b007800b92c0700a6
:10596c00080578003a00b3008000eb000a007800cc
:10597c00b42c07008000eb0008007800982c07007e
:10598c008000eb000c007800952c07008000eb00e9
:10599c000b007800922c07008000eb000a007800c6
:1059ac008f2c0700ed2d2000c46edd000d07780054
:1059bc000e20a0008000eb000e007800a12c070048
:1059cc005d00b3008000eb000d0078009d2c0700fb
:1059dc00492e2000c44cdd006900b3008000eb00b0
:1059ec0009007800972c07008000eb000e0078006f
:1059fc007b2c07008000eb000d007800782c070052
:105a0c008000eb0009007800752c070011002000c5
:105a1c00080078008b2c0700110020000c00780087
:105a2c00882c0700110020000b007800852c070043
:105a3c00110020000a007800822c0700883e20000c
:105a4c00803e2000062f07000804e900fcff3a0006
:105a5c00292d2000c44cdd00880078000900780056
:105a6c00782c0700090078000000a000880078005e
:105a7c00742c0700090078000010a0008800780042
:105a8c00702c0700090078003000b3008800780003
:105a9c006c2c0700f301200002f0230041002000d1
:105aac00802d220023190700881f78001900200080
