:020000040000fa
:080000000002040000000000f2
:020000040000fa
:1000080088030000880300008803000088030000bc
:1000180088030000880300008803000088030000ac
:1000280088030000f670000088030000262e0000f8
:100038005645000020710000880300004c2e000087
:10004800722e000088030000880300008803000067
:1000580088030000606100008845000088030000f4
:10006800880300007e7f00008803000088030000ea
:10007800880300008a610000f27100001c72000011
:10008800ba4500008803000088030000a62e00007f
:10009800cc2e0000880300008803000088030000bd
:1000a800880300008803000088030000ac78000083
:1000b800ec4500004a710000747100009e71000058
:1000c800c87100008803000088030000880300004e
:1000d80088030000880300001e460000002f00006f
:1000e800262f000088030000128000005a2f00000d
:1000f800802f0000880300008803000088030000a8
:100108008803000090660000985b000088030000e8
:1001180088030000504600008803000088030000a0
:10012800880300008803000088030000880300009b
:1001380082460000b44600008803000088030000df
:10014800880300008803000088030000880300007b
:10015800880300008803000088030000880300006b
:10016800880300008803000088030000880300005b
:10017800880300008803000088030000880300004b
:10018800880300008803000088030000880300003b
:10019800880300008803000088030000880300002b
:1001a800880300008803000088030000880300001b
:1001b800880300008803000088030000880300000b
:1001c80088030000880300008803000088030000fb
:1001d80088030000880300008803000088030000eb
:1001e80088030000880300008803000088030000db
:0801f8008803000088030000e9
:020000040000fa
:1002080088030000880300008803000088030000ba
:1002180088030000880300008803000088030000aa
:1002280088030000f670000088030000262e0000f6
:100238005645000020710000880300004c2e000085
:10024800722e000088030000880300008803000065
:1002580088030000606100008845000088030000f2
:10026800880300007e7f00008803000088030000e8
:10027800880300008a610000f27100001c7200000f
:10028800ba4500008803000088030000a62e00007d
:10029800cc2e0000880300008803000088030000bb
:1002a800880300008803000088030000ac78000081
:1002b800ec4500004a710000747100009e71000056
:1002c800c87100008803000088030000880300004c
:1002d80088030000880300001e460000002f00006d
:1002e800262f000088030000128000005a2f00000b
:1002f800802f0000880300008803000088030000a6
:100308008803000090660000985b000088030000e6
:10031800880300005046000088030000880300009e
:100328008803000088030000880300008803000099
:1003380082460000b44600008803000088030000dd
:100348008803000088030000880300008803000079
:100358008803000088030000880300008803000069
:100368008803000088030000880300008803000059
:100378008803000088030000880300008803000049
:100388008803000088030000880300008803000039
:100398008803000088030000880300008803000029
:1003a8008803000088030000880300008803000019
:1003b8008803000088030000880300008803000009
:1003c80088030000880300008803000088030000f9
:1003d80088030000880300008803000088030000e9
:1003e80088030000880300008803000088030000d9
:0803f8008803000088030000e7
:020000040000fa
:100400000fcc23000e3f24000e01880000000000e6
:1004100000012000200288000c000700807f2800d7
:100420000100200011000700000020000000e00093
:100430000200320000000200000000000c3a02003e
:10044000000000000040da000000fe004440a90067
:10045000e0a421000000e0000300320000002000c2
:10046000a00188004440a800000006009101880017
:10047000800078000000eb0015003700e2804000ab
:1004800032a0b4009101ba00e280400032a0b40072
:100490009102ba00e280400032a0b4000002eb00fa
:1004a000472bde00f507b200602ce10004003a00a3
:1004b0000059eb008301e900fdff3e000400370016
:1004c0006128e100010032000082eb000400070017
:1004d0001101ba000200e000e8ff3a000000060047
:1004e0003159ba008301e9000c0032002159ba00e9
:1004f0008301e900080032000400e00003003a0034
:10050000e280400032a0b400f5ff370011d9ba00f4
:100510008301e900faff3a008100e800e180400031
:1005200032a0b4000000060000000400000000003b
:10053000000004000000000000740400000000003f
:10054000f674040000000000ca6604000000000009
:10055000c866040000000000a2780400000000004b
:100560006478040000000000a2670400000000009e
:10057000c466040000000000726704000000000070
:1005800042670400000000000a6804000000000048
:10059000883404000000000008350400000000005a
:1005a00068350400000000003e3504000000000033
:1005b0009648040000000000c84804000000000045
:1005c000f848040000000000384904000000000062
:1005d0008049040000000000c84904000000000039
:1005e0000e4a040000000000824a040000000000df
:1005f000ce4a0400000000001a4b04000000000076
:100600007a4b040000000000f44b040000000000de
:100610006c4c040000000000c04c0400000000000e
:10062000dc4c040000000000644d040000000000e9
:10063000bc4d040000000000f84d04000000000064
:10064000344e040000000000984e0400000000003a
:10065000ca4f0400000000000a8b040000000000e4
:10066000a85604000000000012560400000000001c
:10067000f4570400000000006c5704000000000064
:10068000ee56040000000000a286040000000000f6
:10069000ea86040000000000a680040000000000bc
:1006a000e630040000000000cc3004000000000030
:1006b000fa2f0400000000000a30040000000000cf
:1006c000523004000000000062300400000000000e
:1006d000aa30040000000000ba300400000000004e
:1006e000ce310400000000003a3204000000000097
:1006f000a632040000000000e0300400000000000a
:10070000da30040000000000a03304000000000004
:100710000040da000000fe00839f68000100e00056
:1007200002003d0060001000e08018000300e000bf
:1007300002003d0060011100e08119000500070082
:100740004f00e00002003b0060001000e080180055
:10075000000006006022b800060220000000d00061
:100760008180d2000482d2008582d2000000a000e5
:100770000202520083825a0003003100020242004a
:1007800083824a000000a1000603e900f3ff3a005b
:1007900000000600020ab900001bb9000200b80000
:1007a000810042008100430000000600889fbe00d7
:1007b0008a9fbe003004be002005be000404440031
:1007c00085844c0006054d0087854d000898be00c5
:1007d0000a90be000440e10005c8e10006d0e10037
:1007e00007d8e10002003100680040001008e8006e
:1007f0004f05be004f04be00000006001000fa00c6
:10080000889fbe008a9fbe000605be000404be008d
:100810003002be002003be00c4b79f00d5b79f00c2
:10082000e6b79f00f7b79f000802520089825a007e
:100830000a035b008b835b0084bf9f0095bf9f0012
:10084000a6bf9f00b7bf9f000498be000698be00d9
:10085000110020004fb29700dfb297006fb39700ee
:10086000ffb397000820e10009a8e1000ab0e10009
:100870000bb8e100010039008000eb001088100087
:100880004f05be004f04be000080fa0000000600c5
:100890001400fa00889fbe008a9fbe008c9fbe0095
:1008a0003f0007000605be000404be000006eb0082
:1008b000ccb79f00bcb79f00acb79f009cb79f0010
:1008c0008cb79f000d0420004fb39700bfb2970074
:1008d000860343002fb29700e00f530004003d0051
:1008e0003d0007000f004000b0ff07000300370085
:1008f000390007000f004000c0ff0700cfb297008b
:1009000095bf9f00e08f5200090035002b000700c3
:1009100014002000050020006033b80000007200c1
:100920008180720002017300838173001c00070044
:100930000c06e8008d0f5600e3ff3a001fba97003f
:10094000e00f520005003d000802be000a03be0091
:1009500000fe2f000f00400094ff07004faa9700f1
:10096000e00f520008003a000fb497009fb49700c0
:100970002fb59700bfb59700d8b79f00e9b79f0084
:10098000fab79f008bbf9f000c0007004f06be0008
:100990004f05be004f04be000080fa0000000600b4
:1009a000010007000000060090b79f00a1b79f005c
:1009b000b2b79f00c3b79f00000006000100070008
:1009c000000006001fb09700afb097003fb197003e
:1009d000cfb19700000006004f2bde0087037300a5
:1009e000a7b79f004f23de00858242008502730077
:1009f00095b79f00ffaa97004f2bde00040242002c
:100a00000402730084b79f006faa97004f23de0093
:100a10008582420085027300f5af9f00e9ff070061
:100a20004f18de000402420000027200e4af9f0093
:100a3000e4ff0700000040008180480002014900f7
:100a400083814900d8ff07000802be000a03be00e8
:100a500000fe2f0000000600881f7800180020000c
:100a6000881f78008aff07008f87e9004f0478000d
:100a700000000600801feb0085ff07008f87e9005c
:100a800000000600889fbe008a9fbe00e00f500055
:100a9000e08f5800e00f5900e08f59000c003d0036
:100aa0006044b8006055b8000000540081805c00cc
:100ab00002015d0083815d00180020001500070021
:100ac00008003d00180007000004eb000500370097
:100ad0000004eb000f00070002003d0012000700b9
:100ae00018002000dcff0700e00f54000600320071
:100af0006022b8006033b8000000520081805a00c4
:100b000002015b0083815b004f05be004f04be0005
:100b100000000600e00f5200e08f5a00e00f5b007b
:100b2000e08f5b00000006006044b8006055b8002c
:100b30000402540085825c0006035d0087835d002b
:100b400000000600889fbe008a9fbe008c1f7800b0
:100b5000e00f5000e08f5800e00f5900e08f59007f
:100b60000d003d006044b8006055b800000054001e
:100b700081805c0002015d0083815d001c0020001b
:100b80000820e10009a8e1000ab0e1000bb8e1008b
:100b90000d003d00080037000006eb00e00f52009a
:100ba000e08f5a00e00f5b00e08f5b0006003d0025
:100bb0006044b8006055b8000402540085825c00af
:100bc00006035d0087835d00aaff0700e00f560063
:100bd000060032006022b8006033b8000000520006
:100be00081805a0002015b0083815b004f06780020
:100bf0004f05be004f04be0000000600889fbe00e7
:100c00008a9fbe008c1f78000006eb00e00f5000aa
:100c1000e08f5800e00f5900e08f590007003d00b9
:100c20006044b8006055b8000000540081805c004a
:100c300002015d0083815d001c002000e00f520076
:100c4000e08f5a00e00f5b00e08f5b0007003d0083
:100c50006044b8006055b8000402540085825c000e
:100c600006035d0087835d000c00a2000c000700f6
:100c7000e00f5600060032006022b8006033b80072
:100c80000000520081805a0002015b0083815b00fa
:100c90004f0678004f05be004f04be00000006005e
:100ca000889fbe008a9fbe008c9fbe000404b800cf
:100cb0000506b8008904460060854e000606b800a7
:100cc0000a054600e0854e000706b8008b05460081
:100cd000040eb800890446000a854e00e0854d00e8
:100ce000050eb8000a0546008b854e00060eb800ba
:100cf0008b0546000416b8000a0546008b854e0099
:100d00000516b8008b054600041eb8008b0546008a
:100d10000800be000a01be004f06be004f05be001f
:100d20004f04be0000000600e68747008e1f7800d3
:100d3000d0bf9f0066875700012f78000e00370054
:100d40005fbb970016407800efba97001542780015
:100d50000201e900844f5000040032000080fb00d3
:100d60000482fb0004005000060037000603e80080
:100d7000d6bf9f00050fe800e00f5100f0ff3a00da
:100d8000020078004f0778006f00b10000000600f5
:100d90000002780002003700315a78000201e900b1
:100da000e00f5100fcff3a0000000600000278004e
:100db00002003700015a78000201e900e00f5100fb
:100dc000fcff3a0000000600000278008402780070
:100dd000050278000043eb00b44f1300fbff3a001c
:100de00031427800845a7800e04f5200fcff3a000c
:100df0000000060000027800b1427800055a780031
:100e0000e0cf5200fcff3a0000000600000278002c
:100e10008042eb00b4cf1200fdff3a000080ea00f0
:100e20000000420000000600800278000502780001
:100e30000043eb00b54f1300fcff3a000100370000
:100e40000201e900e00f510005003200b1427800d4
:100e5000055a7800e0cf5200f9ff3a000000060082
:080e6000024a780000000600c0
:020000040000fa
:100e68004164000064720000657300007320000094
:100e78006f750000742000006f660000207300008a
:100e880065740000746900006e670000730000005c
:100e98004d6f00006c6f00006c650000206500005d
:100ea800727200006f7200002030000078000000ad
:100eb800206900006e200000666900006c65000073
:100ec8003a200000003a0000005300006c65000062
:100ed80065700000206d00006f6400006520000050
:100ee8006e6f0000742000007375000070700000c1
:100ef8006f72000074650000640000004572000015
:100f0800726f0000723a0000206d0000696e0000e8
:100f1800203d00003d2000003078000046460000db
:100f280046460000464600004646000020210000d4
:100f380000450000727200006f7200003a20000045
:100f4800556e0000616200006c65000020740000ae
:100f58006f200000666c00006173000068200000cc
:100f68006279000074650000636f0000646500002a
:100f78002028000031290000202100000045000041
:100f8800727200006f7200003a200000556e000077
:100f9800616200006c650000207400006f20000092
:100fa800666c000061730000682000006279000030
:100fb80074650000636f000064650000202800006d
:100fc8003229000020210000004500007272000054
:100fd8006f7200003a200000556e00006162000048
:100fe8006c650000207400006f200000666c000033
:100ff80061730000682000006279000074650000d9
:10100800636f000064650000202800003329000099
:1010180020210000004600006c6100007368000099
:10102800696e0000672000004f4b0000005f000061
:101038006964000000650000766500006e740000b9
:101048002e7300006f7500007263000065000000d9
:1010580065760000656e0000742e00006172000065
:1010680067730000005f0000667700007665000087
:1010780072730000696f00006e0000005f7000006e
:10108800726f00006475000063740000496400001a
:10109800006d0000302e000070690000642e000012
:1010a8005f70000065720000696f00006400000056
:1010b8006d3000002e700000696400002e5f000093
:1010c8006b7000005f690000006d0000302e0000aa
:1010d80070690000642e00005f6b0000695f00000b
:1010e800690000006d3000002e7000006964000087
:1010f8002e5f000073630000616c000065720000e1
:101108005f690000006d0000302e0000707700005d
:101118006d0000006d3000002e7000006964000052
:101128002e5f0000707200006573000063610000ac
:101138006c650000725f0000730000006d300000f5
:101148002e700000696400002e5f000063750000c7
:1011580072720000656e0000745f0000737000001a
:1011680065650000645f0000707500006c73000026
:10117800650000006d3000002e70000069640000fa
:101188002e5f000074610000726700006574000043
:101198005f73000070650000656400005f70000008
:1011a800756c000073650000006d0000302e0000b3
:1011b80070690000642e00005f6b0000705f000023
:1011c800730000006d3000002e700000696400009c
:1011d8002e5f00006b6900005f730000006d000067
:1011e800302e000070690000642e00005f6b000064
:1011f800645f0000730000006d3000002e70000076
:10120800696400002e5f000073630000616c0000d9
:10121800657200005f730000006d0000302e000052
:1012280070690000642e00005f73000070650000a4
:10123800656400005f6d0000617800005f70000069
:10124800756c000073650000006d0000302e000012
:1012580070690000642e00005f6b0000705f000082
:10126800700000006d3000002e70000069640000fe
:101278002e5f00006b6400005f700000006d0000ce
:10128800302e000070690000642e00005f730000bb
:10129800636100006c650000725f00007000000070
:1012a8006d3000002e700000696400002e5f0000a1
:1012b8007461000072670000657400005f700000d0
:1012c8006f73000069740000696f00006e5f0000b2
:1012d800707500006c730000650000006d30000040
:1012e8002e700000696400002e6300007572000013
:1012f800726500006e7400005f6d00006178000088
:10130800006d0000302e000070690000642e00009f
:101318007370000065650000645f00006d61000087
:10132800780000006d3000002e7000006964000035
:101338002e5f00006e6f00006d6900006e61000096
:101348006c5f00006375000072720000656e00003b
:10135800740000006d3000002e7000006964000009
:101368002e5f0000746900006d6500005f63000077
:1013780073740000006d0000302e000070690000da
:10138800642e00005f6f0000766500007272000036
:1013980069640000650000006d3000002e700000d8
:1013a800696400002e6500006e610000626c000038
:1013b800650000006d3000002e6500006e630000bf
:1013c8002e5f0000707500006c730000650000005f
:1013d8006d3000002e630000757200007265000019
:1013e8006e740000006d0000302e00007370000065
:1013f80065650000640000006d3000002e7000007c
:101408006f73000069740000696f00006e000000cf
:101418006d3000002e700000696400002e7400001a
:101428006172000067650000745f0000637500006a
:1014380072720000656e0000740000006d300000dc
:101448002e700000696400002e74000061720000b4
:1014580067650000745f0000737000006565000038
:10146800640000006d3000002e7000006964000008
:101478002e7400006172000067650000745f000050
:10148800706f000073690000746900006f6e0000df
:10149800006d0000302e00005f72000061770000d0
:1014a8005f63000075720000726500006e740000d2
:1014b800006d0000312e000070690000642e0000ed
:1014c8005f70000065720000696f00006400000032
:1014d8006d3100002e700000696400002e5f00006e
:1014e8006b7000005f690000006d0000312e000085
:1014f80070690000642e00005f6b0000695f0000e7
:10150800690000006d3100002e7000006964000061
:101518002e5f000073630000616c000065720000bc
:101528005f690000006d0000312e00007077000038
:101538006d0000006d3100002e700000696400002d
:101548002e5f000070720000657300006361000088
:101558006c650000725f0000730000006d310000d0
:101568002e700000696400002e5f000063750000a3
:1015780072720000656e0000745f000073700000f6
:1015880065650000645f0000707500006c73000002
:10159800650000006d3100002e70000069640000d5
:1015a8002e5f00007461000072670000657400001f
:1015b8005f73000070650000656400005f700000e4
:1015c800756c000073650000006d0000312e00008e
:1015d80070690000642e00005f6b0000705f0000ff
:1015e800730000006d3100002e7000006964000077
:1015f8002e5f00006b6900005f730000006d000043
:10160800312e000070690000642e00005f6b00003e
:10161800645f0000730000006d3100002e70000050
:10162800696400002e5f000073630000616c0000b5
:10163800657200005f730000006d0000312e00002d
:1016480070690000642e00005f7300007065000080
:10165800656400005f6d0000617800005f70000045
:10166800756c000073650000006d0000312e0000ed
:1016780070690000642e00005f6b0000705f00005e
:10168800700000006d3100002e70000069640000d9
:101698002e5f00006b6400005f700000006d0000aa
:1016a800312e000070690000642e00005f73000096
:1016b800636100006c650000725f0000700000004c
:1016c8006d3100002e700000696400002e5f00007c
:1016d8007461000072670000657400005f700000ac
:1016e8006f73000069740000696f00006e5f00008e
:1016f800707500006c730000650000006d3100001b
:101708002e700000696400002e63000075720000ee
:10171800726500006e7400005f6d00006178000063
:10172800006d0000312e000070690000642e00007a
:101738007370000065650000645f00006d61000063
:10174800780000006d3100002e7000006964000010
:101758002e5f00006e6f00006d6900006e61000072
:101768006c5f00006375000072720000656e000017
:10177800740000006d3100002e70000069640000e4
:101788002e5f0000746900006d6500005f63000053
:1017980073740000006d0000312e000070690000b5
:1017a800642e00005f6f0000766500007272000012
:1017b80069640000650000006d3100002e700000b3
:1017c800696400002e6500006e610000626c000014
:1017d800650000006d3100002e6500006e6300009a
:1017e8002e5f0000707500006c730000650000003b
:1017f8006d3100002e6300007572000072650000f4
:101808006e740000006d0000312e0000737000003f
:1018180065650000640000006d3100002e70000056
:101828006f73000069740000696f00006e000000ab
:101838006d3100002e700000696400002e740000f5
:101848006172000067650000745f00006375000046
:1018580072720000656e0000740000006d310000b7
:101868002e700000696400002e7400006172000090
:1018780067650000745f0000737000006565000014
:10188800640000006d3100002e70000069640000e3
:101898002e7400006172000067650000745f00002c
:1018a800706f000073690000746900006f6e0000bb
:1018b800006d0000312e00005f72000061770000ab
:1018c8005f63000075720000726500006e740000ae
:1018d800006d0000322e000070690000642e0000c8
:1018e8005f70000065720000696f0000640000000e
:1018f8006d3200002e700000696400002e5f000049
:101908006b7000005f690000006d0000322e00005f
:1019180070690000642e00005f6b0000695f0000c2
:10192800690000006d3200002e700000696400003c
:101938002e5f000073630000616c00006572000098
:101948005f690000006d0000322e00007077000013
:101958006d0000006d3200002e7000006964000008
:101968002e5f000070720000657300006361000064
:101978006c650000725f0000730000006d320000ab
:101988002e700000696400002e5f0000637500007f
:1019980072720000656e0000745f000073700000d2
:1019a80065650000645f0000707500006c730000de
:1019b800650000006d3200002e70000069640000b0
:1019c8002e5f0000746100007267000065740000fb
:1019d8005f73000070650000656400005f700000c0
:1019e800756c000073650000006d0000322e000069
:1019f80070690000642e00005f6b0000705f0000db
:101a0800730000006d3200002e7000006964000051
:101a18002e5f00006b6900005f730000006d00001e
:101a2800322e000070690000642e00005f6b000019
:101a3800645f0000730000006d3200002e7000002b
:101a4800696400002e5f000073630000616c000091
:101a5800657200005f730000006d0000322e000008
:101a680070690000642e00005f730000706500005c
:101a7800656400005f6d0000617800005f70000021
:101a8800756c000073650000006d0000322e0000c8
:101a980070690000642e00005f6b0000705f00003a
:101aa800700000006d3200002e70000069640000b4
:101ab8002e5f00006b6400005f700000006d000086
:101ac800322e000070690000642e00005f73000071
:101ad800636100006c650000725f00007000000028
:101ae8006d3200002e700000696400002e5f000057
:101af8007461000072670000657400005f70000088
:101b08006f73000069740000696f00006e5f000069
:101b1800707500006c730000650000006d320000f5
:101b28002e700000696400002e63000075720000ca
:101b3800726500006e7400005f6d0000617800003f
:101b4800006d0000322e000070690000642e000055
:101b58007370000065650000645f00006d6100003f
:101b6800780000006d3200002e70000069640000eb
:101b78002e5f00006e6f00006d6900006e6100004e
:101b88006c5f00006375000072720000656e0000f3
:101b9800740000006d3200002e70000069640000bf
:101ba8002e5f0000746900006d6500005f6300002f
:101bb80073740000006d0000322e00007069000090
:101bc800642e00005f6f00007665000072720000ee
:101bd80069640000650000006d3200002e7000008e
:101be800696400002e6500006e610000626c0000f0
:101bf800650000006d3200002e6500006e63000075
:101c08002e5f0000707500006c7300006500000016
:101c18006d3200002e6300007572000072650000ce
:101c28006e740000006d0000322e0000737000001a
:101c380065650000640000006d3200002e70000031
:101c48006f73000069740000696f00006e00000087
:101c58006d3200002e700000696400002e740000d0
:101c68006172000067650000745f00006375000022
:101c780072720000656e0000740000006d32000092
:101c88002e700000696400002e740000617200006c
:101c980067650000745f00007370000065650000f0
:101ca800640000006d3200002e70000069640000be
:101cb8002e7400006172000067650000745f000008
:101cc800706f000073690000746900006f6e000097
:101cd800006d0000322e00005f7200006177000086
:101ce8005f63000075720000726500006e7400008a
:101cf800006c00006564000000750000736500005a
:101d0800725f000073770000697400006368000068
:101d180000620000617400007465000072790000c0
:101d28002e69000064000000626100007474000005
:101d380065720000792e0000766f00006c74000058
:101d480061670000650000006261000074740000b3
:101d580065720000792e0000746500006d70000047
:101d68006572000061740000757200006500000073
:101d7800686100006c6c00005f640000006800008f
:101d8800616c00006c5f0000610000006972000077
:101d98002e6100006d620000696100006e74000031
:101da80000690000722e000072650000666c000079
:101db800656300007465000064000000697200003b
:101dc8002e640000656c0000746100000073000060
:101dd800656e0000736f0000727300002e700000c3
:101de80065720000696f0000640000006163000014
:101df80063000000746900006d6500007200000057
:101e08007370000065650000643200000072000015
:101e18005f6300006f7500006e7400003200000000
:101e280002000000010000001b8800000100000003
:101e38001f880000200000002c880000020000001d
:101e480037880000010000004288000001000000ff
:101e58004d880000010000005c88000001000000bf
:101e68006988000001000000768800000100000079
:101e780087880000010000008e8800000100000033
:101e8800a288000001000000be88000001000000d8
:101e9800d988000001000000e68800000100000069
:101ea800f388000001000000008900000100000024
:101eb80011890000010000002989000001000000cc
:101ec800368900000100000043890000020000007c
:101ed8005489000001000000728900000100000020
:101ee80085890000010000009689000001000000bb
:101ef800ae89000001000000bf8900000100000059
:101f0800d089000002000000de8900000100000006
:101f1800ec89000001000000f789000001000000c2
:101f2800008a0000010000000c8a00000100000087
:101f3800228a000001000000368a0000010000002b
:101f48004d8a0000010000005d8a000001000000c9
:101f58006c8a000001000000798a0000010000007e
:101f6800868a000001000000978a00000100000036
:101f78009e8a000001000000b28a000001000000f3
:101f8800ce8a000001000000e98a0000010000007c
:101f9800f68a000001000000038b00000100000029
:101fa800108b000001000000218b000001000000e0
:101fb800398b000001000000468b00000100000082
:101fc800538b000002000000648b00000100000039
:101fd800828b000001000000958b000001000000ca
:101fe800a68b000001000000be8b0000010000006d
:101ff800cf8b000001000000e08b00000200000011
:10200800ee8b000001000000fc8b000001000000c6
:10201800078c000001000000108c00000100000087
:102028001c8c000001000000328c00000100000040
:10203800468c0000010000005d8c000001000000db
:102048006d8c0000010000007c8c00000100000085
:10205800898c000001000000968c0000010000003f
:10206800a78c000001000000ae8c000001000000f9
:10207800c28c000001000000de8c0000010000009e
:10208800f98c000001000000068d0000010000002e
:10209800138d000001000000208d000001000000e9
:1020a800318d000001000000498d00000100000092
:1020b800568d000001000000638d00000200000042
:1020c800748d000001000000928d000001000000e6
:1020d800a58d000001000000b68d00000100000081
:1020e800ce8d000001000000df8d0000010000001f
:1020f800f08d000002000000fe8d000001000000cd
:102108000c8e000001000000178e00000100000086
:10211800208e0000010000002c8e0000010000004d
:10212800428e000001000000568e000001000000f1
:102138006d8e0000040000007d8e0000010000008c
:10214800818e0000040000008d8e00000100000058
:10215800988e000001000000a88e00000300000017
:10216800bc8e000003000000c38e000003000000c6
:10217800ca8e000003000000d58e00000300000096
:10218800e28e000001000000eb8e0000030000005a
:10219800fa8e000001000000fe8e00000100000021
:1021a800048f0000010000000b8f000000000000f9
:1021b80000000000de000000ad000000ca000000c2
:1021c800fe000000be000000ef0000000400000058
:1021d80002000000c4660000726700004267000049
:1021e8000a680000883400000835000068350000df
:1021f8003e35000096480000c8480000f848000036
:102208003849000080490000c84900000e4a000013
:10221800824a0000ce4a00001a4b00007a4b0000a8
:10222800f44b00006c4c0000c04c0000dc4c00007b
:10223800644d0000bc4d0000f84d0000344e000015
:10224800984e0000ca4f00006d3000005f6d00001e
:102258006f7400006f720000004d00003020000015
:102268006d6f0000746f0000722000007469000038
:102278006d650000720000006d3000005f6f0000a7
:10228800760000004d300000206d00006f740000e3
:102298006f720000206f0000766500007263000016
:1022a80075720000726500006e740000006d000019
:1022b800305f00006f7600005f6300006c6500000f
:1022c8006172000065640000004d000030200000cd
:1022d8006d6f0000746f0000722000006f760000c0
:1022e800657200006375000072720000656e000080
:1022f80074200000636c00006561000072650000d6
:10230800640000006d3100005f6d00006f74000014
:102318006f720000004d0000312000006d6f00005a
:10232800746f000072200000746900006d65000081
:10233800720000006d3100005f6f00007600000041
:102348004d310000206d00006f7400006f720000b6
:10235800206f00007665000072630000757200004f
:10236800726500006e740000006d0000315f0000af
:102378006f7600005f6300006c650000617200000a
:1023880065640000004d0000312000006d6f000002
:10239800746f0000722000006f7600006572000004
:1023a8006375000072720000656e00007420000002
:1023b800636c000065610000726500006400000045
:1023c8006d3200005f6d00006f7400006f720000d6
:1023d800004d0000322000006d6f0000746f000097
:1023e80072200000746900006d6500007200000032
:1023f8006d3200005f6f0000760000004d32000073
:10240800206d00006f7400006f720000206f0000e4
:102418007665000072630000757200007265000046
:102428006e740000006d0000325f00006f760000df
:102438005f6300006c650000617200006564000065
:10244800004d0000322000006d6f0000746f000026
:10245800722000006f76000065720000637500004e
:1024680072720000656e000074200000636c00004a
:1024780065610000726500006400000041630000af
:10248800636500006c650000726f00006d650000f8
:10249800746500007220000075700000646100001f
:1024a8007465000064000000746900006d65000038
:1024b8007230000000740000696d00006572000051
:1024c8002030000000730000656e0000736f00008c
:1024d80072730000004e0000657700002061000064
:1024e8006e6100006c6f00006720000073650000db
:1024f8006e7300006f7200007320000076610000a8
:102508006c75000065000000289100003191000002
:1025180040910000469100005b9100006991000025
:10252800869100008f9100009e910000a491000008
:10253800b9910000c7910000e4910000ed910000fe
:10254800fc91000002920000179200002592000002
:10255800fa8e000042920000589200005f9200003c
:10256800679200006f920000000000000000000069
:102578005f73000079730000746500006d2e000021
:1025880072650000626f00006f7400000052000066
:10259800656200006f6f000074200000746800001e
:1025a800652000006d690000637200006f63000021
:1025b8006f6e0000747200006f6c00006c650000a4
:1025c800720000005f7300007973000074650000fa
:1025d8006d2e00007365000074740000696e0000c1
:1025e800677300002e72000065610000640000003f
:1025f8005265000061640000206100002073000043
:1026080065740000746900006e67000000610000d6
:1026180064640000726500007373000000760000b7
:10262800616c000075650000005f000073790000b0
:1026380073740000656d00002e730000657400005f
:10264800746900006e670000732e00007772000046
:10265800697400006500000057720000697400008a
:10266800652000006120000073650000747400009c
:10267800696e0000670000005f7300007973000056
:10268800746500006d2e000073650000747400000e
:10269800696e0000677300002e6600006c61000020
:1026a800736800000057000072690000746500003c
:1026b8002074000068650000207300006574000045
:1026c800746900006e67000073200000696e0000e6
:1026d800746f0000206600006c61000073680000e1
:1026e800000000006d610000746800002e630000a7
:1026f8006f70000079000000636f000070690000cf
:1027080065730000207300007263000020740000ed
:102718006f200000646500007374000020650000ed
:102728006c6500006d6500006e740000206200009a
:1027380079200000656c0000656d0000656e000082
:1027480074000000646500007374000000730000ea
:102758007263000000000000769300008093000080
:10276800ffff0000a6930000ffff0000ab930000ee
:1027780000000000000000006d61000074680000a7
:102788002e660000696c00006c000000666900009d
:102798006c6c000073200000646500007374000016
:1027a800207700006974000068200000636f000053
:1027b8006e730000746100006e74000020760000e3
:1027c800616c00007565000000760000616c000017
:1027d8007565000000000000c0930000ca93000067
:1027e800ffff0000a693000001000000e99300002d
:1027f80000000000000000006d6100007468000027
:102808002e6100006464000073630000616c0000c6
:102818006172000000610000646400002073000021
:10282800636100006c61000072200000746f00009a
:10283800206500006163000068200000656c0000ee
:10284800656d0000656e0000742000006f66000072
:102858002073000072630000206100006e640000b5
:1028680020730000746f0000726500002072000081
:1028780065730000756c000074200000746f000020
:10288800206400006573000074000000736300009a
:10289800616c0000617200000000000000940000fc
:1028a8000f940000ffff0000a6930000ffff000048
:1028b800ab930000010000004a94000000000000f3
:1028c800000000006d610000746800002e610000c7
:1028d800646400000061000064640000732000006c
:1028e8007372000063310000206100006e64000014
:1028f800207300007263000032200000746f000033
:102908002064000065730000742c0000206500003e
:102918006c6500006d6500006e74000020620000a8
:1029280079200000656c0000656d0000656e000090
:10293800740000007372000063310000007300002f
:102948007263000032000000669400006f9400007b
:10295800ffff0000a6930000ffff00009e94000008
:10296800ffff0000a394000000000000000000002a
:102978006d610000746800002e730000756200002d
:10298800007300007562000073740000726100003b
:10299800637400007320000073720000633200004b
:1029a80020660000726f00006d2000007372000046
:1029b80063310000207400006f200000646500008f
:1029c800737400002c200000656c0000656d000029
:1029d800656e000074200000627900002065000028
:1029e8006c6500006d6500006e740000000000005a
:1029f800bc940000c5940000ffff0000a6930000ef
:102a0800ffff00009e940000ffff0000a394000059
:102a180000000000000000006d6100007468000004
:102a28002e6d0000756c0000006d0000756c0000d4
:102a380074690000706c0000696500007320000074
:102a48007372000063310000206100006e640000b2
:102a5800207300007263000032200000746f0000d1
:102a68002064000065730000742c000020650000dd
:102a78006c6500006d6500006e7400002062000047
:102a880079200000656c0000656d0000656e00002f
:102a9800740000001095000019950000ffff000069
:102aa800a6930000ffff00009e940000ffff0000b7
:102ab800a394000000000000000000006d61000009
:102ac800746800002e64000069760000006400004d
:102ad80069760000696400006573000020730000d7
:102ae800726300003120000062790000207300004a
:102af8007263000032200000746f00002064000040
:102b080065730000742c0000206500006c650000ef
:102b18006d6500006e7400002062000079200000de
:102b2800656c0000656d0000656e000074000000b3
:102b3800629500006b950000ffff0000a69300005f
:102b4800ffff00009e940000ffff0000a394000018
:102b580000000000000000006d61000074680000c3
:102b68002e6d0000696e0000007700007269000099
:102b78007465000073200000746800006520000080
:102b88006d6900006e6900006d7500006d20000021
:102b98006f6600002073000072630000312000009f
:102ba800616e000064200000737200006332000050
:102bb800207400006f20000064650000737400003a
:102bc8002c200000656c0000656d0000656e00003b
:102bd8007420000062790000206500006c65000028
:102be8006d6500006e74000000000000b0950000e4
:102bf800b9950000ffff0000a6930000ffff00004a
:102c08009e940000ffff0000a39400000000000055
:102c1800000000006d610000746800002e6d000067
:102c28006178000000770000726900007465000098
:102c38007320000074680000652000006d610000ca
:102c4800786900006d7500006d2000006f66000057
:102c5800207300007263000031200000616e0000e4
:102c680064200000737200006332000020740000ca
:102c78006f20000064650000737400002c200000c1
:102c8800656c0000656d0000656e00007420000032
:102c980062790000206500006c6500006d65000029
:102ca8006e740000000000000e96000017960000e9
:102cb800ffff0000a6930000ffff00009e940000a5
:102cc800ffff0000a39400000000000000000000c7
:102cd8006d610000746800002e6300006c610000e4
:102ce8006d700000006300006c6100006d700000f2
:102cf8002073000072630000207400006f20000041
:102d08006c6f0000772f000068690000676800009a
:102d1800206200006f7500006e64000073200000e0
:102d2800696e0000746f0000206400006573000085
:102d3800742c0000206500006c6500006d650000c3
:102d48006e7400002062000079200000656c0000ad
:102d5800656d0000656e0000740000006c6f000077
:102d68007700000068690000676800000000000044
:102d78006c96000077960000ffff0000a693000005
:102d8800ffff0000ab930000ffff0000b2960000b9
:102d9800ffff0000b69600000000000000000000e1
:102da8006d610000746800002e6400006f740000fc
:102db800007700007269000074650000732000004d
:102dc8007468000065200000646f00007420000033
:102dd800707200006f6400007563000074200000ca
:102de8006f6600002073000072630000312000004d
:102df800616e0000642000007372000063320000fe
:102e0800207400006f2000006465000073740000e7
:102e18002c2000006166000074650000722000002c
:102e280061200000736800006966000074000000fb
:102e3800736800006966000074000000d496000002
:102e4800dd96000001000000a6930000ffff0000cf
:102e58009e940000ffff0000a39400000100000002
:102e68001c97000000000000000000006d610000d9
:102e7800746800002e730000746100007400000084
:102e880070650000726600006f7200006d730000cc
:102e980020730000746100007469000073740000fe
:102ea80069630000732000006f6e0000207300004b
:102eb80072630000006d0000696e0000006d000084
:102ec80061780000006d0000656100006e00000080
:102ed8003a97000044970000ffff0000ab93000002
:102ee800010000005f9700000100000063970000e8
:102ef80001000000679700000000000000000000cb
:102f08006d610000746800002e61000072670000a7
:102f1800626f0000756e00006473000000670000b7
:102f280065740000207400006865000020690000d6
:102f38006e640000696300006573000020280000cb
:102f480061720000676d0000696e00002c200000af
:102f580061720000676d00006178000029200000a0
:102f68006f6600002074000068650000206c000097
:102f7800696d00006974000020760000616c000033
:102f880075650000732000006f6600002073000064
:102f98007263000000610000726700006d69000044
:102fa8006e00000061720000676d0000617800002b
:102fb800000000008497000093970000ffff0000c6
:102fc800ab93000001000000cf9700000100000053
:102fd800d697000000000000000000006d610000ae
:102fe800746800002e7300006f7200007400000007
:102ff800736f00007274000020610000727200009c
:1030080061790000206900006e200000706c0000eb
:1030180061630000650000006172000072610000d9
:1030280079000000f2970000fc970000ffff000005
:103038001098000000000000000000006d61000012
:10304800746800002e6d0000756c00006469000053
:103058007600000070650000726600006f72000064
:103068006d73000020640000657300007420000088
:103078003d200000286100002a620000292f00007e
:1030880063200000696e0000203300003220000039
:103098006269000074730000206500006c65000020
:1030a8006d6500006e740000206200007920000049
:1030b800656c0000656d0000656e0000740000001e
:1030c8006100000062000000630000002298000018
:1030d8002e980000ffff0000a6930000ffff0000ed
:1030e80064980000ffff000066980000ffff0000e2
:1030f8006898000000000000000000006d610000fa
:10310800746800002e610000746100006e320000d7
:103118000070000065720000666f0000726d0000ac
:10312800732000006465000073740000203d0000f7
:1031380020610000746100006e32000028790000f0
:103148002c78000029200000656c0000656d0000e7
:10315800656e0000742000006279000020650000a0
:103168006c6500006d6500006e7400000079000059
:103178000078000000000000829800008d98000090
:10318800ffff0000a6930000ffff0000bb980000af
:10319800ffff0000bd9800000000000000000000d4
:1031a8006d610000746800002e730000696e0000f5
:1031b8000070000065720000666f0000726d00000c
:1031c800732000006465000073740000203d000057
:1031d80020730000696e0000287800002920000094
:1031e800656c0000656d0000656e000074200000cd
:1031f80062790000206500006c6500006d650000c4
:103208006e74000000000000d4980000dd980000f3
:10321800ffff0000a6930000ffff0000bd9800001c
:1032280000000000000000006d61000074680000ec
:103238002e6300006f7300000070000065720000cc
:10324800666f0000726d0000732000006465000066
:1032580073740000203d0000206300006f730000bd
:103268002878000029200000656c0000656d0000ca
:10327800656e00007420000062790000206500007f
:103288006c6500006d6500006e74000000000000b1
:103298001899000021990000ffff0000a693000084
:1032a800ffff0000bd9800000000000000000000c3
:1032b8006d610000746800002e7200006f740000d9
:1032c80032000000726f0000746100007465000035
:1032d80073200000762000006f6600002061000067
:1032e8006e6700006c65000020610000207400001b
:1032f8006f20000064650000737400000076000011
:10330800000000005c9900006699000002000000bf
:10331800a69300000200000083990000010000004d
:103328006498000000000000000000006d610000cb
:10333800746800002e7300007172000074000000b1
:1033480070650000726600006f7200006d73000007
:103358002064000065730000742000003d20000018
:1033680073710000727400002878000029200000a2
:10337800656c0000656d0000656e0000742000003b
:1033880062790000206500006c6500006d65000032
:103398006e740000000000009a990000a4990000d3
:1033a800ffff0000a6930000ffff0000bd9800008b
:1033b80000000000000000006d610000746800005b
:1033c8002e6e00007a73000065710000007700001f
:1033d8007269000074650000207400006f2000000e
:1033e80064650000737400002074000068650000c4
:1033f800206d000069640000646c00006520000016
:10340800696e000064650000782000006f660000a7
:103418002074000068650000206c000061720000e4
:103428006765000073740000207300006571000078
:10343800756500006e630000652000006f6600007f
:10344800206e00006f6e00002d7a0000657200008b
:103458006f200000656c0000656d0000656e00005f
:103468007473000020660000726f00006d20000079
:1034780073720000632c0000202d00003120000032
:1034880069660000206e00006f740000206600006e
:103498006f7500006e640000206f0000722000004d
:1034a80069660000207300006d6100006c6c00000c
:1034b8006572000020740000686100006e20000042
:1034c8006d6900006e4c0000656e000067740000b6
:1034d800680000006d6900006e4c0000656e000019
:1034e8006774000068000000e0990000eb99000094
:1034f80001000000a6930000ffff0000ab9300004e
:10350800010000006e9a00000000000000000000aa
:103518006d610000746800002e720000616e00008a
:1035280064000000666900006c6c00002061000007
:103538007272000061790000207700006974000051
:1035480068200000726100006e6400006f6d00006a
:1035580020760000616c00007565000073000000b3
:103568008c9a0000969a0000ffff0000a6930000c6
:1035780000000000000000000000000093010000af
:1035880024030000b704000048060000da07000022
:103598006b090000fc0a00008c0c00001c0e0000e7
:1035a800ab0f00003b110000c812000056140000c9
:1035b800e31500006e170000f9180000831a0000d8
:1035c8000c1c0000941d00001a1f0000a020000021
:1035d80024220000a723000029250000a8260000b7
:1035e80027280000a4290000202b0000992c0000a7
:1035f800122e0000872f0000fc3000006f32000000
:10360800df3300004e350000ba36000025380000d0
:103618008d390000f33a0000573c0000b93d000026
:10362800173f000074400000ce4100002643000010
:103638007b440000cd4500001d4700006a4800009b
:10364800b4490000fc4a0000404c0000824d0000d4
:10365800c04e0000fc4f00003451000069520000c9
:103668009b530000ca540000f65500001e57000086
:103678004358000064590000835a00009d5b000015
:10368800b45c0000c85d0000d75e0000e45f000085
:10369800ec600000f1610000f2620000ef630000de
:1036a800e9640000de650000d0660000bd67000028
:1036b800a76800008c6900006e6a00004b6b000070
:1036c800246c0000f96c0000ca6d0000976e0000c1
:1036d8005f6f000023700000e37000009e7100001f
:1036e8005572000008730000b67300006074000093
:1036f80005750000a575000042760000d976000027
:103708006c770000fb7700008478000009790000de
:103718008a790000067a00007d7a0000ef7a0000be
:103728005d7b0000c67b00002a7c0000897c0000cd
:10373800e47c0000397d00008a7d0000d77d000010
:103748001d7e0000607e00009d7e0000d67e000089
:10375800097f0000397f0000627f0000877f00003a
:10376800a77f0000c27f0000d87f0000ea7f00002a
:10377800f67f0000fe7f0000ff7f00008c02000043
:10378800df0200003003000080030000d1030000c6
:103798002204000073040000c204000014050000a5
:1037a800b305000054060000f10600008f07000072
:1037b8002d080000ca08000063090000fc09000089
:1037c800340b00005c0c0000820d0000a40e000009
:1037d800bd0f0000d3100000e2110000e712000046
:1037e800ef140000cc16000092180000401a0000e8
:1037f800d61b0000531d0000b51e00000b20000062
:10380800792200008d2400006f2600001428000093
:1038180090290000e02a0000112c0000252d00004e
:10382800052f000089300000d3310000ec32000081
:10383800dd330000ae340000673500000d360000af
:1038480020370000fb370000b23800004a3900007a
:10385800cc3900003b3a00009b3a0000f33a0000e4
:10386800833b0000f43b0000513c00009f3c0000fb
:10387800e13c00001a3d00004b3d0000783d00008f
:10388800c03d0000f93d0000283e00004f3e00000a
:10389800703e00008d3e0000a53e0000bc3e0000ca
:1038a800e03e0000fd3e0000143f0000283f0000fd
:1038b800383f0000473f0000533f00005e3f0000d4
:1038c800703f00007f3f00008a3f0000943f0000e7
:1038d8009c3f0000a43f0000aa3f0000af3f00004b
:1038e800b83f0000c03f0000c53f0000cb3f0000cc
:1038f800ce3f0000d23f0000d53f0000d83f000077
:10390800dc3f0000e03f0000e33f0000e53f00002f
:10391800e83f0000e93f0000eb3f0000ec3f0000fb
:10392800ee3f0000f13f0000f13f0000f33f0000d0
:10393800f43f0000f53f0000f53f0000f73f0000ae
:10394800f73f0000f93f0000f83f0000fa3f000091
:10395800fa3f0000fa3f0000fb3f0000fb3f000079
:10396800fc3f0000fc3f0000fc3f0000fe3f000061
:10397800fd3f0000fd3f0000fd3f0000fe3f00004e
:10398800fe3f0000fe3f0000fe3f0000fe3f00003b
:10399800fe3f000000400000ff3f0000ff3f000026
:1039a800ff3f0000ff3f0000ff3f0000ff3f000017
:1039b800ff3f0000ff3f0000ff3f0000ff3f000007
:1039c800ff3f0000004000000040000000400000f1
:1039d80000400000004000000040000000400000df
:1039e80000400000004000000040000000400000cf
:1039f80000400000004000000040000000400000bf
:103a0800566100006c750000652000006f750000ad
:103a1800742000006f66000020720000616e0000d4
:103a28006765000020280000302e00002e360000b8
:103a380033290000004900006e760000616c000028
:103a480069640000206800007a000000496e0000e8
:103a5800766100006c6900006420000067000000c7
:103a6800577200006f6e0000672000007469000044
:103a78006d65000072200000766100006c75000022
:103a8800650000005f730000797300007465000032
:103a98006d2e0000747500006e6e0000696e0000e7
:103aa800672e00006f73000063740000756e0000dd
:103ab80000540000756e0000652000007468000066
:103ac800652000006f73000063740000756e0000cd
:103ad80020720000656700006973000074650000cb
:103ae80072000000766100006c750000650000003f
:103af80061630000632e000073650000745f0000be
:103b08006d6f0000646500000053000065740000dc
:103b180020740000686500002061000063630000f5
:103b2800656c0000657200006f6d00006574000030
:103b380065720000206d00006f64000065000000e1
:103b4800687a000000670000006d00006f740000d4
:103b58006f7200002e730000657400005f62000041
:103b680072650000616b00005f6d00006f6400000b
:103b780065000000536500007420000074680000b0
:103b8800652000006d6f0000746f00007220000057
:103b980062720000656100006b2000006d6f00001c
:103ba8006465000000300000203d00002064000033
:103bb80069730000616200006c650000642c0000fd
:103bc80020310000203d0000206500006e610000eb
:103bd800626c00006564000000620000617400000f
:103be80074650000727900002e7500007064000092
:103bf80061740000652e0000746500006d7000009f
:103c080065720000617400007572000065000000b4
:103c180055700000646100007465000020740000a5
:103c2800686500002062000061740000746500008f
:103c38007279000020740000656d00007065000056
:103c48007261000074750000726500002073000046
:103c58007461000074750000730000006261000068
:103c68007474000065720000792e00007570000001
:103c780064610000746500002e7600006f6c00001f
:103c88007461000067650000005500007064000062
:103c98006174000065200000746800006520000061
:103ca80062610000747400006572000079200000f1
:103cb800766f00006c7400006167000065200000ea
:103cc8007374000061740000757300000000000048
:103cd8002e2e00002f2e00002e2f00002e2e00006a
:103ce8002f2e00002e2f00004453000050330000f8
:103cf800335f0000636500006c6c0000756c0000a9
:103d08006f5f000076690000622f00006d6f000091
:103d18006c6f00006c6500002f69000032630000c2
:103d28002f690000326300005f70000072690000b4
:103d3800762e0000680000002e2e00002f2e0000b6
:103d48002e2f00002e2e00002f2e00002e2f0000f8
:103d58004453000050330000335f000063650000e7
:103d68006c6c0000756c00006f5f000076690000e5
:103d7800622f00006d6f00006c6f00006c65000022
:103d88002f690000326300002f6d0000617300008e
:103d980074650000725f0000707200006f740000ac
:103da8006f6300006f6c00002e63000000000000cd
:103db8002e2e00002f2e00002e2f00002e2e000089
:103dc8002f2e00002e2f0000445300005033000017
:103dd800335f0000636500006c6c0000756c0000c8
:103de8006f5f000076690000622f00006d6f0000b1
:103df8006c6f00006c6500002f630000616e0000ae
:103e08002f630000616e00002e63000000000000b8
:103e1800e8030000c100000098030000f40100005e
:103e280001000000f4070000fa0000000300000091
:103e3800fa0700006400000009000000fa0700000b
:103e4800000000000000000000000000e80300007f
:103e5800c0000000b0050000f401000001000000ef
:103e6800f8040000fa00000002000000fa07000051
:103e78006400000009000000f804000000000000d1
:103e880000000000000000002e2e00002f2e000071
:103e98002e2f00002e2e00002f2e00002e2f0000a7
:103ea8004453000050330000335f00006365000096
:103eb8006c6c0000756c00006f5f00007669000094
:103ec800622f00006d6f00006c6f00006c650000d1
:103ed8002f690000326300002f6900003263000080
:103ee8005f70000072690000762e00006800000014
:103ef8002e2e00002f2e00002e2f00002e2e000048
:103f08002f2e00002e2f00004453000050330000d5
:103f1800335f0000636500006c6c0000756c000086
:103f28006f5f000076690000622f00006d6f00006f
:103f38006c6f00006c6500002f69000032630000a0
:103f48002f6d00006173000074650000722e000080
:103f5800630000002e2e00002f2e00002e2f0000e0
:103f68002e2e00002f2e00002e2f0000445300009c
:103f780050330000335f0000636500006c6c000084
:103f8800756c00006f5f000076690000622f00000a
:103f98006d6f00006c6f00006c6500002f740000ee
:103fa800696d0000657200002f740000696d0000e3
:103fb800657200002e630000000000000100000090
:103fc80000000000080000000000000040000000a1
:103fd8000000000000010000000000002e2e00007c
:103fe8002f2e00002e2f00002e2e00002f2e000056
:103ff8002e2f00004453000050330000335f0000b0
:10400800636500006c6c0000756c00006f5f000059
:1040180076690000622f00006d6f00006c6f000071
:104028006c6500002f6500006e6300006f6400007f
:10403800657200002f6500006e6300006f64000069
:10404800657200002e630000000000002e2e0000a4
:104058002f2e00002e2f00002e2e00002f2e0000e5
:104068002e2f00004453000050330000335f00003f
:10407800636500006c6c0000756c00006f5f0000e9
:1040880076690000622f00006d6f00006c6f000001
:104098006c6500002f690000326300002f69000082
:1040a800326300005f70000072690000762e000025
:1040b800680000002e2e00002f2e00002e2f00007a
:1040c8002e2e00002f2e00002e2f0000445300003b
:1040d80050330000335f0000636500006c6c000023
:1040e800756c00006f5f000076690000622f0000a9
:1040f8006d6f00006c6f00006c6500002f6600009b
:104108006c610000736800002f6600006c6100009d
:10411800736800002e630000000000002e2e0000cf
:104128002f2e00002e2f00002e2e00002f2e000014
:104138002e2f00004453000050330000335f00006e
:10414800636500006c6c0000756c00006f5f000018
:1041580076690000622f00006d6f00006c6f000030
:104168006c6500002f670000706900006f2f000069
:1041780067700000696f00002e63000000000000f7
:104188002e2e00002f2e00002e2f00002e2e0000b5
:104198002f2e00002e2f0000445300005033000043
:1041a800335f0000636500006c6c0000756c0000f4
:1041b8006f5f000076690000622f00006d6f0000dd
:1041c8006c6f00006c6500002f6400006d610000da
:1041d8002f6400006d6100002e63000000000000e5
:1041e8002e2e00002f2e00002e2f00002e2e000055
:1041f8002f2e00002e2f00004453000050330000e3
:10420800335f0000636500006c6c0000756c000093
:104218006f5f000076690000622f00006d6f00007c
:104228006c6f00006c6500002f6100006463000083
:104238002f610000646300002e630000000000008e
:104248002e2e00002f2e00002e2f00002e2e0000f4
:104258002f2e00002e2f0000445300005033000082
:10426800335f0000636500006c6c0000756c000033
:104278006f5f000076690000622f00006d6f00001c
:104288006c6f00006c6500002f700000776d0000f7
:104298002f700000776d00002e6300000000000002
:1042a8002e2e00002f2e00002e2f00002e2e000094
:1042b8002f2e00002e2f0000445300005033000022
:1042c800335f0000636500006c6c0000756c0000d3
:1042d8006f5f000076690000622f00006d6f0000bc
:1042e8006c6f00006c6500002f690000632f0000f0
:0c42f800696300002e630000000000005d
:020000040000fa
:104304000200fa00f0bf9f006102b900e80f5200fa
:10431400e08f5a001c003e000460010008003700d2
:10432400090037000a0037000b0037000c00370083
:104334000d0037000e0037000f0037001000370063
:104344001108880015003700610888001300370041
:104354007108880011003700d10888000f00370069
:10436400e10888000d003700410988000b00370080
:104374005109880009003700b10988000700370097
:10438400c1098800050037008f81e9004210200030
:10439400014d2000e0fa29009f3407000080fa0054
:1043a400000006000200fa00f0bf9f006102b9009d
:1043b400ec0f5200e08f5a002a003e000460010016
:1043c4002d0037000b0037000a00370010003700bb
:1043d4000f00370015003700140037001a003700ab
:1043e4001900370003003700090037000f003700b9
:1043f40015003700e1806000c308dd0084088000f8
:104404000430a10001027200840888001a003700f9
:10441400e1806000c308dd00f40880000430a100de
:1044240001027200f408880013003700e180600084
:10443400c308dd00640980000430a1000102720099
:10444400640988000c003700e1806000c308dd00c7
:10445400d40980000430a10001027200d40988004c
:10446400050037008f81e90042102000a14620009a
:10447400e0fa2900683407000080fa000000060012
:104484000200fa00f0bf9f006102b900ec0f520075
:10449400e08f5a0056003e00046001000c00370013
:1044a400130037001a0037002100370028003700b6
:1044b4002f003700360037003d0037004400370036
:1044c4000b0037001a003700290037003800370086
:1044d400e3806000c408dd00f4fc2f0025088000a0
:1044e400050262008100720021088800450037003f
:1044f400e3806000c408dd00f4fc2f008508800020
:104504000502620081007200810888003d003700c6
:10451400e3806000c408dd00f4fc2f0095088000ef
:10452400050262008100720091088800350037009e
:10453400e3806000c408dd00f4fc2f00f50880006f
:104544000502620081007200f10888002d00370026
:10455400e3806000c408dd00f4fc2f00050980003e
:1045640005026200810072000109880025003700fd
:10457400e3806000c408dd00f4fc2f0065098000be
:104584000502620081007200610988001d00370085
:10459400e3806000c408dd00f4fc2f00750980008e
:1045a400050262008100720071098800150037005d
:1045b400e3806000c408dd00f4fc2f00d50980000e
:1045c4000502620081007200d10988000d003700e5
:1045d400e3806000c408dd00f4fc2f00e5098000de
:1045e4000502620081007200e109880005003700bd
:1045f4008f81e90042102000214a2000e0fa2900be
:10460400053407000080fa00000006000200fa00ea
:10461400f0bf9f00cf80de0069005000e0805800aa
:10462400e30f5000e08f580013003e00401ade00f4
:10463400050020000060010003003700050037007a
:1046440007003700090037006208880074088800f2
:104654000e003700d2088800e40888000b003700f9
:10466400420988005409880008003700b20988000c
:10467400c4098800050037008f81e900421020003a
:10468400a14f2000e0fa2900e33307000080fa007c
:1046940000000600e80f5000020034000000d000c3
:1046a4007100500000000600000278001000200095
:1046b400e80f520001003c000000eb00000006007f
:1046c4000200fa00889fbe008a1f7800c0bf9f00c6
:1046d40000047800ec0f540005003600e881570010
:1046e40042102000e1152000e0fa2900ca33070037
:1046f40008007800e7ff070000057800c9322100b0
:104704004252dd0004824400940278000510a100a6
:104714000500a000050a780008007800e2ff070001
:10472400e00f5000040032000a05e8004255dd00a5
:104734008a8444001900a0004f0578004f04be008d
:104744000080fa0000000600d2ff07004200dd00ee
:104754000080e800a4322100640078006100600059
:10476400000006000200fa00889fbe00d0bf9f0030
:104774000104780080047800ec8f540004003600b3
:10478400e681570042102000e11920000c00370098
:1047940009007800bfff07004200dd000080e80048
:1047a400a4322100640278000402d1006142620054
:1047b40005003a00e681570032102000211a20003b
:1047c400e0fa290094330700614ab90061025200fb
:1047d400e0825a00eb0f5200e08f5a000d003e00b9
:1047e4000460010011003700160037001b00370079
:1047f40020003700250037002a0037002f0037003b
:104804003400370009003700140037001f00370058
:104814002a0037004f44dd002408800004f0a10082
:1048240008027200240888002f0037004f44dd007e
:104834008408800004f0a100080272008408880043
:10484400290037004f44dd009408800004f0a100e3
:104854000802720094088800230037004f44dd00ea
:10486400f408800004f0a10008027200f408880033
:104874001d0037004f44dd000409800004f0a1004e
:104884000802720004098800170037004f44dd0055
:104894006409800004f0a100080272006409880021
:1048a400110037004f44dd007409800004f0a100ba
:1048b40008027200740988000b0037004f44dd00c1
:1048c400d409800004f0a10008027200d409880011
:1048d400050037004f44dd00e409800004f0a10026
:1048e40008027200e40988004f04be000080fa0048
:1048f400000006008000eb009aff37001100200042
:1049040098ff37000200fa00f0bf9f00cf80de005e
:10491400ec0f5000e08f580024003e0000600100be
:104924000c0037000e0037000f003700110037006d
:104934001200370014003700150037001700370045
:104944001800370005003700090037000d00370054
:104954001100370002088800190037004308880056
:104964003208880016003700520888001400370007
:10497400b3088800a208880011003700c208880024
:104984000f00370023098800120988000c00370043
:10499400320988000a0037009309880082098800d8
:1049a40007003700a2098800050037008f81e9005d
:1049b40042102000d11e2000e0fa2900163307001f
:1049c4000080fa00000006004000fa00889fbe0044
:1049d4008a9fbe008c9fbe00e0a79f00f2a79f00a5
:1049e40083af9f0091af9f006022b8006033b8008e
:1049f400a49f9f00b59f9f00c69f9f00d79f9f00c5
:104a0400c0fb2f000080470024fe29000700090096
:104a1400341878006fa49700ec0f5400050036009a
:104a2400c3fc2f008f814100421020002110200080
:104a34000d0037000800780016ff07004200dd0073
:104a44000080e800a4322100640278000402d1004e
:104a54006142620006003a00c3fc2f008f814100ce
:104a64003210200061102000e0fa2900ea32070029
:104a74001faa9700e00f520013003200e30f520008
:104a840011003200e60f52000f003200e90f52000d
:104a94000d003200e10f42001d003200e20f42001f
:104aa4001b003200e30f420019003200e40f420001
:104ab4001700320023fd2f008f8141005210200087
:104ac400b1102000e8ff37007fa097008fa897005f
:104ad4000001eb008201780002067800e90612006a
:104ae40005003700a4002000050020006033b80052
:104af40041f007000c06e8008d0f5600f9ff350061
:104b0400a09f9f00b19f9f00c29f9f00d39f9f00c3
:104b1400e80f540091003c008040eb00080078004e
:104b240020fe07001fae9700e00f56007800350006
:104b34002f9a9700bf9a97004f9b9700df9b97008f
:104b4400e4b79f00f5b79f0086bf9f0097bf9f0003
:104b5400473207000004be000005eb008a05780018
:104b64006fb29700ffb297000fbb97009fbb9700ef
:104b74000820e10009a8e1000ab0e1000bb8e10057
:104b84001c0039002f9a9700bf9a97004f9b9700fb
:104b9400df9b9700e4af9f00f5af9f0086b79f00af
:104ba40097b79f00323207000a0178008a01780023
:104bb40004f02f00f50f20006033b8000ef007005a
:104bc4006faa9700ffaa97000fb397009fb39700af
:104bd4000020e10001a8e10002b0e10003b8e10017
:104be40004003e008dfb2f008f8646000a067800e5
:104bf4000600370043fb2f008f8141001210200074
:104c0400d111200098ff37000c06e8002f9a970076
:104c1400bf9a97004f9b9700df9b9700e4af9f00dc
:104c2400f5af9f0086b79f0097b79f00103207002b
:104c34000004be005d03be00a6b79f00b7b79f0087
:104c44008003eb00c7b79f000000eb00d0b79f00c4
:104c5400f4ff2f00050020006033b8002fb0970048
:104c6400bfb097004fb19700dfb19700e2ef0700a4
:104c7400a8af9f00b9af9f00dfb29700c5af9f00f8
:104c840005037800d6af9f002faa9700bfaa97000c
:104c94004fab9700dfab9700d7ef07006faa9700e1
:104ca400ffaa97000fb397009fb397000020e1007d
:104cb40001a8e10002b0e10003b8e100d2ff3e0028
:104cc4002f9c9700bf9c97004f9d9700df9d9700f6
:104cd400e73107005fb19700820178002fb2970097
:104ce400bfb297004fb39700dfb39700c2ef07003e
:104cf4000203be000002be000800be000a01be009e
:104d040054ef07000205be000004be000c0037008b
:104d14007fa297008faa9700e10f4200e08f5a000c
:104d240005003600e3fc2f008f81410012102000a3
:104d3400711220004cff37000c86ea000404be0008
:104d44008c0078006fa09700cdfd070088007800e4
:104d54006fa097006afd07008400370011c0b300fc
:104d6400080078008ffd07001fae9700e00f560083
:104d7400750035002f9a9700bf9a97004f9b9700b4
:104d8400df9b9700e4b79f00f5b79f0086bf9f00a5
:104d940097bf9f00b63107000004be000005eb007a
:104da4008a0578006fb29700ffb297000fbb970097
:104db4009fbb97000820e10009a8e1000ab0e100c8
:104dc4000bb8e1001d0039002f9a9700bf9a970095
:104dd4004f9b9700df9b9700a4b79f00b5b79f0038
:104de400c6b79f00d7b79f00a13107000a0178001a
:104df4008a01780004f02f00f5ff2f00f60f200041
:104e0400070020007cef07002fb29700bfb2970085
:104e14004fb39700dfb397000020e10001a8e10041
:104e240002b0e10003b8e10004003e008dfb2f0056
:104e34008f8646000a0678000600370043fb2f00e1
:104e44008f81410012102000a113200006ff3700bb
:104e54000c06e8002f9a9700bf9a97004f9b970083
:104e6400df9b9700a4b79f00b5b79f00c6b79f000c
:104e7400d7b79f007e3107005d04be000801be0065
:104e840043ee0700e0af9f00f1af9f008003eb000b
:104e940087b79f000000eb0090b79f006faa9700b0
:104ea400ffaa97000fb397009fb397002fb0970006
:104eb400bfb097004fb19700dfb19700e5ee070050
:104ec400f4ff2f00f5ff2f006033b8000400e10069
:104ed4000588e1000690e1000798e100dcff3e0050
:104ee4002f9a9700bf9a97004f9b9700df9b9700dc
:104ef400a4b79f00b5b79f00c6b79f00d7b79f0060
:104f04005b3107000002be001fb097000003780069
:104f1400800378002fb09700bfb097004fb197007f
:104f2400dfb19700cbee07000802be001fb4970064
:104f34000803780088037800c6ee07000205be0067
:104f44000004be00030037000c86ea007fa497002b
:104f54008fac97008c0078006fa0970048fd070085
:104f64000801be006fa09700a8fd07006011b800fb
:104f74006fa0970063fe07004f06be004f05be00fa
:104f84004f04be000080fa00000006000200fa0090
:104f9400f0bf9f00cf80de00ec0f5000e08f580080
:104fa4002f003e00006001000c0037000d003700a8
:104fb40012003700130037001700370018003700bd
:104fc4001c0037001d00370023003700080037009d
:104fd4000e003700140037001a0037000008800064
:104fe4000100370030088000010020002100370054
:104ff4003408800040088000140037005008800006
:10500400f9ff3700a0088000f7ff3700a4088000ec
:10501400b00880000d003700c0088000f2ff3700a0
:1050240010098000f0ff3700140980002009800077
:105034000600370030098000ebff3700800980004c
:10504400e9ff37008409800090098000800078001f
:105054000400780007003700a0098000e2ff370051
:105064008f81e9004210200051212000e0fa29003c
:10507400693107000080fa00000006000400fa000d
:10508400e0bf9f00f1bf9f00e18f50000400360095
:105094008f81e90062102000912220006200370015
:1050a4006fba9700cfa2de00ec0f5200e08f5a00d7
:1050b4005a003e00046001000c0037001400370061
:1050c4001b003700230037002a0037003200370066
:1050d4003900370041003700480037000b00370023
:1050e4001b0037002b0037003b003700e1806000d5
:1050f40081804000240880000410a1000102720095
:105104002408880005a1a9004900370013a1a900bb
:10511400e180600081804000840880000410a100c8
:10512400010272008408880011a1a9004000370020
:10513400e180600081804000940880000410a10098
:10514400010272009408880013a1a90038003700f6
:1051540021a1a900e180600081804000f408800062
:105164000410a10001027200f40888001fa1a90024
:105174002f003700e1806000818040000409800036
:105184000410a100010272000409880021a1a900f1
:10519400270037002fa1a900e18060008180400032
:1051a400640980000410a1000102720064098800ef
:1051b4002da1a9001e003700e1806000818040001d
:1051c400740980000410a1000102720074098800af
:1051d4002fa1a900160037003da1a900e1806000bd
:1051e40081804000d40980000410a10001027200f3
:1051f400d40988003ba1a9000d003700e1806000bc
:1052040081804000e40980000410a10001027200c2
:10521400e40988003da1a90005003700e481570096
:105224004210200011262000e0fa2900fa3007007d
:105234000080fa00000006000200fa00f0bf9f00a0
:105244006102b900ec0f5200e08f5a004d003e009d
:10525400046001000c00370012003700180037000a
:105264001e003700240037002a00370030003700c2
:10527400360037003c0037000a00370017003700bb
:105284002400370031003700e1806000c608dd00eb
:10529400240880000460a100010272002408880030
:1052a4003d003700e1806000c608dd00840880000e
:1052b4000460a100010272008408880036003700ef
:1052c400e1806000c608dd00940880000460a1004d
:1052d40001027200940888002f003700e18060000a
:1052e400c608dd00f40880000460a1000102720019
:1052f400f408880028003700e1806000c608dd005b
:10530400040980000460a1000102720004098800fd
:1053140021003700e1806000c608dd0064098000d8
:105324000460a10001027200640988001a003700b9
:10533400e1806000c608dd00740980000460a100fb
:10534400010272007409880013003700e1806000d4
:10535400c608dd00d40980000460a10001027200c7
:10536400d40988000c003700e1806000c608dd0025
:10537400e40980000460a10001027200e4098800cd
:10538400050037008f81e9004210200041292000e8
:10539400e0fa2900a03007000080fa0000000600af
:1053a4000400fa00889fbe008a1f7800b0bf9f00e7
:1053b40001047800c2bf9f0000057800ec0f55007f
:1053c40004003600ea81570042102000812a2000a0
:1053d40007003700cfbc97000902e900e60f52002e
:1053e40005003600e881570022002000912a2000a1
:1053f400e0fa2900883007000a007800a5fc0700bd
:105404004200dd00a4322100083278006150b90066
:1054140061005000e0805800eb0f5000e08f58000e
:105424000d003e0000600100150037001e0037002b
:10543400260037002f0037003700370040003700c0
:1054440048003700510037001700370029003700a3
:105454003b0037004d003700e7846400cc4cdd008e
:10546400f4ff28002505800005026200890472000b
:10547400290588008460a9009460a8004b003700c7
:10548400e7846400cc4cdd00f4ff2800350580007f
:1054940005026200890472003905880084e0a900cd
:1054a40094e0a80041003700e784640084ff2f00e3
:1054b40045058000050262008904720049058800e0
:1054c4008500a9009500a80038003700e78464002f
:1054d400cc4cdd00f4ff2800850580000502620045
:1054e40089047200890588008760a9009760a80074
:1054f4002e003700e784640084ff2f0095058000a8
:105504000502620089047200990588008780a90059
:105514009780a80025003700e7846400cc4cdd00a8
:10552400f4ff2800d505800005026200890472009a
:10553400d905880089e0a90099e0a8001b0037007c
:10554400e784640084ff2f00e50580000502620003
:1055540089047200e90588008a00a9009a00a8005d
:1055640012003700e7846400cc4cdd00f4ff28000f
:10557400e50580000502620089047200e9058800df
:105584008a60a9009a60a80008003700e7846400d4
:1055940084ff2f00f5058000050262008904720073
:1055a400f90588008a80a9009a80a8004f05780030
:1055b4004f04be000080fa00000006000200fa005a
:1055c400f0bf9f00cf80de00ec0f5000e08f58004a
:1055d40042003e00006001000c003700110037005b
:1055e400160037001b003700200037002500370065
:1055f400290037002d003700320037000f00370034
:105604001a003700240037002e003700a004800061
:105614004300de00610060009460a8008460a8007c
:1056240033003700a00480004700de006100600002
:1056340094e0a80084e0a8002d003700a0048000b6
:105644004800de00610060009500a8008500a80005
:1056540027003700b00480004b00de0061006000ca
:105664009760a8008760a80021003700b00480007c
:105674004c00de00610060009780a8008780a800cd
:105684001b003700c00480004f00de0099e0a80032
:1056940089e0a80016003700d00480006100600093
:1056a4009a00a8008a00a80011003700d0048000e6
:1056b4004300de00610060009a60a8008a60a800d0
:1056c4000b003700d00480004400de00610060005d
:1056d4009a80a8008a80a800050037008f81e9001d
:1056e40042102000f1332000e0fa2900ca2f0700fd
:1056f4000080fa00000006000200fa00f0bf9f00dc
:10570400cf80de00ec0f5000e08f580028003e00f0
:10571400006001000c0037000d0037000f00370057
:105724001100370013003700150037001700370049
:10573400180037001a003700080037000d00370042
:1057440012003700160037002004800012003700d2
:10575400200480004700de0013003700200480008e
:105764004800de0010003700300480004b00de00eb
:105774000d003700300480004c00de000a003700c2
:10578400400480004f00de000e003700500480000b
:1057940005003700500480004300de00020037009b
:1057a400500480004400de00610060000500370002
:1057b4008f81e9004210200011372000e0fa29000f
:1057c400952f07000080fa00000006000200fa008e
:1057d400f0bf9f006102b900ec0f5200e08f5a0045
:1057e4005a003e00046001000c003700130037002b
:1057f4001c003700230037002a003700330037002d
:105804003a0037003f0037004600370015003700e4
:1058140024003700350037004200370020048000a0
:105824004300de0061006000e1806000c308dd0029
:10583400240480000430a100070037002004800005
:105844004700de0061006000e1806000c708dd0001
:10585400240480000470a100010272002404880062
:105864003f003700200480004800de006100600033
:10587400e1806000c808dd00240480000480a100e9
:10588400f5ff3700300480004b00de00610060004b
:10589400e1806000cb08dd003404800004b0a10086
:1058a40007003700300480004c00de006100600017
:1058b400e1806000cc08dd003404800004c0a10055
:1058c400010272003404880025003700400480007f
:1058d4004f00de00cf08dd004404800004f0a10086
:1058e40001027200440488001d0037005004800047
:1058f40061006000e1806000540480000400a100a5
:105904000f003700500480004300de006100600097
:10591400e1806000c308dd00540480000430a1006d
:1059240007003700500480004400de00610060007e
:10593400e1806000c408dd00540480000440a1003c
:105944000102720054048800050037008f81e900c9
:1059540042102000613b2000e0fa29002e2f0700ae
:105964000080fa00000006000200fa00f0bf9f0069
:10597400cf80de00ec0f5000e08f580029003e007d
:10598400006001000c0037000e00370010003700e3
:1059940012003700140037001600370018003700d3
:1059a4001a0037001c003700090037000e003700ca
:1059b40013003700180037009460a9008460a90020
:1059c4001d00370094e0a90084e0a9001a00370004
:1059d4009500a9008500a900170037009760a90069
:1059e4008760a900140037009780a9008780a90068
:1059f4001100370099e0a90089e0a9000e003700e2
:105a04009a00a9008a00a9000b0037009a60a90037
:105a14008a60a900080037009a80a9008a80a9003a
:105a2400050037008f81e90042102000913f2000db
:105a3400e0fa2900f82e07000080fa0000000600b2
:105a44000600fa00889fbe008a9fbe008c9fbe009d
:105a5400f0b79f008106780000057800ec0f550030
:105a640004003600f281570042102000210c20006f
:105a7400100037000a00780082bf9f0093bf9f0088
:105a840004fb0700000678004264dd000882e80099
:105a9400a532210065027a00614262000fb99700c5
:105aa4009fb9970005003a00f281570022102000a8
:105ab400610c2000e0fa2900d72e0700cb32210028
